{"contracts/GovernanceToken.sol":{"CrowdchainGovernor":{"abi":[{"inputs":[{"internalType":"address","name":"initialOwner","type":"address"}],"stateMutability":"nonpayable","type":"constructor"},{"inputs":[],"name":"CheckpointUnorderedInsertion","type":"error"},{"inputs":[],"name":"ECDSAInvalidSignature","type":"error"},{"inputs":[{"internalType":"uint256","name":"length","type":"uint256"}],"name":"ECDSAInvalidSignatureLength","type":"error"},{"inputs":[{"internalType":"bytes32","name":"s","type":"bytes32"}],"name":"ECDSAInvalidSignatureS","type":"error"},{"inputs":[{"internalType":"uint256","name":"increasedSupply","type":"uint256"},{"internalType":"uint256","name":"cap","type":"uint256"}],"name":"ERC20ExceededSafeSupply","type":"error"},{"inputs":[{"internalType":"address","name":"spender","type":"address"},{"internalType":"uint256","name":"allowance","type":"uint256"},{"internalType":"uint256","name":"needed","type":"uint256"}],"name":"ERC20InsufficientAllowance","type":"error"},{"inputs":[{"internalType":"address","name":"sender","type":"address"},{"internalType":"uint256","name":"balance","type":"uint256"},{"internalType":"uint256","name":"needed","type":"uint256"}],"name":"ERC20InsufficientBalance","type":"error"},{"inputs":[{"internalType":"address","name":"approver","type":"address"}],"name":"ERC20InvalidApprover","type":"error"},{"inputs":[{"internalType":"address","name":"receiver","type":"address"}],"name":"ERC20InvalidReceiver","type":"error"},{"inputs":[{"internalType":"address","name":"sender","type":"address"}],"name":"ERC20InvalidSender","type":"error"},{"inputs":[{"internalType":"address","name":"spender","type":"address"}],"name":"ERC20InvalidSpender","type":"error"},{"inputs":[{"internalType":"uint256","name":"deadline","type":"uint256"}],"name":"ERC2612ExpiredSignature","type":"error"},{"inputs":[{"internalType":"address","name":"signer","type":"address"},{"internalType":"address","name":"owner","type":"address"}],"name":"ERC2612InvalidSigner","type":"error"},{"inputs":[{"internalType":"uint256","name":"timepoint","type":"uint256"},{"internalType":"uint48","name":"clock","type":"uint48"}],"name":"ERC5805FutureLookup","type":"error"},{"inputs":[],"name":"ERC6372InconsistentClock","type":"error"},{"inputs":[{"internalType":"address","name":"account","type":"address"},{"internalType":"uint256","name":"currentNonce","type":"uint256"}],"name":"InvalidAccountNonce","type":"error"},{"inputs":[],"name":"InvalidShortString","type":"error"},{"inputs":[{"internalType":"address","name":"owner","type":"address"}],"name":"OwnableInvalidOwner","type":"error"},{"inputs":[{"internalType":"address","name":"account","type":"address"}],"name":"OwnableUnauthorizedAccount","type":"error"},{"inputs":[{"internalType":"uint8","name":"bits","type":"uint8"},{"internalType":"uint256","name":"value","type":"uint256"}],"name":"SafeCastOverflowedUintDowncast","type":"error"},{"inputs":[{"internalType":"string","name":"str","type":"string"}],"name":"StringTooLong","type":"error"},{"inputs":[{"internalType":"uint256","name":"expiry","type":"uint256"}],"name":"VotesExpiredSignature","type":"error"},{"anonymous":false,"inputs":[{"indexed":true,"internalType":"address","name":"owner","type":"address"},{"indexed":true,"internalType":"address","name":"spender","type":"address"},{"indexed":false,"internalType":"uint256","name":"value","type":"uint256"}],"name":"Approval","type":"event"},{"anonymous":false,"inputs":[{"indexed":true,"internalType":"address","name":"delegator","type":"address"},{"indexed":true,"internalType":"address","name":"fromDelegate","type":"address"},{"indexed":true,"internalType":"address","name":"toDelegate","type":"address"}],"name":"DelegateChanged","type":"event"},{"anonymous":false,"inputs":[{"indexed":true,"internalType":"address","name":"delegate","type":"address"},{"indexed":false,"internalType":"uint256","name":"previousVotes","type":"uint256"},{"indexed":false,"internalType":"uint256","name":"newVotes","type":"uint256"}],"name":"DelegateVotesChanged","type":"event"},{"anonymous":false,"inputs":[],"name":"EIP712DomainChanged","type":"event"},{"anonymous":false,"inputs":[{"indexed":true,"internalType":"address","name":"previousOwner","type":"address"},{"indexed":true,"internalType":"address","name":"newOwner","type":"address"}],"name":"OwnershipTransferred","type":"event"},{"anonymous":false,"inputs":[{"indexed":true,"internalType":"address","name":"from","type":"address"},{"indexed":true,"internalType":"address","name":"to","type":"address"},{"indexed":false,"internalType":"uint256","name":"value","type":"uint256"}],"name":"Transfer","type":"event"},{"inputs":[],"name":"CLOCK_MODE","outputs":[{"internalType":"string","name":"","type":"string"}],"stateMutability":"view","type":"function"},{"inputs":[],"name":"DOMAIN_SEPARATOR","outputs":[{"internalType":"bytes32","name":"","type":"bytes32"}],"stateMutability":"view","type":"function"},{"inputs":[{"internalType":"address","name":"owner","type":"address"},{"internalType":"address","name":"spender","type":"address"}],"name":"allowance","outputs":[{"internalType":"uint256","name":"","type":"uint256"}],"stateMutability":"view","type":"function"},{"inputs":[{"internalType":"address","name":"spender","type":"address"},{"internalType":"uint256","name":"value","type":"uint256"}],"name":"approve","outputs":[{"internalType":"bool","name":"","type":"bool"}],"stateMutability":"nonpayable","type":"function"},{"inputs":[{"internalType":"address","name":"account","type":"address"}],"name":"balanceOf","outputs":[{"internalType":"uint256","name":"","type":"uint256"}],"stateMutability":"view","type":"function"},{"inputs":[{"internalType":"uint256","name":"value","type":"uint256"}],"name":"burn","outputs":[],"stateMutability":"nonpayable","type":"function"},{"inputs":[{"internalType":"address","name":"account","type":"address"},{"internalType":"uint256","name":"value","type":"uint256"}],"name":"burnFrom","outputs":[],"stateMutability":"nonpayable","type":"function"},{"inputs":[{"internalType":"address","name":"account","type":"address"},{"internalType":"uint32","name":"pos","type":"uint32"}],"name":"checkpoints","outputs":[{"components":[{"internalType":"uint48","name":"_key","type":"uint48"},{"internalType":"uint208","name":"_value","type":"uint208"}],"internalType":"struct Checkpoints.Checkpoint208","name":"","type":"tuple"}],"stateMutability":"view","type":"function"},{"inputs":[],"name":"clock","outputs":[{"internalType":"uint48","name":"","type":"uint48"}],"stateMutability":"view","type":"function"},{"inputs":[],"name":"decimals","outputs":[{"internalType":"uint8","name":"","type":"uint8"}],"stateMutability":"view","type":"function"},{"inputs":[{"internalType":"address","name":"delegatee","type":"address"}],"name":"delegate","outputs":[],"stateMutability":"nonpayable","type":"function"},{"inputs":[{"internalType":"address","name":"delegatee","type":"address"},{"internalType":"uint256","name":"nonce","type":"uint256"},{"internalType":"uint256","name":"expiry","type":"uint256"},{"internalType":"uint8","name":"v","type":"uint8"},{"internalType":"bytes32","name":"r","type":"bytes32"},{"internalType":"bytes32","name":"s","type":"bytes32"}],"name":"delegateBySig","outputs":[],"stateMutability":"nonpayable","type":"function"},{"inputs":[{"internalType":"address","name":"account","type":"address"}],"name":"delegates","outputs":[{"internalType":"address","name":"","type":"address"}],"stateMutability":"view","type":"function"},{"inputs":[],"name":"eip712Domain","outputs":[{"internalType":"bytes1","name":"fields","type":"bytes1"},{"internalType":"string","name":"name","type":"string"},{"internalType":"string","name":"version","type":"string"},{"internalType":"uint256","name":"chainId","type":"uint256"},{"internalType":"address","name":"verifyingContract","type":"address"},{"internalType":"bytes32","name":"salt","type":"bytes32"},{"internalType":"uint256[]","name":"extensions","type":"uint256[]"}],"stateMutability":"view","type":"function"},{"inputs":[{"internalType":"uint256","name":"timepoint","type":"uint256"}],"name":"getPastTotalSupply","outputs":[{"internalType":"uint256","name":"","type":"uint256"}],"stateMutability":"view","type":"function"},{"inputs":[{"internalType":"address","name":"account","type":"address"},{"internalType":"uint256","name":"timepoint","type":"uint256"}],"name":"getPastVotes","outputs":[{"internalType":"uint256","name":"","type":"uint256"}],"stateMutability":"view","type":"function"},{"inputs":[{"internalType":"address","name":"account","type":"address"}],"name":"getVotes","outputs":[{"internalType":"uint256","name":"","type":"uint256"}],"stateMutability":"view","type":"function"},{"inputs":[{"internalType":"address","name":"to","type":"address"},{"internalType":"uint256","name":"amount","type":"uint256"}],"name":"mint","outputs":[],"stateMutability":"nonpayable","type":"function"},{"inputs":[],"name":"name","outputs":[{"internalType":"string","name":"","type":"string"}],"stateMutability":"view","type":"function"},{"inputs":[{"internalType":"address","name":"owner","type":"address"}],"name":"nonces","outputs":[{"internalType":"uint256","name":"","type":"uint256"}],"stateMutability":"view","type":"function"},{"inputs":[{"internalType":"address","name":"account","type":"address"}],"name":"numCheckpoints","outputs":[{"internalType":"uint32","name":"","type":"uint32"}],"stateMutability":"view","type":"function"},{"inputs":[],"name":"owner","outputs":[{"internalType":"address","name":"","type":"address"}],"stateMutability":"view","type":"function"},{"inputs":[{"internalType":"address","name":"owner","type":"address"},{"internalType":"address","name":"spender","type":"address"},{"internalType":"uint256","name":"value","type":"uint256"},{"internalType":"uint256","name":"deadline","type":"uint256"},{"internalType":"uint8","name":"v","type":"uint8"},{"internalType":"bytes32","name":"r","type":"bytes32"},{"internalType":"bytes32","name":"s","type":"bytes32"}],"name":"permit","outputs":[],"stateMutability":"nonpayable","type":"function"},{"inputs":[],"name":"renounceOwnership","outputs":[],"stateMutability":"nonpayable","type":"function"},{"inputs":[],"name":"symbol","outputs":[{"internalType":"string","name":"","type":"string"}],"stateMutability":"view","type":"function"},{"inputs":[],"name":"totalSupply","outputs":[{"internalType":"uint256","name":"","type":"uint256"}],"stateMutability":"view","type":"function"},{"inputs":[{"internalType":"address","name":"to","type":"address"},{"internalType":"uint256","name":"value","type":"uint256"}],"name":"transfer","outputs":[{"internalType":"bool","name":"","type":"bool"}],"stateMutability":"nonpayable","type":"function"},{"inputs":[{"internalType":"address","name":"from","type":"address"},{"internalType":"address","name":"to","type":"address"},{"internalType":"uint256","name":"value","type":"uint256"}],"name":"transferFrom","outputs":[{"internalType":"bool","name":"","type":"bool"}],"stateMutability":"nonpayable","type":"function"},{"inputs":[{"internalType":"address","name":"newOwner","type":"address"}],"name":"transferOwnership","outputs":[],"stateMutability":"nonpayable","type":"function"}],"evm":{"bytecode":{"linkReferences":{},"object":"610160604052348015610010575f5ffd5b50604051612c21380380612c2183398101604081905261002f9161028b565b6040518060400160405280601281526020017121b937bbb231b430b4b723b7bb32b93737b960711b81525080604051806040016040528060018152602001603160f81b815250836040518060400160405280601281526020017121b937bbb231b430b4b723b7bb32b93737b960711b8152506040518060400160405280600381526020016210d0d560ea1b81525081600390816100cc9190610350565b5060046100d98282610350565b5050506001600160a01b03811661010a57604051631e4fbdf760e01b81525f60048201526024015b60405180910390fd5b610113816101cb565b5061011f82600661021c565b6101205261012e81600761021c565b61014052815160208084019190912060e052815190820120610100524660a0526101ba60e05161010051604080517f8b73c3c69bb8fe3d512ecc4cf759cc79239f7b179b0ffacaa9a75d522b39400f60208201529081019290925260608201524660808201523060a08201525f9060c00160405160208183030381529060405280519060200120905090565b60805250503060c052506104629050565b600580546001600160a01b038381166001600160a01b0319831681179093556040519116919082907f8be0079c531659141344cd1fd0a4f28419497f9722a3daafe3b4186f6b6457e0905f90a35050565b5f602083511015610237576102308361024e565b9050610248565b816102428482610350565b5060ff90505b92915050565b5f5f829050601f81511115610278578260405163305a27a960e01b8152600401610101919061040a565b80516102838261043f565b179392505050565b5f6020828403121561029b575f5ffd5b81516001600160a01b03811681146102b1575f5ffd5b9392505050565b634e487b7160e01b5f52604160045260245ffd5b600181811c908216806102e057607f821691505b6020821081036102fe57634e487b7160e01b5f52602260045260245ffd5b50919050565b601f82111561034b57805f5260205f20601f840160051c810160208510156103295750805b601f840160051c820191505b81811015610348575f8155600101610335565b50505b505050565b81516001600160401b03811115610369576103696102b8565b61037d8161037784546102cc565b84610304565b6020601f8211600181146103af575f83156103985750848201515b5f19600385901b1c1916600184901b178455610348565b5f84815260208120601f198516915b828110156103de57878501518255602094850194600190920191016103be565b50848210156103fb57868401515f19600387901b60f8161c191681555b50505050600190811b01905550565b602081525f82518060208401528060208501604085015e5f604082850101526040601f19601f83011684010191505092915050565b805160208083015191908110156102fe575f1960209190910360031b1b16919050565b60805160a05160c05160e05161010051610120516101405161276e6104b35f395f6111ad01525f61118001525f610d8701525f610d5f01525f610cba01525f610ce401525f610d0e015261276e5ff3fe608060405234801561000f575f5ffd5b50600436106101c6575f3560e01c8063715018a6116100fe57806395d89b411161009e578063d505accf1161006e578063d505accf14610431578063dd62ed3e14610444578063f1127ed814610489578063f2fde38b146104db575f5ffd5b806395d89b41146103f05780639ab24eb0146103f8578063a9059cbb1461040b578063c3cda5201461041e575f5ffd5b806384b0196e116100d957806384b0196e146103855780638da5cb5b146103a05780638e539e8c146103be57806391ddadf4146103d1575f5ffd5b8063715018a61461035757806379cc67901461035f5780637ecebe0014610372575f5ffd5b806340c10f1911610169578063587cde1e11610144578063587cde1e1461028a5780635c19a95c146102e75780636fcfff45146102fa57806370a0823114610322575f5ffd5b806340c10f191461025a57806342966c681461026f5780634bf5d7e914610282575f5ffd5b806323b872dd116101a457806323b872dd1461021d578063313ce567146102305780633644e5151461023f5780633a46b1a814610247575f5ffd5b806306fdde03146101ca578063095ea7b3146101e857806318160ddd1461020b575b5f5ffd5b6101d26104ee565b6040516101df91906122ae565b60405180910390f35b6101fb6101f63660046122e8565b61057e565b60405190151581526020016101df565b6002545b6040519081526020016101df565b6101fb61022b366004612310565b610597565b604051601281526020016101df565b61020f6105ba565b61020f6102553660046122e8565b6105c8565b61026d6102683660046122e8565b610622565b005b61026d61027d36600461234a565b610638565b6101d2610645565b6102c2610298366004612361565b73ffffffffffffffffffffffffffffffffffffffff9081165f908152600960205260409020541690565b60405173ffffffffffffffffffffffffffffffffffffffff90911681526020016101df565b61026d6102f5366004612361565b6106d6565b61030d610308366004612361565b6106e1565b60405163ffffffff90911681526020016101df565b61020f610330366004612361565b73ffffffffffffffffffffffffffffffffffffffff165f9081526020819052604090205490565b61026d6106eb565b61026d61036d3660046122e8565b6106fe565b61020f610380366004612361565b610713565b61038d61071d565b6040516101df979695949392919061237a565b60055473ffffffffffffffffffffffffffffffffffffffff166102c2565b61020f6103cc36600461234a565b61077b565b6103d96107b2565b60405165ffffffffffff90911681526020016101df565b6101d26107bb565b61020f610406366004612361565b6107ca565b6101fb6104193660046122e8565b6107f7565b61026d61042c366004612449565b610804565b61026d61043f36600461249d565b6108eb565b61020f610452366004612503565b73ffffffffffffffffffffffffffffffffffffffff9182165f90815260016020908152604080832093909416825291909152205490565b61049c610497366004612534565b610a94565b60408051825165ffffffffffff16815260209283015179ffffffffffffffffffffffffffffffffffffffffffffffffffff1692810192909252016101df565b61026d6104e9366004612361565b610ab8565b6060600380546104fd90612571565b80601f016020809104026020016040519081016040528092919081815260200182805461052990612571565b80156105745780601f1061054b57610100808354040283529160200191610574565b820191905f5260205f20905b81548152906001019060200180831161055757829003601f168201915b5050505050905090565b5f3361058b818585610b18565b60019150505b92915050565b5f336105a4858285610b2a565b6105af858585610bf8565b506001949350505050565b5f6105c3610ca1565b905090565b5f6105ff6105d583610dd7565b73ffffffffffffffffffffffffffffffffffffffff85165f908152600a6020526040902090610e3e565b79ffffffffffffffffffffffffffffffffffffffffffffffffffff169392505050565b61062a610f04565b6106348282610f57565b5050565b6106423382610fb1565b50565b606061064f61100b565b65ffffffffffff1661065f6107b2565b65ffffffffffff161461069e576040517f6ff0714000000000000000000000000000000000000000000000000000000000815260040160405180910390fd5b5060408051808201909152601d81527f6d6f64653d626c6f636b6e756d6265722666726f6d3d64656661756c74000000602082015290565b336106348183611015565b5f610591826110ab565b6106f3610f04565b6106fc5f6110d9565b565b610709823383610b2a565b6106348282610fb1565b5f6105918261114f565b5f6060805f5f5f606061072e611179565b6107366111a6565b604080515f808252602082019092527f0f000000000000000000000000000000000000000000000000000000000000009b939a50919850469750309650945092509050565b5f61079061078883610dd7565b600b90610e3e565b79ffffffffffffffffffffffffffffffffffffffffffffffffffff1692915050565b5f6105c361100b565b6060600480546104fd90612571565b73ffffffffffffffffffffffffffffffffffffffff81165f908152600a60205260408120610790906111d3565b5f3361058b818585610bf8565b83421115610846576040517f4683af0e000000000000000000000000000000000000000000000000000000008152600481018590526024015b60405180910390fd5b604080517fe48329057bfd03d55e49b547132e39cffd9c1820ad7b9d4c5307691425d15adf602082015273ffffffffffffffffffffffffffffffffffffffff88169181019190915260608101869052608081018590525f906108cc906108c49060a00160405160208183030381529060405280519060200120611220565b858585611267565b90506108d88187611293565b6108e28188611015565b50505050505050565b83421115610928576040517f627913020000000000000000000000000000000000000000000000000000000081526004810185905260240161083d565b5f7f6e71edae12b1b97f4d1f60370fef10105fa2faae0126114a169c64845d6126c98888886109808c73ffffffffffffffffffffffffffffffffffffffff165f90815260086020526040902080546001810190915590565b60408051602081019690965273ffffffffffffffffffffffffffffffffffffffff94851690860152929091166060840152608083015260a082015260c0810186905260e0016040516020818303038152906040528051906020012090505f6109e782611220565b90505f6109f682878787611267565b90508973ffffffffffffffffffffffffffffffffffffffff168173ffffffffffffffffffffffffffffffffffffffff1614610a7d576040517f4b800e4600000000000000000000000000000000000000000000000000000000815273ffffffffffffffffffffffffffffffffffffffff80831660048301528b16602482015260440161083d565b610a888a8a8a610b18565b50505050505050505050565b604080518082019091525f8082526020820152610ab18383611318565b9392505050565b610ac0610f04565b73ffffffffffffffffffffffffffffffffffffffff8116610b0f576040517f1e4fbdf70000000000000000000000000000000000000000000000000000000081525f600482015260240161083d565b610642816110d9565b610b258383836001611359565b505050565b73ffffffffffffffffffffffffffffffffffffffff8381165f908152600160209081526040808320938616835292905220547fffffffffffffffffffffffffffffffffffffffffffffffffffffffffffffffff811015610bf25781811015610be4576040517ffb8f41b200000000000000000000000000000000000000000000000000000000815273ffffffffffffffffffffffffffffffffffffffff84166004820152602481018290526044810183905260640161083d565b610bf284848484035f611359565b50505050565b73ffffffffffffffffffffffffffffffffffffffff8316610c47576040517f96c6fd1e0000000000000000000000000000000000000000000000000000000081525f600482015260240161083d565b73ffffffffffffffffffffffffffffffffffffffff8216610c96576040517fec442f050000000000000000000000000000000000000000000000000000000081525f600482015260240161083d565b610b2583838361149e565b5f3073ffffffffffffffffffffffffffffffffffffffff7f000000000000000000000000000000000000000000000000000000000000000016148015610d0657507f000000000000000000000000000000000000000000000000000000000000000046145b15610d3057507f000000000000000000000000000000000000000000000000000000000000000090565b6105c3604080517f8b73c3c69bb8fe3d512ecc4cf759cc79239f7b179b0ffacaa9a75d522b39400f60208201527f0000000000000000000000000000000000000000000000000000000000000000918101919091527f000000000000000000000000000000000000000000000000000000000000000060608201524660808201523060a08201525f9060c00160405160208183030381529060405280519060200120905090565b5f5f610de16107b2565b90508065ffffffffffff168310610e35576040517fecd3f81e0000000000000000000000000000000000000000000000000000000081526004810184905265ffffffffffff8216602482015260440161083d565b610ab1836114a9565b81545f9081816005811115610e9a575f610e57846114f8565b610e6190856125ef565b5f8881526020902090915081015465ffffffffffff9081169087161015610e8a57809150610e98565b610e95816001612602565b92505b505b5f610ea78787858561165d565b90508015610ef757610ecb87610ebe6001846125ef565b5f91825260209091200190565b546601000000000000900479ffffffffffffffffffffffffffffffffffffffffffffffffffff16610ef9565b5f5b979650505050505050565b60055473ffffffffffffffffffffffffffffffffffffffff1633146106fc576040517f118cdaa700000000000000000000000000000000000000000000000000000000815233600482015260240161083d565b73ffffffffffffffffffffffffffffffffffffffff8216610fa6576040517fec442f050000000000000000000000000000000000000000000000000000000081525f600482015260240161083d565b6106345f838361149e565b73ffffffffffffffffffffffffffffffffffffffff8216611000576040517f96c6fd1e0000000000000000000000000000000000000000000000000000000081525f600482015260240161083d565b610634825f8361149e565b5f6105c3436114a9565b73ffffffffffffffffffffffffffffffffffffffff8281165f8181526009602052604080822080548686167fffffffffffffffffffffffff0000000000000000000000000000000000000000821681179092559151919094169392849290917f3134e8a2e6d97e929a7e54011ea5485d7d196dd5f0ba4d4ef95803e8e3fc257f9190a4610b2581836110a6866116bc565b6116e6565b73ffffffffffffffffffffffffffffffffffffffff81165f908152600a602052604081205461059190611903565b6005805473ffffffffffffffffffffffffffffffffffffffff8381167fffffffffffffffffffffffff0000000000000000000000000000000000000000831681179093556040519116919082907f8be0079c531659141344cd1fd0a4f28419497f9722a3daafe3b4186f6b6457e0905f90a35050565b73ffffffffffffffffffffffffffffffffffffffff81165f90815260086020526040812054610591565b60606105c37f0000000000000000000000000000000000000000000000000000000000000000600661194c565b60606105c37f0000000000000000000000000000000000000000000000000000000000000000600761194c565b80545f908015611218576111ec83610ebe6001846125ef565b546601000000000000900479ffffffffffffffffffffffffffffffffffffffffffffffffffff16610ab1565b5f9392505050565b5f61059161122c610ca1565b836040517f19010000000000000000000000000000000000000000000000000000000000008152600281019290925260228201526042902090565b5f5f5f5f611277888888886119f5565b9250925092506112878282611ae8565b50909695505050505050565b73ffffffffffffffffffffffffffffffffffffffff82165f908152600860205260409020805460018101909155818114610b25576040517f752d88c000000000000000000000000000000000000000000000000000000000815273ffffffffffffffffffffffffffffffffffffffff841660048201526024810182905260440161083d565b604080518082019091525f808252602082015273ffffffffffffffffffffffffffffffffffffffff83165f908152600a60205260409020610ab19083611beb565b73ffffffffffffffffffffffffffffffffffffffff84166113a8576040517fe602df050000000000000000000000000000000000000000000000000000000081525f600482015260240161083d565b73ffffffffffffffffffffffffffffffffffffffff83166113f7576040517f94280d620000000000000000000000000000000000000000000000000000000081525f600482015260240161083d565b73ffffffffffffffffffffffffffffffffffffffff8085165f9081526001602090815260408083209387168352929052208290558015610bf2578273ffffffffffffffffffffffffffffffffffffffff168473ffffffffffffffffffffffffffffffffffffffff167f8c5be1e5ebec7d5bd14f71427d1e84f3dd0314c0f7b2291e5b200ac8c7c3b9258460405161149091815260200190565b60405180910390a350505050565b610b25838383611c6e565b5f65ffffffffffff8211156114f4576040517f6dfcc650000000000000000000000000000000000000000000000000000000008152603060048201526024810183905260440161083d565b5090565b5f60018211611505575090565b816001700100000000000000000000000000000000821061152b5760809190911c9060401b5b6801000000000000000082106115465760409190911c9060201b5b640100000000821061155d5760209190911c9060101b5b6201000082106115725760109190911c9060081b5b61010082106115865760089190911c9060041b5b601082106115995760049190911c9060021b5b600482106115a55760011b5b600302600190811c908185816115bd576115bd612615565b048201901c905060018185816115d5576115d5612615565b048201901c905060018185816115ed576115ed612615565b048201901c9050600181858161160557611605612615565b048201901c9050600181858161161d5761161d612615565b048201901c9050600181858161163557611635612615565b048201901c905061165481858161164e5761164e612615565b04821190565b90039392505050565b5f5b818310156116b4575f6116728484611d0d565b5f8781526020902090915065ffffffffffff86169082015465ffffffffffff1611156116a0578092506116ae565b6116ab816001612602565b93505b5061165f565b509392505050565b73ffffffffffffffffffffffffffffffffffffffff81165f90815260208190526040812054610591565b8173ffffffffffffffffffffffffffffffffffffffff168373ffffffffffffffffffffffffffffffffffffffff161415801561172157505f81115b15610b255773ffffffffffffffffffffffffffffffffffffffff8316156118155773ffffffffffffffffffffffffffffffffffffffff83165f908152600a60205260408120819061177d90611d2761177886611d32565b611d91565b79ffffffffffffffffffffffffffffffffffffffffffffffffffff16915079ffffffffffffffffffffffffffffffffffffffffffffffffffff1691508473ffffffffffffffffffffffffffffffffffffffff167fdec2bacdd2f05b59de34da9b523dff8be42e5e38e818c82fdb0bae774387a724838360405161180a929190918252602082015260400190565b60405180910390a250505b73ffffffffffffffffffffffffffffffffffffffff821615610b255773ffffffffffffffffffffffffffffffffffffffff82165f908152600a60205260408120819061186790611dc961177886611d32565b79ffffffffffffffffffffffffffffffffffffffffffffffffffff16915079ffffffffffffffffffffffffffffffffffffffffffffffffffff1691508373ffffffffffffffffffffffffffffffffffffffff167fdec2bacdd2f05b59de34da9b523dff8be42e5e38e818c82fdb0bae774387a72483836040516118f4929190918252602082015260400190565b60405180910390a25050505050565b5f63ffffffff8211156114f4576040517f6dfcc650000000000000000000000000000000000000000000000000000000008152602060048201526024810183905260440161083d565b606060ff83146119665761195f83611dd4565b9050610591565b81805461197290612571565b80601f016020809104026020016040519081016040528092919081815260200182805461199e90612571565b80156119e95780601f106119c0576101008083540402835291602001916119e9565b820191905f5260205f20905b8154815290600101906020018083116119cc57829003601f168201915b50505050509050610591565b5f80807f7fffffffffffffffffffffffffffffff5d576e7357a4501ddfe92f46681b20a0841115611a2e57505f91506003905082611ade565b604080515f808252602082018084528a905260ff891692820192909252606081018790526080810186905260019060a0016020604051602081039080840390855afa158015611a7f573d5f5f3e3d5ffd5b50506040517fffffffffffffffffffffffffffffffffffffffffffffffffffffffffffffffe0015191505073ffffffffffffffffffffffffffffffffffffffff8116611ad557505f925060019150829050611ade565b92505f91508190505b9450945094915050565b5f826003811115611afb57611afb612642565b03611b04575050565b6001826003811115611b1857611b18612642565b03611b4f576040517ff645eedf00000000000000000000000000000000000000000000000000000000815260040160405180910390fd5b6002826003811115611b6357611b63612642565b03611b9d576040517ffce698f70000000000000000000000000000000000000000000000000000000081526004810182905260240161083d565b6003826003811115611bb157611bb1612642565b03610634576040517fd78bce0c0000000000000000000000000000000000000000000000000000000081526004810182905260240161083d565b604080518082019091525f8082526020820152825f018263ffffffff1681548110611c1857611c1861266f565b5f9182526020918290206040805180820190915291015465ffffffffffff811682526601000000000000900479ffffffffffffffffffffffffffffffffffffffffffffffffffff16918101919091529392505050565b611c79838383611e11565b73ffffffffffffffffffffffffffffffffffffffff8316611d02575f611c9e60025490565b905079ffffffffffffffffffffffffffffffffffffffffffffffffffff80821115611cff576040517f1cb15d26000000000000000000000000000000000000000000000000000000008152600481018390526024810182905260440161083d565b50505b610b25838383611fb8565b5f611d1b600284841861269c565b610ab190848416612602565b5f610ab182846126d4565b5f79ffffffffffffffffffffffffffffffffffffffffffffffffffff8211156114f4576040517f6dfcc65000000000000000000000000000000000000000000000000000000000815260d060048201526024810183905260440161083d565b5f5f611dbc611d9e6107b2565b611db4611daa886111d3565b868863ffffffff16565b879190612054565b915091505b935093915050565b5f610ab18284612706565b60605f611de083612061565b6040805160208082528183019092529192505f91906020820181803683375050509182525060208101929092525090565b73ffffffffffffffffffffffffffffffffffffffff8316611e48578060025f828254611e3d9190612602565b90915550611ef89050565b73ffffffffffffffffffffffffffffffffffffffff83165f9081526020819052604090205481811015611ecd576040517fe450d38c00000000000000000000000000000000000000000000000000000000815273ffffffffffffffffffffffffffffffffffffffff85166004820152602481018290526044810183905260640161083d565b73ffffffffffffffffffffffffffffffffffffffff84165f9081526020819052604090209082900390555b73ffffffffffffffffffffffffffffffffffffffff8216611f2157600280548290039055611f4c565b73ffffffffffffffffffffffffffffffffffffffff82165f9081526020819052604090208054820190555b8173ffffffffffffffffffffffffffffffffffffffff168373ffffffffffffffffffffffffffffffffffffffff167fddf252ad1be2c89b69c2b068fc378daa952ba7f163c4a11628f55a4df523b3ef83604051611fab91815260200190565b60405180910390a3505050565b73ffffffffffffffffffffffffffffffffffffffff8316611fe757611fe4600b611dc961177884611d32565b50505b73ffffffffffffffffffffffffffffffffffffffff821661201657612013600b611d2761177884611d32565b50505b73ffffffffffffffffffffffffffffffffffffffff8381165f90815260096020526040808220548584168352912054610b25929182169116836116e6565b5f80611dbc8585856120a1565b5f60ff8216601f811115610591576040517fb3512b0c00000000000000000000000000000000000000000000000000000000815260040160405180910390fd5b82545f90819080156121f2575f6120bd87610ebe6001856125ef565b805490915065ffffffffffff808216916601000000000000900479ffffffffffffffffffffffffffffffffffffffffffffffffffff1690881682111561212f576040517f2520601d00000000000000000000000000000000000000000000000000000000815260040160405180910390fd5b8765ffffffffffff168265ffffffffffff160361217e57825465ffffffffffff16660100000000000079ffffffffffffffffffffffffffffffffffffffffffffffffffff8916021783556121e4565b6040805180820190915265ffffffffffff808a16825279ffffffffffffffffffffffffffffffffffffffffffffffffffff808a1660208085019182528d54600181018f555f8f815291909120945191519092166601000000000000029216919091179101555b9450859350611dc192505050565b50506040805180820190915265ffffffffffff808516825279ffffffffffffffffffffffffffffffffffffffffffffffffffff80851660208085019182528854600181018a555f8a8152918220955192519093166601000000000000029190931617920191909155905081611dc1565b5f81518084528060208401602086015e5f6020828601015260207fffffffffffffffffffffffffffffffffffffffffffffffffffffffffffffffe0601f83011685010191505092915050565b602081525f610ab16020830184612262565b803573ffffffffffffffffffffffffffffffffffffffff811681146122e3575f5ffd5b919050565b5f5f604083850312156122f9575f5ffd5b612302836122c0565b946020939093013593505050565b5f5f5f60608486031215612322575f5ffd5b61232b846122c0565b9250612339602085016122c0565b929592945050506040919091013590565b5f6020828403121561235a575f5ffd5b5035919050565b5f60208284031215612371575f5ffd5b610ab1826122c0565b7fff000000000000000000000000000000000000000000000000000000000000008816815260e060208201525f6123b460e0830189612262565b82810360408401526123c68189612262565b6060840188905273ffffffffffffffffffffffffffffffffffffffff8716608085015260a0840186905283810360c0850152845180825260208087019350909101905f5b8181101561242857835183526020938401939092019160010161240a565b50909b9a5050505050505050505050565b803560ff811681146122e3575f5ffd5b5f5f5f5f5f5f60c0878903121561245e575f5ffd5b612467876122c0565b9550602087013594506040870135935061248360608801612439565b9598949750929560808101359460a0909101359350915050565b5f5f5f5f5f5f5f60e0888a0312156124b3575f5ffd5b6124bc886122c0565b96506124ca602089016122c0565b955060408801359450606088013593506124e660808901612439565b9699959850939692959460a0840135945060c09093013592915050565b5f5f60408385031215612514575f5ffd5b61251d836122c0565b915061252b602084016122c0565b90509250929050565b5f5f60408385031215612545575f5ffd5b61254e836122c0565b9150602083013563ffffffff81168114612566575f5ffd5b809150509250929050565b600181811c9082168061258557607f821691505b6020821081036125bc577f4e487b71000000000000000000000000000000000000000000000000000000005f52602260045260245ffd5b50919050565b7f4e487b71000000000000000000000000000000000000000000000000000000005f52601160045260245ffd5b81810381811115610591576105916125c2565b80820180821115610591576105916125c2565b7f4e487b71000000000000000000000000000000000000000000000000000000005f52601260045260245ffd5b7f4e487b71000000000000000000000000000000000000000000000000000000005f52602160045260245ffd5b7f4e487b71000000000000000000000000000000000000000000000000000000005f52603260045260245ffd5b5f826126cf577f4e487b71000000000000000000000000000000000000000000000000000000005f52601260045260245ffd5b500490565b79ffffffffffffffffffffffffffffffffffffffffffffffffffff8281168282160390811115610591576105916125c2565b79ffffffffffffffffffffffffffffffffffffffffffffffffffff8181168382160190811115610591576105916125c256fea26469706673582212206639385baa4edbb45f2151e7149475709ca7d341922e59b1f66b3472ad009fd364736f6c634300081c0033","opcodes":"PUSH2 0x160 PUSH1 0x40 MSTORE CALLVALUE DUP1 ISZERO PUSH2 0x10 JUMPI PUSH0 PUSH0 REVERT JUMPDEST POP PUSH1 0x40 MLOAD PUSH2 0x2C21 CODESIZE SUB DUP1 PUSH2 0x2C21 DUP4 CODECOPY DUP2 ADD PUSH1 0x40 DUP2 SWAP1 MSTORE PUSH2 0x2F SWAP2 PUSH2 0x28B JUMP JUMPDEST PUSH1 0x40 MLOAD DUP1 PUSH1 0x40 ADD PUSH1 0x40 MSTORE DUP1 PUSH1 0x12 DUP2 MSTORE PUSH1 0x20 ADD PUSH18 0x21B937BBB231B430B4B723B7BB32B93737B9 PUSH1 0x71 SHL DUP2 MSTORE POP DUP1 PUSH1 0x40 MLOAD DUP1 PUSH1 0x40 ADD PUSH1 0x40 MSTORE DUP1 PUSH1 0x1 DUP2 MSTORE PUSH1 0x20 ADD PUSH1 0x31 PUSH1 0xF8 SHL DUP2 MSTORE POP DUP4 PUSH1 0x40 MLOAD DUP1 PUSH1 0x40 ADD PUSH1 0x40 MSTORE DUP1 PUSH1 0x12 DUP2 MSTORE PUSH1 0x20 ADD PUSH18 0x21B937BBB231B430B4B723B7BB32B93737B9 PUSH1 0x71 SHL DUP2 MSTORE POP PUSH1 0x40 MLOAD DUP1 PUSH1 0x40 ADD PUSH1 0x40 MSTORE DUP1 PUSH1 0x3 DUP2 MSTORE PUSH1 0x20 ADD PUSH3 0x10D0D5 PUSH1 0xEA SHL DUP2 MSTORE POP DUP2 PUSH1 0x3 SWAP1 DUP2 PUSH2 0xCC SWAP2 SWAP1 PUSH2 0x350 JUMP JUMPDEST POP PUSH1 0x4 PUSH2 0xD9 DUP3 DUP3 PUSH2 0x350 JUMP JUMPDEST POP POP POP PUSH1 0x1 PUSH1 0x1 PUSH1 0xA0 SHL SUB DUP2 AND PUSH2 0x10A JUMPI PUSH1 0x40 MLOAD PUSH4 0x1E4FBDF7 PUSH1 0xE0 SHL DUP2 MSTORE PUSH0 PUSH1 0x4 DUP3 ADD MSTORE PUSH1 0x24 ADD JUMPDEST PUSH1 0x40 MLOAD DUP1 SWAP2 SUB SWAP1 REVERT JUMPDEST PUSH2 0x113 DUP2 PUSH2 0x1CB JUMP JUMPDEST POP PUSH2 0x11F DUP3 PUSH1 0x6 PUSH2 0x21C JUMP JUMPDEST PUSH2 0x120 MSTORE PUSH2 0x12E DUP2 PUSH1 0x7 PUSH2 0x21C JUMP JUMPDEST PUSH2 0x140 MSTORE DUP2 MLOAD PUSH1 0x20 DUP1 DUP5 ADD SWAP2 SWAP1 SWAP2 KECCAK256 PUSH1 0xE0 MSTORE DUP2 MLOAD SWAP1 DUP3 ADD KECCAK256 PUSH2 0x100 MSTORE CHAINID PUSH1 0xA0 MSTORE PUSH2 0x1BA PUSH1 0xE0 MLOAD PUSH2 0x100 MLOAD PUSH1 0x40 DUP1 MLOAD PUSH32 0x8B73C3C69BB8FE3D512ECC4CF759CC79239F7B179B0FFACAA9A75D522B39400F PUSH1 0x20 DUP3 ADD MSTORE SWAP1 DUP2 ADD SWAP3 SWAP1 SWAP3 MSTORE PUSH1 0x60 DUP3 ADD MSTORE CHAINID PUSH1 0x80 DUP3 ADD MSTORE ADDRESS PUSH1 0xA0 DUP3 ADD MSTORE PUSH0 SWAP1 PUSH1 0xC0 ADD PUSH1 0x40 MLOAD PUSH1 0x20 DUP2 DUP4 SUB SUB DUP2 MSTORE SWAP1 PUSH1 0x40 MSTORE DUP1 MLOAD SWAP1 PUSH1 0x20 ADD KECCAK256 SWAP1 POP SWAP1 JUMP JUMPDEST PUSH1 0x80 MSTORE POP POP ADDRESS PUSH1 0xC0 MSTORE POP PUSH2 0x462 SWAP1 POP JUMP JUMPDEST PUSH1 0x5 DUP1 SLOAD PUSH1 0x1 PUSH1 0x1 PUSH1 0xA0 SHL SUB DUP4 DUP2 AND PUSH1 0x1 PUSH1 0x1 PUSH1 0xA0 SHL SUB NOT DUP4 AND DUP2 OR SWAP1 SWAP4 SSTORE PUSH1 0x40 MLOAD SWAP2 AND SWAP2 SWAP1 DUP3 SWAP1 PUSH32 0x8BE0079C531659141344CD1FD0A4F28419497F9722A3DAAFE3B4186F6B6457E0 SWAP1 PUSH0 SWAP1 LOG3 POP POP JUMP JUMPDEST PUSH0 PUSH1 0x20 DUP4 MLOAD LT ISZERO PUSH2 0x237 JUMPI PUSH2 0x230 DUP4 PUSH2 0x24E JUMP JUMPDEST SWAP1 POP PUSH2 0x248 JUMP JUMPDEST DUP2 PUSH2 0x242 DUP5 DUP3 PUSH2 0x350 JUMP JUMPDEST POP PUSH1 0xFF SWAP1 POP JUMPDEST SWAP3 SWAP2 POP POP JUMP JUMPDEST PUSH0 PUSH0 DUP3 SWAP1 POP PUSH1 0x1F DUP2 MLOAD GT ISZERO PUSH2 0x278 JUMPI DUP3 PUSH1 0x40 MLOAD PUSH4 0x305A27A9 PUSH1 0xE0 SHL DUP2 MSTORE PUSH1 0x4 ADD PUSH2 0x101 SWAP2 SWAP1 PUSH2 0x40A JUMP JUMPDEST DUP1 MLOAD PUSH2 0x283 DUP3 PUSH2 0x43F JUMP JUMPDEST OR SWAP4 SWAP3 POP POP POP JUMP JUMPDEST PUSH0 PUSH1 0x20 DUP3 DUP5 SUB SLT ISZERO PUSH2 0x29B JUMPI PUSH0 PUSH0 REVERT JUMPDEST DUP2 MLOAD PUSH1 0x1 PUSH1 0x1 PUSH1 0xA0 SHL SUB DUP2 AND DUP2 EQ PUSH2 0x2B1 JUMPI PUSH0 PUSH0 REVERT JUMPDEST SWAP4 SWAP3 POP POP POP JUMP JUMPDEST PUSH4 0x4E487B71 PUSH1 0xE0 SHL PUSH0 MSTORE PUSH1 0x41 PUSH1 0x4 MSTORE PUSH1 0x24 PUSH0 REVERT JUMPDEST PUSH1 0x1 DUP2 DUP2 SHR SWAP1 DUP3 AND DUP1 PUSH2 0x2E0 JUMPI PUSH1 0x7F DUP3 AND SWAP2 POP JUMPDEST PUSH1 0x20 DUP3 LT DUP2 SUB PUSH2 0x2FE JUMPI PUSH4 0x4E487B71 PUSH1 0xE0 SHL PUSH0 MSTORE PUSH1 0x22 PUSH1 0x4 MSTORE PUSH1 0x24 PUSH0 REVERT JUMPDEST POP SWAP2 SWAP1 POP JUMP JUMPDEST PUSH1 0x1F DUP3 GT ISZERO PUSH2 0x34B JUMPI DUP1 PUSH0 MSTORE PUSH1 0x20 PUSH0 KECCAK256 PUSH1 0x1F DUP5 ADD PUSH1 0x5 SHR DUP2 ADD PUSH1 0x20 DUP6 LT ISZERO PUSH2 0x329 JUMPI POP DUP1 JUMPDEST PUSH1 0x1F DUP5 ADD PUSH1 0x5 SHR DUP3 ADD SWAP2 POP JUMPDEST DUP2 DUP2 LT ISZERO PUSH2 0x348 JUMPI PUSH0 DUP2 SSTORE PUSH1 0x1 ADD PUSH2 0x335 JUMP JUMPDEST POP POP JUMPDEST POP POP POP JUMP JUMPDEST DUP2 MLOAD PUSH1 0x1 PUSH1 0x1 PUSH1 0x40 SHL SUB DUP2 GT ISZERO PUSH2 0x369 JUMPI PUSH2 0x369 PUSH2 0x2B8 JUMP JUMPDEST PUSH2 0x37D DUP2 PUSH2 0x377 DUP5 SLOAD PUSH2 0x2CC JUMP JUMPDEST DUP5 PUSH2 0x304 JUMP JUMPDEST PUSH1 0x20 PUSH1 0x1F DUP3 GT PUSH1 0x1 DUP2 EQ PUSH2 0x3AF JUMPI PUSH0 DUP4 ISZERO PUSH2 0x398 JUMPI POP DUP5 DUP3 ADD MLOAD JUMPDEST PUSH0 NOT PUSH1 0x3 DUP6 SWAP1 SHL SHR NOT AND PUSH1 0x1 DUP5 SWAP1 SHL OR DUP5 SSTORE PUSH2 0x348 JUMP JUMPDEST PUSH0 DUP5 DUP2 MSTORE PUSH1 0x20 DUP2 KECCAK256 PUSH1 0x1F NOT DUP6 AND SWAP2 JUMPDEST DUP3 DUP2 LT ISZERO PUSH2 0x3DE JUMPI DUP8 DUP6 ADD MLOAD DUP3 SSTORE PUSH1 0x20 SWAP5 DUP6 ADD SWAP5 PUSH1 0x1 SWAP1 SWAP3 ADD SWAP2 ADD PUSH2 0x3BE JUMP JUMPDEST POP DUP5 DUP3 LT ISZERO PUSH2 0x3FB JUMPI DUP7 DUP5 ADD MLOAD PUSH0 NOT PUSH1 0x3 DUP8 SWAP1 SHL PUSH1 0xF8 AND SHR NOT AND DUP2 SSTORE JUMPDEST POP POP POP POP PUSH1 0x1 SWAP1 DUP2 SHL ADD SWAP1 SSTORE POP JUMP JUMPDEST PUSH1 0x20 DUP2 MSTORE PUSH0 DUP3 MLOAD DUP1 PUSH1 0x20 DUP5 ADD MSTORE DUP1 PUSH1 0x20 DUP6 ADD PUSH1 0x40 DUP6 ADD MCOPY PUSH0 PUSH1 0x40 DUP3 DUP6 ADD ADD MSTORE PUSH1 0x40 PUSH1 0x1F NOT PUSH1 0x1F DUP4 ADD AND DUP5 ADD ADD SWAP2 POP POP SWAP3 SWAP2 POP POP JUMP JUMPDEST DUP1 MLOAD PUSH1 0x20 DUP1 DUP4 ADD MLOAD SWAP2 SWAP1 DUP2 LT ISZERO PUSH2 0x2FE JUMPI PUSH0 NOT PUSH1 0x20 SWAP2 SWAP1 SWAP2 SUB PUSH1 0x3 SHL SHL AND SWAP2 SWAP1 POP JUMP JUMPDEST PUSH1 0x80 MLOAD PUSH1 0xA0 MLOAD PUSH1 0xC0 MLOAD PUSH1 0xE0 MLOAD PUSH2 0x100 MLOAD PUSH2 0x120 MLOAD PUSH2 0x140 MLOAD PUSH2 0x276E PUSH2 0x4B3 PUSH0 CODECOPY PUSH0 PUSH2 0x11AD ADD MSTORE PUSH0 PUSH2 0x1180 ADD MSTORE PUSH0 PUSH2 0xD87 ADD MSTORE PUSH0 PUSH2 0xD5F ADD MSTORE PUSH0 PUSH2 0xCBA ADD MSTORE PUSH0 PUSH2 0xCE4 ADD MSTORE PUSH0 PUSH2 0xD0E ADD MSTORE PUSH2 0x276E PUSH0 RETURN INVALID PUSH1 0x80 PUSH1 0x40 MSTORE CALLVALUE DUP1 ISZERO PUSH2 0xF JUMPI PUSH0 PUSH0 REVERT JUMPDEST POP PUSH1 0x4 CALLDATASIZE LT PUSH2 0x1C6 JUMPI PUSH0 CALLDATALOAD PUSH1 0xE0 SHR DUP1 PUSH4 0x715018A6 GT PUSH2 0xFE JUMPI DUP1 PUSH4 0x95D89B41 GT PUSH2 0x9E JUMPI DUP1 PUSH4 0xD505ACCF GT PUSH2 0x6E JUMPI DUP1 PUSH4 0xD505ACCF EQ PUSH2 0x431 JUMPI DUP1 PUSH4 0xDD62ED3E EQ PUSH2 0x444 JUMPI DUP1 PUSH4 0xF1127ED8 EQ PUSH2 0x489 JUMPI DUP1 PUSH4 0xF2FDE38B EQ PUSH2 0x4DB JUMPI PUSH0 PUSH0 REVERT JUMPDEST DUP1 PUSH4 0x95D89B41 EQ PUSH2 0x3F0 JUMPI DUP1 PUSH4 0x9AB24EB0 EQ PUSH2 0x3F8 JUMPI DUP1 PUSH4 0xA9059CBB EQ PUSH2 0x40B JUMPI DUP1 PUSH4 0xC3CDA520 EQ PUSH2 0x41E JUMPI PUSH0 PUSH0 REVERT JUMPDEST DUP1 PUSH4 0x84B0196E GT PUSH2 0xD9 JUMPI DUP1 PUSH4 0x84B0196E EQ PUSH2 0x385 JUMPI DUP1 PUSH4 0x8DA5CB5B EQ PUSH2 0x3A0 JUMPI DUP1 PUSH4 0x8E539E8C EQ PUSH2 0x3BE JUMPI DUP1 PUSH4 0x91DDADF4 EQ PUSH2 0x3D1 JUMPI PUSH0 PUSH0 REVERT JUMPDEST DUP1 PUSH4 0x715018A6 EQ PUSH2 0x357 JUMPI DUP1 PUSH4 0x79CC6790 EQ PUSH2 0x35F JUMPI DUP1 PUSH4 0x7ECEBE00 EQ PUSH2 0x372 JUMPI PUSH0 PUSH0 REVERT JUMPDEST DUP1 PUSH4 0x40C10F19 GT PUSH2 0x169 JUMPI DUP1 PUSH4 0x587CDE1E GT PUSH2 0x144 JUMPI DUP1 PUSH4 0x587CDE1E EQ PUSH2 0x28A JUMPI DUP1 PUSH4 0x5C19A95C EQ PUSH2 0x2E7 JUMPI DUP1 PUSH4 0x6FCFFF45 EQ PUSH2 0x2FA JUMPI DUP1 PUSH4 0x70A08231 EQ PUSH2 0x322 JUMPI PUSH0 PUSH0 REVERT JUMPDEST DUP1 PUSH4 0x40C10F19 EQ PUSH2 0x25A JUMPI DUP1 PUSH4 0x42966C68 EQ PUSH2 0x26F JUMPI DUP1 PUSH4 0x4BF5D7E9 EQ PUSH2 0x282 JUMPI PUSH0 PUSH0 REVERT JUMPDEST DUP1 PUSH4 0x23B872DD GT PUSH2 0x1A4 JUMPI DUP1 PUSH4 0x23B872DD EQ PUSH2 0x21D JUMPI DUP1 PUSH4 0x313CE567 EQ PUSH2 0x230 JUMPI DUP1 PUSH4 0x3644E515 EQ PUSH2 0x23F JUMPI DUP1 PUSH4 0x3A46B1A8 EQ PUSH2 0x247 JUMPI PUSH0 PUSH0 REVERT JUMPDEST DUP1 PUSH4 0x6FDDE03 EQ PUSH2 0x1CA JUMPI DUP1 PUSH4 0x95EA7B3 EQ PUSH2 0x1E8 JUMPI DUP1 PUSH4 0x18160DDD EQ PUSH2 0x20B JUMPI JUMPDEST PUSH0 PUSH0 REVERT JUMPDEST PUSH2 0x1D2 PUSH2 0x4EE JUMP JUMPDEST PUSH1 0x40 MLOAD PUSH2 0x1DF SWAP2 SWAP1 PUSH2 0x22AE JUMP JUMPDEST PUSH1 0x40 MLOAD DUP1 SWAP2 SUB SWAP1 RETURN JUMPDEST PUSH2 0x1FB PUSH2 0x1F6 CALLDATASIZE PUSH1 0x4 PUSH2 0x22E8 JUMP JUMPDEST PUSH2 0x57E JUMP JUMPDEST PUSH1 0x40 MLOAD SWAP1 ISZERO ISZERO DUP2 MSTORE PUSH1 0x20 ADD PUSH2 0x1DF JUMP JUMPDEST PUSH1 0x2 SLOAD JUMPDEST PUSH1 0x40 MLOAD SWAP1 DUP2 MSTORE PUSH1 0x20 ADD PUSH2 0x1DF JUMP JUMPDEST PUSH2 0x1FB PUSH2 0x22B CALLDATASIZE PUSH1 0x4 PUSH2 0x2310 JUMP JUMPDEST PUSH2 0x597 JUMP JUMPDEST PUSH1 0x40 MLOAD PUSH1 0x12 DUP2 MSTORE PUSH1 0x20 ADD PUSH2 0x1DF JUMP JUMPDEST PUSH2 0x20F PUSH2 0x5BA JUMP JUMPDEST PUSH2 0x20F PUSH2 0x255 CALLDATASIZE PUSH1 0x4 PUSH2 0x22E8 JUMP JUMPDEST PUSH2 0x5C8 JUMP JUMPDEST PUSH2 0x26D PUSH2 0x268 CALLDATASIZE PUSH1 0x4 PUSH2 0x22E8 JUMP JUMPDEST PUSH2 0x622 JUMP JUMPDEST STOP JUMPDEST PUSH2 0x26D PUSH2 0x27D CALLDATASIZE PUSH1 0x4 PUSH2 0x234A JUMP JUMPDEST PUSH2 0x638 JUMP JUMPDEST PUSH2 0x1D2 PUSH2 0x645 JUMP JUMPDEST PUSH2 0x2C2 PUSH2 0x298 CALLDATASIZE PUSH1 0x4 PUSH2 0x2361 JUMP JUMPDEST PUSH20 0xFFFFFFFFFFFFFFFFFFFFFFFFFFFFFFFFFFFFFFFF SWAP1 DUP2 AND PUSH0 SWAP1 DUP2 MSTORE PUSH1 0x9 PUSH1 0x20 MSTORE PUSH1 0x40 SWAP1 KECCAK256 SLOAD AND SWAP1 JUMP JUMPDEST PUSH1 0x40 MLOAD PUSH20 0xFFFFFFFFFFFFFFFFFFFFFFFFFFFFFFFFFFFFFFFF SWAP1 SWAP2 AND DUP2 MSTORE PUSH1 0x20 ADD PUSH2 0x1DF JUMP JUMPDEST PUSH2 0x26D PUSH2 0x2F5 CALLDATASIZE PUSH1 0x4 PUSH2 0x2361 JUMP JUMPDEST PUSH2 0x6D6 JUMP JUMPDEST PUSH2 0x30D PUSH2 0x308 CALLDATASIZE PUSH1 0x4 PUSH2 0x2361 JUMP JUMPDEST PUSH2 0x6E1 JUMP JUMPDEST PUSH1 0x40 MLOAD PUSH4 0xFFFFFFFF SWAP1 SWAP2 AND DUP2 MSTORE PUSH1 0x20 ADD PUSH2 0x1DF JUMP JUMPDEST PUSH2 0x20F PUSH2 0x330 CALLDATASIZE PUSH1 0x4 PUSH2 0x2361 JUMP JUMPDEST PUSH20 0xFFFFFFFFFFFFFFFFFFFFFFFFFFFFFFFFFFFFFFFF AND PUSH0 SWAP1 DUP2 MSTORE PUSH1 0x20 DUP2 SWAP1 MSTORE PUSH1 0x40 SWAP1 KECCAK256 SLOAD SWAP1 JUMP JUMPDEST PUSH2 0x26D PUSH2 0x6EB JUMP JUMPDEST PUSH2 0x26D PUSH2 0x36D CALLDATASIZE PUSH1 0x4 PUSH2 0x22E8 JUMP JUMPDEST PUSH2 0x6FE JUMP JUMPDEST PUSH2 0x20F PUSH2 0x380 CALLDATASIZE PUSH1 0x4 PUSH2 0x2361 JUMP JUMPDEST PUSH2 0x713 JUMP JUMPDEST PUSH2 0x38D PUSH2 0x71D JUMP JUMPDEST PUSH1 0x40 MLOAD PUSH2 0x1DF SWAP8 SWAP7 SWAP6 SWAP5 SWAP4 SWAP3 SWAP2 SWAP1 PUSH2 0x237A JUMP JUMPDEST PUSH1 0x5 SLOAD PUSH20 0xFFFFFFFFFFFFFFFFFFFFFFFFFFFFFFFFFFFFFFFF AND PUSH2 0x2C2 JUMP JUMPDEST PUSH2 0x20F PUSH2 0x3CC CALLDATASIZE PUSH1 0x4 PUSH2 0x234A JUMP JUMPDEST PUSH2 0x77B JUMP JUMPDEST PUSH2 0x3D9 PUSH2 0x7B2 JUMP JUMPDEST PUSH1 0x40 MLOAD PUSH6 0xFFFFFFFFFFFF SWAP1 SWAP2 AND DUP2 MSTORE PUSH1 0x20 ADD PUSH2 0x1DF JUMP JUMPDEST PUSH2 0x1D2 PUSH2 0x7BB JUMP JUMPDEST PUSH2 0x20F PUSH2 0x406 CALLDATASIZE PUSH1 0x4 PUSH2 0x2361 JUMP JUMPDEST PUSH2 0x7CA JUMP JUMPDEST PUSH2 0x1FB PUSH2 0x419 CALLDATASIZE PUSH1 0x4 PUSH2 0x22E8 JUMP JUMPDEST PUSH2 0x7F7 JUMP JUMPDEST PUSH2 0x26D PUSH2 0x42C CALLDATASIZE PUSH1 0x4 PUSH2 0x2449 JUMP JUMPDEST PUSH2 0x804 JUMP JUMPDEST PUSH2 0x26D PUSH2 0x43F CALLDATASIZE PUSH1 0x4 PUSH2 0x249D JUMP JUMPDEST PUSH2 0x8EB JUMP JUMPDEST PUSH2 0x20F PUSH2 0x452 CALLDATASIZE PUSH1 0x4 PUSH2 0x2503 JUMP JUMPDEST PUSH20 0xFFFFFFFFFFFFFFFFFFFFFFFFFFFFFFFFFFFFFFFF SWAP2 DUP3 AND PUSH0 SWAP1 DUP2 MSTORE PUSH1 0x1 PUSH1 0x20 SWAP1 DUP2 MSTORE PUSH1 0x40 DUP1 DUP4 KECCAK256 SWAP4 SWAP1 SWAP5 AND DUP3 MSTORE SWAP2 SWAP1 SWAP2 MSTORE KECCAK256 SLOAD SWAP1 JUMP JUMPDEST PUSH2 0x49C PUSH2 0x497 CALLDATASIZE PUSH1 0x4 PUSH2 0x2534 JUMP JUMPDEST PUSH2 0xA94 JUMP JUMPDEST PUSH1 0x40 DUP1 MLOAD DUP3 MLOAD PUSH6 0xFFFFFFFFFFFF AND DUP2 MSTORE PUSH1 0x20 SWAP3 DUP4 ADD MLOAD PUSH26 0xFFFFFFFFFFFFFFFFFFFFFFFFFFFFFFFFFFFFFFFFFFFFFFFFFFFF AND SWAP3 DUP2 ADD SWAP3 SWAP1 SWAP3 MSTORE ADD PUSH2 0x1DF JUMP JUMPDEST PUSH2 0x26D PUSH2 0x4E9 CALLDATASIZE PUSH1 0x4 PUSH2 0x2361 JUMP JUMPDEST PUSH2 0xAB8 JUMP JUMPDEST PUSH1 0x60 PUSH1 0x3 DUP1 SLOAD PUSH2 0x4FD SWAP1 PUSH2 0x2571 JUMP JUMPDEST DUP1 PUSH1 0x1F ADD PUSH1 0x20 DUP1 SWAP2 DIV MUL PUSH1 0x20 ADD PUSH1 0x40 MLOAD SWAP1 DUP2 ADD PUSH1 0x40 MSTORE DUP1 SWAP3 SWAP2 SWAP1 DUP2 DUP2 MSTORE PUSH1 0x20 ADD DUP3 DUP1 SLOAD PUSH2 0x529 SWAP1 PUSH2 0x2571 JUMP JUMPDEST DUP1 ISZERO PUSH2 0x574 JUMPI DUP1 PUSH1 0x1F LT PUSH2 0x54B JUMPI PUSH2 0x100 DUP1 DUP4 SLOAD DIV MUL DUP4 MSTORE SWAP2 PUSH1 0x20 ADD SWAP2 PUSH2 0x574 JUMP JUMPDEST DUP3 ADD SWAP2 SWAP1 PUSH0 MSTORE PUSH1 0x20 PUSH0 KECCAK256 SWAP1 JUMPDEST DUP2 SLOAD DUP2 MSTORE SWAP1 PUSH1 0x1 ADD SWAP1 PUSH1 0x20 ADD DUP1 DUP4 GT PUSH2 0x557 JUMPI DUP3 SWAP1 SUB PUSH1 0x1F AND DUP3 ADD SWAP2 JUMPDEST POP POP POP POP POP SWAP1 POP SWAP1 JUMP JUMPDEST PUSH0 CALLER PUSH2 0x58B DUP2 DUP6 DUP6 PUSH2 0xB18 JUMP JUMPDEST PUSH1 0x1 SWAP2 POP POP JUMPDEST SWAP3 SWAP2 POP POP JUMP JUMPDEST PUSH0 CALLER PUSH2 0x5A4 DUP6 DUP3 DUP6 PUSH2 0xB2A JUMP JUMPDEST PUSH2 0x5AF DUP6 DUP6 DUP6 PUSH2 0xBF8 JUMP JUMPDEST POP PUSH1 0x1 SWAP5 SWAP4 POP POP POP POP JUMP JUMPDEST PUSH0 PUSH2 0x5C3 PUSH2 0xCA1 JUMP JUMPDEST SWAP1 POP SWAP1 JUMP JUMPDEST PUSH0 PUSH2 0x5FF PUSH2 0x5D5 DUP4 PUSH2 0xDD7 JUMP JUMPDEST PUSH20 0xFFFFFFFFFFFFFFFFFFFFFFFFFFFFFFFFFFFFFFFF DUP6 AND PUSH0 SWAP1 DUP2 MSTORE PUSH1 0xA PUSH1 0x20 MSTORE PUSH1 0x40 SWAP1 KECCAK256 SWAP1 PUSH2 0xE3E JUMP JUMPDEST PUSH26 0xFFFFFFFFFFFFFFFFFFFFFFFFFFFFFFFFFFFFFFFFFFFFFFFFFFFF AND SWAP4 SWAP3 POP POP POP JUMP JUMPDEST PUSH2 0x62A PUSH2 0xF04 JUMP JUMPDEST PUSH2 0x634 DUP3 DUP3 PUSH2 0xF57 JUMP JUMPDEST POP POP JUMP JUMPDEST PUSH2 0x642 CALLER DUP3 PUSH2 0xFB1 JUMP JUMPDEST POP JUMP JUMPDEST PUSH1 0x60 PUSH2 0x64F PUSH2 0x100B JUMP JUMPDEST PUSH6 0xFFFFFFFFFFFF AND PUSH2 0x65F PUSH2 0x7B2 JUMP JUMPDEST PUSH6 0xFFFFFFFFFFFF AND EQ PUSH2 0x69E JUMPI PUSH1 0x40 MLOAD PUSH32 0x6FF0714000000000000000000000000000000000000000000000000000000000 DUP2 MSTORE PUSH1 0x4 ADD PUSH1 0x40 MLOAD DUP1 SWAP2 SUB SWAP1 REVERT JUMPDEST POP PUSH1 0x40 DUP1 MLOAD DUP1 DUP3 ADD SWAP1 SWAP2 MSTORE PUSH1 0x1D DUP2 MSTORE PUSH32 0x6D6F64653D626C6F636B6E756D6265722666726F6D3D64656661756C74000000 PUSH1 0x20 DUP3 ADD MSTORE SWAP1 JUMP JUMPDEST CALLER PUSH2 0x634 DUP2 DUP4 PUSH2 0x1015 JUMP JUMPDEST PUSH0 PUSH2 0x591 DUP3 PUSH2 0x10AB JUMP JUMPDEST PUSH2 0x6F3 PUSH2 0xF04 JUMP JUMPDEST PUSH2 0x6FC PUSH0 PUSH2 0x10D9 JUMP JUMPDEST JUMP JUMPDEST PUSH2 0x709 DUP3 CALLER DUP4 PUSH2 0xB2A JUMP JUMPDEST PUSH2 0x634 DUP3 DUP3 PUSH2 0xFB1 JUMP JUMPDEST PUSH0 PUSH2 0x591 DUP3 PUSH2 0x114F JUMP JUMPDEST PUSH0 PUSH1 0x60 DUP1 PUSH0 PUSH0 PUSH0 PUSH1 0x60 PUSH2 0x72E PUSH2 0x1179 JUMP JUMPDEST PUSH2 0x736 PUSH2 0x11A6 JUMP JUMPDEST PUSH1 0x40 DUP1 MLOAD PUSH0 DUP1 DUP3 MSTORE PUSH1 0x20 DUP3 ADD SWAP1 SWAP3 MSTORE PUSH32 0xF00000000000000000000000000000000000000000000000000000000000000 SWAP12 SWAP4 SWAP11 POP SWAP2 SWAP9 POP CHAINID SWAP8 POP ADDRESS SWAP7 POP SWAP5 POP SWAP3 POP SWAP1 POP JUMP JUMPDEST PUSH0 PUSH2 0x790 PUSH2 0x788 DUP4 PUSH2 0xDD7 JUMP JUMPDEST PUSH1 0xB SWAP1 PUSH2 0xE3E JUMP JUMPDEST PUSH26 0xFFFFFFFFFFFFFFFFFFFFFFFFFFFFFFFFFFFFFFFFFFFFFFFFFFFF AND SWAP3 SWAP2 POP POP JUMP JUMPDEST PUSH0 PUSH2 0x5C3 PUSH2 0x100B JUMP JUMPDEST PUSH1 0x60 PUSH1 0x4 DUP1 SLOAD PUSH2 0x4FD SWAP1 PUSH2 0x2571 JUMP JUMPDEST PUSH20 0xFFFFFFFFFFFFFFFFFFFFFFFFFFFFFFFFFFFFFFFF DUP2 AND PUSH0 SWAP1 DUP2 MSTORE PUSH1 0xA PUSH1 0x20 MSTORE PUSH1 0x40 DUP2 KECCAK256 PUSH2 0x790 SWAP1 PUSH2 0x11D3 JUMP JUMPDEST PUSH0 CALLER PUSH2 0x58B DUP2 DUP6 DUP6 PUSH2 0xBF8 JUMP JUMPDEST DUP4 TIMESTAMP GT ISZERO PUSH2 0x846 JUMPI PUSH1 0x40 MLOAD PUSH32 0x4683AF0E00000000000000000000000000000000000000000000000000000000 DUP2 MSTORE PUSH1 0x4 DUP2 ADD DUP6 SWAP1 MSTORE PUSH1 0x24 ADD JUMPDEST PUSH1 0x40 MLOAD DUP1 SWAP2 SUB SWAP1 REVERT JUMPDEST PUSH1 0x40 DUP1 MLOAD PUSH32 0xE48329057BFD03D55E49B547132E39CFFD9C1820AD7B9D4C5307691425D15ADF PUSH1 0x20 DUP3 ADD MSTORE PUSH20 0xFFFFFFFFFFFFFFFFFFFFFFFFFFFFFFFFFFFFFFFF DUP9 AND SWAP2 DUP2 ADD SWAP2 SWAP1 SWAP2 MSTORE PUSH1 0x60 DUP2 ADD DUP7 SWAP1 MSTORE PUSH1 0x80 DUP2 ADD DUP6 SWAP1 MSTORE PUSH0 SWAP1 PUSH2 0x8CC SWAP1 PUSH2 0x8C4 SWAP1 PUSH1 0xA0 ADD PUSH1 0x40 MLOAD PUSH1 0x20 DUP2 DUP4 SUB SUB DUP2 MSTORE SWAP1 PUSH1 0x40 MSTORE DUP1 MLOAD SWAP1 PUSH1 0x20 ADD KECCAK256 PUSH2 0x1220 JUMP JUMPDEST DUP6 DUP6 DUP6 PUSH2 0x1267 JUMP JUMPDEST SWAP1 POP PUSH2 0x8D8 DUP2 DUP8 PUSH2 0x1293 JUMP JUMPDEST PUSH2 0x8E2 DUP2 DUP9 PUSH2 0x1015 JUMP JUMPDEST POP POP POP POP POP POP POP JUMP JUMPDEST DUP4 TIMESTAMP GT ISZERO PUSH2 0x928 JUMPI PUSH1 0x40 MLOAD PUSH32 0x6279130200000000000000000000000000000000000000000000000000000000 DUP2 MSTORE PUSH1 0x4 DUP2 ADD DUP6 SWAP1 MSTORE PUSH1 0x24 ADD PUSH2 0x83D JUMP JUMPDEST PUSH0 PUSH32 0x6E71EDAE12B1B97F4D1F60370FEF10105FA2FAAE0126114A169C64845D6126C9 DUP9 DUP9 DUP9 PUSH2 0x980 DUP13 PUSH20 0xFFFFFFFFFFFFFFFFFFFFFFFFFFFFFFFFFFFFFFFF AND PUSH0 SWAP1 DUP2 MSTORE PUSH1 0x8 PUSH1 0x20 MSTORE PUSH1 0x40 SWAP1 KECCAK256 DUP1 SLOAD PUSH1 0x1 DUP2 ADD SWAP1 SWAP2 SSTORE SWAP1 JUMP JUMPDEST PUSH1 0x40 DUP1 MLOAD PUSH1 0x20 DUP2 ADD SWAP7 SWAP1 SWAP7 MSTORE PUSH20 0xFFFFFFFFFFFFFFFFFFFFFFFFFFFFFFFFFFFFFFFF SWAP5 DUP6 AND SWAP1 DUP7 ADD MSTORE SWAP3 SWAP1 SWAP2 AND PUSH1 0x60 DUP5 ADD MSTORE PUSH1 0x80 DUP4 ADD MSTORE PUSH1 0xA0 DUP3 ADD MSTORE PUSH1 0xC0 DUP2 ADD DUP7 SWAP1 MSTORE PUSH1 0xE0 ADD PUSH1 0x40 MLOAD PUSH1 0x20 DUP2 DUP4 SUB SUB DUP2 MSTORE SWAP1 PUSH1 0x40 MSTORE DUP1 MLOAD SWAP1 PUSH1 0x20 ADD KECCAK256 SWAP1 POP PUSH0 PUSH2 0x9E7 DUP3 PUSH2 0x1220 JUMP JUMPDEST SWAP1 POP PUSH0 PUSH2 0x9F6 DUP3 DUP8 DUP8 DUP8 PUSH2 0x1267 JUMP JUMPDEST SWAP1 POP DUP10 PUSH20 0xFFFFFFFFFFFFFFFFFFFFFFFFFFFFFFFFFFFFFFFF AND DUP2 PUSH20 0xFFFFFFFFFFFFFFFFFFFFFFFFFFFFFFFFFFFFFFFF AND EQ PUSH2 0xA7D JUMPI PUSH1 0x40 MLOAD PUSH32 0x4B800E4600000000000000000000000000000000000000000000000000000000 DUP2 MSTORE PUSH20 0xFFFFFFFFFFFFFFFFFFFFFFFFFFFFFFFFFFFFFFFF DUP1 DUP4 AND PUSH1 0x4 DUP4 ADD MSTORE DUP12 AND PUSH1 0x24 DUP3 ADD MSTORE PUSH1 0x44 ADD PUSH2 0x83D JUMP JUMPDEST PUSH2 0xA88 DUP11 DUP11 DUP11 PUSH2 0xB18 JUMP JUMPDEST POP POP POP POP POP POP POP POP POP POP JUMP JUMPDEST PUSH1 0x40 DUP1 MLOAD DUP1 DUP3 ADD SWAP1 SWAP2 MSTORE PUSH0 DUP1 DUP3 MSTORE PUSH1 0x20 DUP3 ADD MSTORE PUSH2 0xAB1 DUP4 DUP4 PUSH2 0x1318 JUMP JUMPDEST SWAP4 SWAP3 POP POP POP JUMP JUMPDEST PUSH2 0xAC0 PUSH2 0xF04 JUMP JUMPDEST PUSH20 0xFFFFFFFFFFFFFFFFFFFFFFFFFFFFFFFFFFFFFFFF DUP2 AND PUSH2 0xB0F JUMPI PUSH1 0x40 MLOAD PUSH32 0x1E4FBDF700000000000000000000000000000000000000000000000000000000 DUP2 MSTORE PUSH0 PUSH1 0x4 DUP3 ADD MSTORE PUSH1 0x24 ADD PUSH2 0x83D JUMP JUMPDEST PUSH2 0x642 DUP2 PUSH2 0x10D9 JUMP JUMPDEST PUSH2 0xB25 DUP4 DUP4 DUP4 PUSH1 0x1 PUSH2 0x1359 JUMP JUMPDEST POP POP POP JUMP JUMPDEST PUSH20 0xFFFFFFFFFFFFFFFFFFFFFFFFFFFFFFFFFFFFFFFF DUP4 DUP2 AND PUSH0 SWAP1 DUP2 MSTORE PUSH1 0x1 PUSH1 0x20 SWAP1 DUP2 MSTORE PUSH1 0x40 DUP1 DUP4 KECCAK256 SWAP4 DUP7 AND DUP4 MSTORE SWAP3 SWAP1 MSTORE KECCAK256 SLOAD PUSH32 0xFFFFFFFFFFFFFFFFFFFFFFFFFFFFFFFFFFFFFFFFFFFFFFFFFFFFFFFFFFFFFFFF DUP2 LT ISZERO PUSH2 0xBF2 JUMPI DUP2 DUP2 LT ISZERO PUSH2 0xBE4 JUMPI PUSH1 0x40 MLOAD PUSH32 0xFB8F41B200000000000000000000000000000000000000000000000000000000 DUP2 MSTORE PUSH20 0xFFFFFFFFFFFFFFFFFFFFFFFFFFFFFFFFFFFFFFFF DUP5 AND PUSH1 0x4 DUP3 ADD MSTORE PUSH1 0x24 DUP2 ADD DUP3 SWAP1 MSTORE PUSH1 0x44 DUP2 ADD DUP4 SWAP1 MSTORE PUSH1 0x64 ADD PUSH2 0x83D JUMP JUMPDEST PUSH2 0xBF2 DUP5 DUP5 DUP5 DUP5 SUB PUSH0 PUSH2 0x1359 JUMP JUMPDEST POP POP POP POP JUMP JUMPDEST PUSH20 0xFFFFFFFFFFFFFFFFFFFFFFFFFFFFFFFFFFFFFFFF DUP4 AND PUSH2 0xC47 JUMPI PUSH1 0x40 MLOAD PUSH32 0x96C6FD1E00000000000000000000000000000000000000000000000000000000 DUP2 MSTORE PUSH0 PUSH1 0x4 DUP3 ADD MSTORE PUSH1 0x24 ADD PUSH2 0x83D JUMP JUMPDEST PUSH20 0xFFFFFFFFFFFFFFFFFFFFFFFFFFFFFFFFFFFFFFFF DUP3 AND PUSH2 0xC96 JUMPI PUSH1 0x40 MLOAD PUSH32 0xEC442F0500000000000000000000000000000000000000000000000000000000 DUP2 MSTORE PUSH0 PUSH1 0x4 DUP3 ADD MSTORE PUSH1 0x24 ADD PUSH2 0x83D JUMP JUMPDEST PUSH2 0xB25 DUP4 DUP4 DUP4 PUSH2 0x149E JUMP JUMPDEST PUSH0 ADDRESS PUSH20 0xFFFFFFFFFFFFFFFFFFFFFFFFFFFFFFFFFFFFFFFF PUSH32 0x0 AND EQ DUP1 ISZERO PUSH2 0xD06 JUMPI POP PUSH32 0x0 CHAINID EQ JUMPDEST ISZERO PUSH2 0xD30 JUMPI POP PUSH32 0x0 SWAP1 JUMP JUMPDEST PUSH2 0x5C3 PUSH1 0x40 DUP1 MLOAD PUSH32 0x8B73C3C69BB8FE3D512ECC4CF759CC79239F7B179B0FFACAA9A75D522B39400F PUSH1 0x20 DUP3 ADD MSTORE PUSH32 0x0 SWAP2 DUP2 ADD SWAP2 SWAP1 SWAP2 MSTORE PUSH32 0x0 PUSH1 0x60 DUP3 ADD MSTORE CHAINID PUSH1 0x80 DUP3 ADD MSTORE ADDRESS PUSH1 0xA0 DUP3 ADD MSTORE PUSH0 SWAP1 PUSH1 0xC0 ADD PUSH1 0x40 MLOAD PUSH1 0x20 DUP2 DUP4 SUB SUB DUP2 MSTORE SWAP1 PUSH1 0x40 MSTORE DUP1 MLOAD SWAP1 PUSH1 0x20 ADD KECCAK256 SWAP1 POP SWAP1 JUMP JUMPDEST PUSH0 PUSH0 PUSH2 0xDE1 PUSH2 0x7B2 JUMP JUMPDEST SWAP1 POP DUP1 PUSH6 0xFFFFFFFFFFFF AND DUP4 LT PUSH2 0xE35 JUMPI PUSH1 0x40 MLOAD PUSH32 0xECD3F81E00000000000000000000000000000000000000000000000000000000 DUP2 MSTORE PUSH1 0x4 DUP2 ADD DUP5 SWAP1 MSTORE PUSH6 0xFFFFFFFFFFFF DUP3 AND PUSH1 0x24 DUP3 ADD MSTORE PUSH1 0x44 ADD PUSH2 0x83D JUMP JUMPDEST PUSH2 0xAB1 DUP4 PUSH2 0x14A9 JUMP JUMPDEST DUP2 SLOAD PUSH0 SWAP1 DUP2 DUP2 PUSH1 0x5 DUP2 GT ISZERO PUSH2 0xE9A JUMPI PUSH0 PUSH2 0xE57 DUP5 PUSH2 0x14F8 JUMP JUMPDEST PUSH2 0xE61 SWAP1 DUP6 PUSH2 0x25EF JUMP JUMPDEST PUSH0 DUP9 DUP2 MSTORE PUSH1 0x20 SWAP1 KECCAK256 SWAP1 SWAP2 POP DUP2 ADD SLOAD PUSH6 0xFFFFFFFFFFFF SWAP1 DUP2 AND SWAP1 DUP8 AND LT ISZERO PUSH2 0xE8A JUMPI DUP1 SWAP2 POP PUSH2 0xE98 JUMP JUMPDEST PUSH2 0xE95 DUP2 PUSH1 0x1 PUSH2 0x2602 JUMP JUMPDEST SWAP3 POP JUMPDEST POP JUMPDEST PUSH0 PUSH2 0xEA7 DUP8 DUP8 DUP6 DUP6 PUSH2 0x165D JUMP JUMPDEST SWAP1 POP DUP1 ISZERO PUSH2 0xEF7 JUMPI PUSH2 0xECB DUP8 PUSH2 0xEBE PUSH1 0x1 DUP5 PUSH2 0x25EF JUMP JUMPDEST PUSH0 SWAP2 DUP3 MSTORE PUSH1 0x20 SWAP1 SWAP2 KECCAK256 ADD SWAP1 JUMP JUMPDEST SLOAD PUSH7 0x1000000000000 SWAP1 DIV PUSH26 0xFFFFFFFFFFFFFFFFFFFFFFFFFFFFFFFFFFFFFFFFFFFFFFFFFFFF AND PUSH2 0xEF9 JUMP JUMPDEST PUSH0 JUMPDEST SWAP8 SWAP7 POP POP POP POP POP POP POP JUMP JUMPDEST PUSH1 0x5 SLOAD PUSH20 0xFFFFFFFFFFFFFFFFFFFFFFFFFFFFFFFFFFFFFFFF AND CALLER EQ PUSH2 0x6FC JUMPI PUSH1 0x40 MLOAD PUSH32 0x118CDAA700000000000000000000000000000000000000000000000000000000 DUP2 MSTORE CALLER PUSH1 0x4 DUP3 ADD MSTORE PUSH1 0x24 ADD PUSH2 0x83D JUMP JUMPDEST PUSH20 0xFFFFFFFFFFFFFFFFFFFFFFFFFFFFFFFFFFFFFFFF DUP3 AND PUSH2 0xFA6 JUMPI PUSH1 0x40 MLOAD PUSH32 0xEC442F0500000000000000000000000000000000000000000000000000000000 DUP2 MSTORE PUSH0 PUSH1 0x4 DUP3 ADD MSTORE PUSH1 0x24 ADD PUSH2 0x83D JUMP JUMPDEST PUSH2 0x634 PUSH0 DUP4 DUP4 PUSH2 0x149E JUMP JUMPDEST PUSH20 0xFFFFFFFFFFFFFFFFFFFFFFFFFFFFFFFFFFFFFFFF DUP3 AND PUSH2 0x1000 JUMPI PUSH1 0x40 MLOAD PUSH32 0x96C6FD1E00000000000000000000000000000000000000000000000000000000 DUP2 MSTORE PUSH0 PUSH1 0x4 DUP3 ADD MSTORE PUSH1 0x24 ADD PUSH2 0x83D JUMP JUMPDEST PUSH2 0x634 DUP3 PUSH0 DUP4 PUSH2 0x149E JUMP JUMPDEST PUSH0 PUSH2 0x5C3 NUMBER PUSH2 0x14A9 JUMP JUMPDEST PUSH20 0xFFFFFFFFFFFFFFFFFFFFFFFFFFFFFFFFFFFFFFFF DUP3 DUP2 AND PUSH0 DUP2 DUP2 MSTORE PUSH1 0x9 PUSH1 0x20 MSTORE PUSH1 0x40 DUP1 DUP3 KECCAK256 DUP1 SLOAD DUP7 DUP7 AND PUSH32 0xFFFFFFFFFFFFFFFFFFFFFFFF0000000000000000000000000000000000000000 DUP3 AND DUP2 OR SWAP1 SWAP3 SSTORE SWAP2 MLOAD SWAP2 SWAP1 SWAP5 AND SWAP4 SWAP3 DUP5 SWAP3 SWAP1 SWAP2 PUSH32 0x3134E8A2E6D97E929A7E54011EA5485D7D196DD5F0BA4D4EF95803E8E3FC257F SWAP2 SWAP1 LOG4 PUSH2 0xB25 DUP2 DUP4 PUSH2 0x10A6 DUP7 PUSH2 0x16BC JUMP JUMPDEST PUSH2 0x16E6 JUMP JUMPDEST PUSH20 0xFFFFFFFFFFFFFFFFFFFFFFFFFFFFFFFFFFFFFFFF DUP2 AND PUSH0 SWAP1 DUP2 MSTORE PUSH1 0xA PUSH1 0x20 MSTORE PUSH1 0x40 DUP2 KECCAK256 SLOAD PUSH2 0x591 SWAP1 PUSH2 0x1903 JUMP JUMPDEST PUSH1 0x5 DUP1 SLOAD PUSH20 0xFFFFFFFFFFFFFFFFFFFFFFFFFFFFFFFFFFFFFFFF DUP4 DUP2 AND PUSH32 0xFFFFFFFFFFFFFFFFFFFFFFFF0000000000000000000000000000000000000000 DUP4 AND DUP2 OR SWAP1 SWAP4 SSTORE PUSH1 0x40 MLOAD SWAP2 AND SWAP2 SWAP1 DUP3 SWAP1 PUSH32 0x8BE0079C531659141344CD1FD0A4F28419497F9722A3DAAFE3B4186F6B6457E0 SWAP1 PUSH0 SWAP1 LOG3 POP POP JUMP JUMPDEST PUSH20 0xFFFFFFFFFFFFFFFFFFFFFFFFFFFFFFFFFFFFFFFF DUP2 AND PUSH0 SWAP1 DUP2 MSTORE PUSH1 0x8 PUSH1 0x20 MSTORE PUSH1 0x40 DUP2 KECCAK256 SLOAD PUSH2 0x591 JUMP JUMPDEST PUSH1 0x60 PUSH2 0x5C3 PUSH32 0x0 PUSH1 0x6 PUSH2 0x194C JUMP JUMPDEST PUSH1 0x60 PUSH2 0x5C3 PUSH32 0x0 PUSH1 0x7 PUSH2 0x194C JUMP JUMPDEST DUP1 SLOAD PUSH0 SWAP1 DUP1 ISZERO PUSH2 0x1218 JUMPI PUSH2 0x11EC DUP4 PUSH2 0xEBE PUSH1 0x1 DUP5 PUSH2 0x25EF JUMP JUMPDEST SLOAD PUSH7 0x1000000000000 SWAP1 DIV PUSH26 0xFFFFFFFFFFFFFFFFFFFFFFFFFFFFFFFFFFFFFFFFFFFFFFFFFFFF AND PUSH2 0xAB1 JUMP JUMPDEST PUSH0 SWAP4 SWAP3 POP POP POP JUMP JUMPDEST PUSH0 PUSH2 0x591 PUSH2 0x122C PUSH2 0xCA1 JUMP JUMPDEST DUP4 PUSH1 0x40 MLOAD PUSH32 0x1901000000000000000000000000000000000000000000000000000000000000 DUP2 MSTORE PUSH1 0x2 DUP2 ADD SWAP3 SWAP1 SWAP3 MSTORE PUSH1 0x22 DUP3 ADD MSTORE PUSH1 0x42 SWAP1 KECCAK256 SWAP1 JUMP JUMPDEST PUSH0 PUSH0 PUSH0 PUSH0 PUSH2 0x1277 DUP9 DUP9 DUP9 DUP9 PUSH2 0x19F5 JUMP JUMPDEST SWAP3 POP SWAP3 POP SWAP3 POP PUSH2 0x1287 DUP3 DUP3 PUSH2 0x1AE8 JUMP JUMPDEST POP SWAP1 SWAP7 SWAP6 POP POP POP POP POP POP JUMP JUMPDEST PUSH20 0xFFFFFFFFFFFFFFFFFFFFFFFFFFFFFFFFFFFFFFFF DUP3 AND PUSH0 SWAP1 DUP2 MSTORE PUSH1 0x8 PUSH1 0x20 MSTORE PUSH1 0x40 SWAP1 KECCAK256 DUP1 SLOAD PUSH1 0x1 DUP2 ADD SWAP1 SWAP2 SSTORE DUP2 DUP2 EQ PUSH2 0xB25 JUMPI PUSH1 0x40 MLOAD PUSH32 0x752D88C000000000000000000000000000000000000000000000000000000000 DUP2 MSTORE PUSH20 0xFFFFFFFFFFFFFFFFFFFFFFFFFFFFFFFFFFFFFFFF DUP5 AND PUSH1 0x4 DUP3 ADD MSTORE PUSH1 0x24 DUP2 ADD DUP3 SWAP1 MSTORE PUSH1 0x44 ADD PUSH2 0x83D JUMP JUMPDEST PUSH1 0x40 DUP1 MLOAD DUP1 DUP3 ADD SWAP1 SWAP2 MSTORE PUSH0 DUP1 DUP3 MSTORE PUSH1 0x20 DUP3 ADD MSTORE PUSH20 0xFFFFFFFFFFFFFFFFFFFFFFFFFFFFFFFFFFFFFFFF DUP4 AND PUSH0 SWAP1 DUP2 MSTORE PUSH1 0xA PUSH1 0x20 MSTORE PUSH1 0x40 SWAP1 KECCAK256 PUSH2 0xAB1 SWAP1 DUP4 PUSH2 0x1BEB JUMP JUMPDEST PUSH20 0xFFFFFFFFFFFFFFFFFFFFFFFFFFFFFFFFFFFFFFFF DUP5 AND PUSH2 0x13A8 JUMPI PUSH1 0x40 MLOAD PUSH32 0xE602DF0500000000000000000000000000000000000000000000000000000000 DUP2 MSTORE PUSH0 PUSH1 0x4 DUP3 ADD MSTORE PUSH1 0x24 ADD PUSH2 0x83D JUMP JUMPDEST PUSH20 0xFFFFFFFFFFFFFFFFFFFFFFFFFFFFFFFFFFFFFFFF DUP4 AND PUSH2 0x13F7 JUMPI PUSH1 0x40 MLOAD PUSH32 0x94280D6200000000000000000000000000000000000000000000000000000000 DUP2 MSTORE PUSH0 PUSH1 0x4 DUP3 ADD MSTORE PUSH1 0x24 ADD PUSH2 0x83D JUMP JUMPDEST PUSH20 0xFFFFFFFFFFFFFFFFFFFFFFFFFFFFFFFFFFFFFFFF DUP1 DUP6 AND PUSH0 SWAP1 DUP2 MSTORE PUSH1 0x1 PUSH1 0x20 SWAP1 DUP2 MSTORE PUSH1 0x40 DUP1 DUP4 KECCAK256 SWAP4 DUP8 AND DUP4 MSTORE SWAP3 SWAP1 MSTORE KECCAK256 DUP3 SWAP1 SSTORE DUP1 ISZERO PUSH2 0xBF2 JUMPI DUP3 PUSH20 0xFFFFFFFFFFFFFFFFFFFFFFFFFFFFFFFFFFFFFFFF AND DUP5 PUSH20 0xFFFFFFFFFFFFFFFFFFFFFFFFFFFFFFFFFFFFFFFF AND PUSH32 0x8C5BE1E5EBEC7D5BD14F71427D1E84F3DD0314C0F7B2291E5B200AC8C7C3B925 DUP5 PUSH1 0x40 MLOAD PUSH2 0x1490 SWAP2 DUP2 MSTORE PUSH1 0x20 ADD SWAP1 JUMP JUMPDEST PUSH1 0x40 MLOAD DUP1 SWAP2 SUB SWAP1 LOG3 POP POP POP POP JUMP JUMPDEST PUSH2 0xB25 DUP4 DUP4 DUP4 PUSH2 0x1C6E JUMP JUMPDEST PUSH0 PUSH6 0xFFFFFFFFFFFF DUP3 GT ISZERO PUSH2 0x14F4 JUMPI PUSH1 0x40 MLOAD PUSH32 0x6DFCC65000000000000000000000000000000000000000000000000000000000 DUP2 MSTORE PUSH1 0x30 PUSH1 0x4 DUP3 ADD MSTORE PUSH1 0x24 DUP2 ADD DUP4 SWAP1 MSTORE PUSH1 0x44 ADD PUSH2 0x83D JUMP JUMPDEST POP SWAP1 JUMP JUMPDEST PUSH0 PUSH1 0x1 DUP3 GT PUSH2 0x1505 JUMPI POP SWAP1 JUMP JUMPDEST DUP2 PUSH1 0x1 PUSH17 0x100000000000000000000000000000000 DUP3 LT PUSH2 0x152B JUMPI PUSH1 0x80 SWAP2 SWAP1 SWAP2 SHR SWAP1 PUSH1 0x40 SHL JUMPDEST PUSH9 0x10000000000000000 DUP3 LT PUSH2 0x1546 JUMPI PUSH1 0x40 SWAP2 SWAP1 SWAP2 SHR SWAP1 PUSH1 0x20 SHL JUMPDEST PUSH5 0x100000000 DUP3 LT PUSH2 0x155D JUMPI PUSH1 0x20 SWAP2 SWAP1 SWAP2 SHR SWAP1 PUSH1 0x10 SHL JUMPDEST PUSH3 0x10000 DUP3 LT PUSH2 0x1572 JUMPI PUSH1 0x10 SWAP2 SWAP1 SWAP2 SHR SWAP1 PUSH1 0x8 SHL JUMPDEST PUSH2 0x100 DUP3 LT PUSH2 0x1586 JUMPI PUSH1 0x8 SWAP2 SWAP1 SWAP2 SHR SWAP1 PUSH1 0x4 SHL JUMPDEST PUSH1 0x10 DUP3 LT PUSH2 0x1599 JUMPI PUSH1 0x4 SWAP2 SWAP1 SWAP2 SHR SWAP1 PUSH1 0x2 SHL JUMPDEST PUSH1 0x4 DUP3 LT PUSH2 0x15A5 JUMPI PUSH1 0x1 SHL JUMPDEST PUSH1 0x3 MUL PUSH1 0x1 SWAP1 DUP2 SHR SWAP1 DUP2 DUP6 DUP2 PUSH2 0x15BD JUMPI PUSH2 0x15BD PUSH2 0x2615 JUMP JUMPDEST DIV DUP3 ADD SWAP1 SHR SWAP1 POP PUSH1 0x1 DUP2 DUP6 DUP2 PUSH2 0x15D5 JUMPI PUSH2 0x15D5 PUSH2 0x2615 JUMP JUMPDEST DIV DUP3 ADD SWAP1 SHR SWAP1 POP PUSH1 0x1 DUP2 DUP6 DUP2 PUSH2 0x15ED JUMPI PUSH2 0x15ED PUSH2 0x2615 JUMP JUMPDEST DIV DUP3 ADD SWAP1 SHR SWAP1 POP PUSH1 0x1 DUP2 DUP6 DUP2 PUSH2 0x1605 JUMPI PUSH2 0x1605 PUSH2 0x2615 JUMP JUMPDEST DIV DUP3 ADD SWAP1 SHR SWAP1 POP PUSH1 0x1 DUP2 DUP6 DUP2 PUSH2 0x161D JUMPI PUSH2 0x161D PUSH2 0x2615 JUMP JUMPDEST DIV DUP3 ADD SWAP1 SHR SWAP1 POP PUSH1 0x1 DUP2 DUP6 DUP2 PUSH2 0x1635 JUMPI PUSH2 0x1635 PUSH2 0x2615 JUMP JUMPDEST DIV DUP3 ADD SWAP1 SHR SWAP1 POP PUSH2 0x1654 DUP2 DUP6 DUP2 PUSH2 0x164E JUMPI PUSH2 0x164E PUSH2 0x2615 JUMP JUMPDEST DIV DUP3 GT SWAP1 JUMP JUMPDEST SWAP1 SUB SWAP4 SWAP3 POP POP POP JUMP JUMPDEST PUSH0 JUMPDEST DUP2 DUP4 LT ISZERO PUSH2 0x16B4 JUMPI PUSH0 PUSH2 0x1672 DUP5 DUP5 PUSH2 0x1D0D JUMP JUMPDEST PUSH0 DUP8 DUP2 MSTORE PUSH1 0x20 SWAP1 KECCAK256 SWAP1 SWAP2 POP PUSH6 0xFFFFFFFFFFFF DUP7 AND SWAP1 DUP3 ADD SLOAD PUSH6 0xFFFFFFFFFFFF AND GT ISZERO PUSH2 0x16A0 JUMPI DUP1 SWAP3 POP PUSH2 0x16AE JUMP JUMPDEST PUSH2 0x16AB DUP2 PUSH1 0x1 PUSH2 0x2602 JUMP JUMPDEST SWAP4 POP JUMPDEST POP PUSH2 0x165F JUMP JUMPDEST POP SWAP4 SWAP3 POP POP POP JUMP JUMPDEST PUSH20 0xFFFFFFFFFFFFFFFFFFFFFFFFFFFFFFFFFFFFFFFF DUP2 AND PUSH0 SWAP1 DUP2 MSTORE PUSH1 0x20 DUP2 SWAP1 MSTORE PUSH1 0x40 DUP2 KECCAK256 SLOAD PUSH2 0x591 JUMP JUMPDEST DUP2 PUSH20 0xFFFFFFFFFFFFFFFFFFFFFFFFFFFFFFFFFFFFFFFF AND DUP4 PUSH20 0xFFFFFFFFFFFFFFFFFFFFFFFFFFFFFFFFFFFFFFFF AND EQ ISZERO DUP1 ISZERO PUSH2 0x1721 JUMPI POP PUSH0 DUP2 GT JUMPDEST ISZERO PUSH2 0xB25 JUMPI PUSH20 0xFFFFFFFFFFFFFFFFFFFFFFFFFFFFFFFFFFFFFFFF DUP4 AND ISZERO PUSH2 0x1815 JUMPI PUSH20 0xFFFFFFFFFFFFFFFFFFFFFFFFFFFFFFFFFFFFFFFF DUP4 AND PUSH0 SWAP1 DUP2 MSTORE PUSH1 0xA PUSH1 0x20 MSTORE PUSH1 0x40 DUP2 KECCAK256 DUP2 SWAP1 PUSH2 0x177D SWAP1 PUSH2 0x1D27 PUSH2 0x1778 DUP7 PUSH2 0x1D32 JUMP JUMPDEST PUSH2 0x1D91 JUMP JUMPDEST PUSH26 0xFFFFFFFFFFFFFFFFFFFFFFFFFFFFFFFFFFFFFFFFFFFFFFFFFFFF AND SWAP2 POP PUSH26 0xFFFFFFFFFFFFFFFFFFFFFFFFFFFFFFFFFFFFFFFFFFFFFFFFFFFF AND SWAP2 POP DUP5 PUSH20 0xFFFFFFFFFFFFFFFFFFFFFFFFFFFFFFFFFFFFFFFF AND PUSH32 0xDEC2BACDD2F05B59DE34DA9B523DFF8BE42E5E38E818C82FDB0BAE774387A724 DUP4 DUP4 PUSH1 0x40 MLOAD PUSH2 0x180A SWAP3 SWAP2 SWAP1 SWAP2 DUP3 MSTORE PUSH1 0x20 DUP3 ADD MSTORE PUSH1 0x40 ADD SWAP1 JUMP JUMPDEST PUSH1 0x40 MLOAD DUP1 SWAP2 SUB SWAP1 LOG2 POP POP JUMPDEST PUSH20 0xFFFFFFFFFFFFFFFFFFFFFFFFFFFFFFFFFFFFFFFF DUP3 AND ISZERO PUSH2 0xB25 JUMPI PUSH20 0xFFFFFFFFFFFFFFFFFFFFFFFFFFFFFFFFFFFFFFFF DUP3 AND PUSH0 SWAP1 DUP2 MSTORE PUSH1 0xA PUSH1 0x20 MSTORE PUSH1 0x40 DUP2 KECCAK256 DUP2 SWAP1 PUSH2 0x1867 SWAP1 PUSH2 0x1DC9 PUSH2 0x1778 DUP7 PUSH2 0x1D32 JUMP JUMPDEST PUSH26 0xFFFFFFFFFFFFFFFFFFFFFFFFFFFFFFFFFFFFFFFFFFFFFFFFFFFF AND SWAP2 POP PUSH26 0xFFFFFFFFFFFFFFFFFFFFFFFFFFFFFFFFFFFFFFFFFFFFFFFFFFFF AND SWAP2 POP DUP4 PUSH20 0xFFFFFFFFFFFFFFFFFFFFFFFFFFFFFFFFFFFFFFFF AND PUSH32 0xDEC2BACDD2F05B59DE34DA9B523DFF8BE42E5E38E818C82FDB0BAE774387A724 DUP4 DUP4 PUSH1 0x40 MLOAD PUSH2 0x18F4 SWAP3 SWAP2 SWAP1 SWAP2 DUP3 MSTORE PUSH1 0x20 DUP3 ADD MSTORE PUSH1 0x40 ADD SWAP1 JUMP JUMPDEST PUSH1 0x40 MLOAD DUP1 SWAP2 SUB SWAP1 LOG2 POP POP POP POP POP JUMP JUMPDEST PUSH0 PUSH4 0xFFFFFFFF DUP3 GT ISZERO PUSH2 0x14F4 JUMPI PUSH1 0x40 MLOAD PUSH32 0x6DFCC65000000000000000000000000000000000000000000000000000000000 DUP2 MSTORE PUSH1 0x20 PUSH1 0x4 DUP3 ADD MSTORE PUSH1 0x24 DUP2 ADD DUP4 SWAP1 MSTORE PUSH1 0x44 ADD PUSH2 0x83D JUMP JUMPDEST PUSH1 0x60 PUSH1 0xFF DUP4 EQ PUSH2 0x1966 JUMPI PUSH2 0x195F DUP4 PUSH2 0x1DD4 JUMP JUMPDEST SWAP1 POP PUSH2 0x591 JUMP JUMPDEST DUP2 DUP1 SLOAD PUSH2 0x1972 SWAP1 PUSH2 0x2571 JUMP JUMPDEST DUP1 PUSH1 0x1F ADD PUSH1 0x20 DUP1 SWAP2 DIV MUL PUSH1 0x20 ADD PUSH1 0x40 MLOAD SWAP1 DUP2 ADD PUSH1 0x40 MSTORE DUP1 SWAP3 SWAP2 SWAP1 DUP2 DUP2 MSTORE PUSH1 0x20 ADD DUP3 DUP1 SLOAD PUSH2 0x199E SWAP1 PUSH2 0x2571 JUMP JUMPDEST DUP1 ISZERO PUSH2 0x19E9 JUMPI DUP1 PUSH1 0x1F LT PUSH2 0x19C0 JUMPI PUSH2 0x100 DUP1 DUP4 SLOAD DIV MUL DUP4 MSTORE SWAP2 PUSH1 0x20 ADD SWAP2 PUSH2 0x19E9 JUMP JUMPDEST DUP3 ADD SWAP2 SWAP1 PUSH0 MSTORE PUSH1 0x20 PUSH0 KECCAK256 SWAP1 JUMPDEST DUP2 SLOAD DUP2 MSTORE SWAP1 PUSH1 0x1 ADD SWAP1 PUSH1 0x20 ADD DUP1 DUP4 GT PUSH2 0x19CC JUMPI DUP3 SWAP1 SUB PUSH1 0x1F AND DUP3 ADD SWAP2 JUMPDEST POP POP POP POP POP SWAP1 POP PUSH2 0x591 JUMP JUMPDEST PUSH0 DUP1 DUP1 PUSH32 0x7FFFFFFFFFFFFFFFFFFFFFFFFFFFFFFF5D576E7357A4501DDFE92F46681B20A0 DUP5 GT ISZERO PUSH2 0x1A2E JUMPI POP PUSH0 SWAP2 POP PUSH1 0x3 SWAP1 POP DUP3 PUSH2 0x1ADE JUMP JUMPDEST PUSH1 0x40 DUP1 MLOAD PUSH0 DUP1 DUP3 MSTORE PUSH1 0x20 DUP3 ADD DUP1 DUP5 MSTORE DUP11 SWAP1 MSTORE PUSH1 0xFF DUP10 AND SWAP3 DUP3 ADD SWAP3 SWAP1 SWAP3 MSTORE PUSH1 0x60 DUP2 ADD DUP8 SWAP1 MSTORE PUSH1 0x80 DUP2 ADD DUP7 SWAP1 MSTORE PUSH1 0x1 SWAP1 PUSH1 0xA0 ADD PUSH1 0x20 PUSH1 0x40 MLOAD PUSH1 0x20 DUP2 SUB SWAP1 DUP1 DUP5 SUB SWAP1 DUP6 GAS STATICCALL ISZERO DUP1 ISZERO PUSH2 0x1A7F JUMPI RETURNDATASIZE PUSH0 PUSH0 RETURNDATACOPY RETURNDATASIZE PUSH0 REVERT JUMPDEST POP POP PUSH1 0x40 MLOAD PUSH32 0xFFFFFFFFFFFFFFFFFFFFFFFFFFFFFFFFFFFFFFFFFFFFFFFFFFFFFFFFFFFFFFE0 ADD MLOAD SWAP2 POP POP PUSH20 0xFFFFFFFFFFFFFFFFFFFFFFFFFFFFFFFFFFFFFFFF DUP2 AND PUSH2 0x1AD5 JUMPI POP PUSH0 SWAP3 POP PUSH1 0x1 SWAP2 POP DUP3 SWAP1 POP PUSH2 0x1ADE JUMP JUMPDEST SWAP3 POP PUSH0 SWAP2 POP DUP2 SWAP1 POP JUMPDEST SWAP5 POP SWAP5 POP SWAP5 SWAP2 POP POP JUMP JUMPDEST PUSH0 DUP3 PUSH1 0x3 DUP2 GT ISZERO PUSH2 0x1AFB JUMPI PUSH2 0x1AFB PUSH2 0x2642 JUMP JUMPDEST SUB PUSH2 0x1B04 JUMPI POP POP JUMP JUMPDEST PUSH1 0x1 DUP3 PUSH1 0x3 DUP2 GT ISZERO PUSH2 0x1B18 JUMPI PUSH2 0x1B18 PUSH2 0x2642 JUMP JUMPDEST SUB PUSH2 0x1B4F JUMPI PUSH1 0x40 MLOAD PUSH32 0xF645EEDF00000000000000000000000000000000000000000000000000000000 DUP2 MSTORE PUSH1 0x4 ADD PUSH1 0x40 MLOAD DUP1 SWAP2 SUB SWAP1 REVERT JUMPDEST PUSH1 0x2 DUP3 PUSH1 0x3 DUP2 GT ISZERO PUSH2 0x1B63 JUMPI PUSH2 0x1B63 PUSH2 0x2642 JUMP JUMPDEST SUB PUSH2 0x1B9D JUMPI PUSH1 0x40 MLOAD PUSH32 0xFCE698F700000000000000000000000000000000000000000000000000000000 DUP2 MSTORE PUSH1 0x4 DUP2 ADD DUP3 SWAP1 MSTORE PUSH1 0x24 ADD PUSH2 0x83D JUMP JUMPDEST PUSH1 0x3 DUP3 PUSH1 0x3 DUP2 GT ISZERO PUSH2 0x1BB1 JUMPI PUSH2 0x1BB1 PUSH2 0x2642 JUMP JUMPDEST SUB PUSH2 0x634 JUMPI PUSH1 0x40 MLOAD PUSH32 0xD78BCE0C00000000000000000000000000000000000000000000000000000000 DUP2 MSTORE PUSH1 0x4 DUP2 ADD DUP3 SWAP1 MSTORE PUSH1 0x24 ADD PUSH2 0x83D JUMP JUMPDEST PUSH1 0x40 DUP1 MLOAD DUP1 DUP3 ADD SWAP1 SWAP2 MSTORE PUSH0 DUP1 DUP3 MSTORE PUSH1 0x20 DUP3 ADD MSTORE DUP3 PUSH0 ADD DUP3 PUSH4 0xFFFFFFFF AND DUP2 SLOAD DUP2 LT PUSH2 0x1C18 JUMPI PUSH2 0x1C18 PUSH2 0x266F JUMP JUMPDEST PUSH0 SWAP2 DUP3 MSTORE PUSH1 0x20 SWAP2 DUP3 SWAP1 KECCAK256 PUSH1 0x40 DUP1 MLOAD DUP1 DUP3 ADD SWAP1 SWAP2 MSTORE SWAP2 ADD SLOAD PUSH6 0xFFFFFFFFFFFF DUP2 AND DUP3 MSTORE PUSH7 0x1000000000000 SWAP1 DIV PUSH26 0xFFFFFFFFFFFFFFFFFFFFFFFFFFFFFFFFFFFFFFFFFFFFFFFFFFFF AND SWAP2 DUP2 ADD SWAP2 SWAP1 SWAP2 MSTORE SWAP4 SWAP3 POP POP POP JUMP JUMPDEST PUSH2 0x1C79 DUP4 DUP4 DUP4 PUSH2 0x1E11 JUMP JUMPDEST PUSH20 0xFFFFFFFFFFFFFFFFFFFFFFFFFFFFFFFFFFFFFFFF DUP4 AND PUSH2 0x1D02 JUMPI PUSH0 PUSH2 0x1C9E PUSH1 0x2 SLOAD SWAP1 JUMP JUMPDEST SWAP1 POP PUSH26 0xFFFFFFFFFFFFFFFFFFFFFFFFFFFFFFFFFFFFFFFFFFFFFFFFFFFF DUP1 DUP3 GT ISZERO PUSH2 0x1CFF JUMPI PUSH1 0x40 MLOAD PUSH32 0x1CB15D2600000000000000000000000000000000000000000000000000000000 DUP2 MSTORE PUSH1 0x4 DUP2 ADD DUP4 SWAP1 MSTORE PUSH1 0x24 DUP2 ADD DUP3 SWAP1 MSTORE PUSH1 0x44 ADD PUSH2 0x83D JUMP JUMPDEST POP POP JUMPDEST PUSH2 0xB25 DUP4 DUP4 DUP4 PUSH2 0x1FB8 JUMP JUMPDEST PUSH0 PUSH2 0x1D1B PUSH1 0x2 DUP5 DUP5 XOR PUSH2 0x269C JUMP JUMPDEST PUSH2 0xAB1 SWAP1 DUP5 DUP5 AND PUSH2 0x2602 JUMP JUMPDEST PUSH0 PUSH2 0xAB1 DUP3 DUP5 PUSH2 0x26D4 JUMP JUMPDEST PUSH0 PUSH26 0xFFFFFFFFFFFFFFFFFFFFFFFFFFFFFFFFFFFFFFFFFFFFFFFFFFFF DUP3 GT ISZERO PUSH2 0x14F4 JUMPI PUSH1 0x40 MLOAD PUSH32 0x6DFCC65000000000000000000000000000000000000000000000000000000000 DUP2 MSTORE PUSH1 0xD0 PUSH1 0x4 DUP3 ADD MSTORE PUSH1 0x24 DUP2 ADD DUP4 SWAP1 MSTORE PUSH1 0x44 ADD PUSH2 0x83D JUMP JUMPDEST PUSH0 PUSH0 PUSH2 0x1DBC PUSH2 0x1D9E PUSH2 0x7B2 JUMP JUMPDEST PUSH2 0x1DB4 PUSH2 0x1DAA DUP9 PUSH2 0x11D3 JUMP JUMPDEST DUP7 DUP9 PUSH4 0xFFFFFFFF AND JUMP JUMPDEST DUP8 SWAP2 SWAP1 PUSH2 0x2054 JUMP JUMPDEST SWAP2 POP SWAP2 POP JUMPDEST SWAP4 POP SWAP4 SWAP2 POP POP JUMP JUMPDEST PUSH0 PUSH2 0xAB1 DUP3 DUP5 PUSH2 0x2706 JUMP JUMPDEST PUSH1 0x60 PUSH0 PUSH2 0x1DE0 DUP4 PUSH2 0x2061 JUMP JUMPDEST PUSH1 0x40 DUP1 MLOAD PUSH1 0x20 DUP1 DUP3 MSTORE DUP2 DUP4 ADD SWAP1 SWAP3 MSTORE SWAP2 SWAP3 POP PUSH0 SWAP2 SWAP1 PUSH1 0x20 DUP3 ADD DUP2 DUP1 CALLDATASIZE DUP4 CALLDATACOPY POP POP POP SWAP2 DUP3 MSTORE POP PUSH1 0x20 DUP2 ADD SWAP3 SWAP1 SWAP3 MSTORE POP SWAP1 JUMP JUMPDEST PUSH20 0xFFFFFFFFFFFFFFFFFFFFFFFFFFFFFFFFFFFFFFFF DUP4 AND PUSH2 0x1E48 JUMPI DUP1 PUSH1 0x2 PUSH0 DUP3 DUP3 SLOAD PUSH2 0x1E3D SWAP2 SWAP1 PUSH2 0x2602 JUMP JUMPDEST SWAP1 SWAP2 SSTORE POP PUSH2 0x1EF8 SWAP1 POP JUMP JUMPDEST PUSH20 0xFFFFFFFFFFFFFFFFFFFFFFFFFFFFFFFFFFFFFFFF DUP4 AND PUSH0 SWAP1 DUP2 MSTORE PUSH1 0x20 DUP2 SWAP1 MSTORE PUSH1 0x40 SWAP1 KECCAK256 SLOAD DUP2 DUP2 LT ISZERO PUSH2 0x1ECD JUMPI PUSH1 0x40 MLOAD PUSH32 0xE450D38C00000000000000000000000000000000000000000000000000000000 DUP2 MSTORE PUSH20 0xFFFFFFFFFFFFFFFFFFFFFFFFFFFFFFFFFFFFFFFF DUP6 AND PUSH1 0x4 DUP3 ADD MSTORE PUSH1 0x24 DUP2 ADD DUP3 SWAP1 MSTORE PUSH1 0x44 DUP2 ADD DUP4 SWAP1 MSTORE PUSH1 0x64 ADD PUSH2 0x83D JUMP JUMPDEST PUSH20 0xFFFFFFFFFFFFFFFFFFFFFFFFFFFFFFFFFFFFFFFF DUP5 AND PUSH0 SWAP1 DUP2 MSTORE PUSH1 0x20 DUP2 SWAP1 MSTORE PUSH1 0x40 SWAP1 KECCAK256 SWAP1 DUP3 SWAP1 SUB SWAP1 SSTORE JUMPDEST PUSH20 0xFFFFFFFFFFFFFFFFFFFFFFFFFFFFFFFFFFFFFFFF DUP3 AND PUSH2 0x1F21 JUMPI PUSH1 0x2 DUP1 SLOAD DUP3 SWAP1 SUB SWAP1 SSTORE PUSH2 0x1F4C JUMP JUMPDEST PUSH20 0xFFFFFFFFFFFFFFFFFFFFFFFFFFFFFFFFFFFFFFFF DUP3 AND PUSH0 SWAP1 DUP2 MSTORE PUSH1 0x20 DUP2 SWAP1 MSTORE PUSH1 0x40 SWAP1 KECCAK256 DUP1 SLOAD DUP3 ADD SWAP1 SSTORE JUMPDEST DUP2 PUSH20 0xFFFFFFFFFFFFFFFFFFFFFFFFFFFFFFFFFFFFFFFF AND DUP4 PUSH20 0xFFFFFFFFFFFFFFFFFFFFFFFFFFFFFFFFFFFFFFFF AND PUSH32 0xDDF252AD1BE2C89B69C2B068FC378DAA952BA7F163C4A11628F55A4DF523B3EF DUP4 PUSH1 0x40 MLOAD PUSH2 0x1FAB SWAP2 DUP2 MSTORE PUSH1 0x20 ADD SWAP1 JUMP JUMPDEST PUSH1 0x40 MLOAD DUP1 SWAP2 SUB SWAP1 LOG3 POP POP POP JUMP JUMPDEST PUSH20 0xFFFFFFFFFFFFFFFFFFFFFFFFFFFFFFFFFFFFFFFF DUP4 AND PUSH2 0x1FE7 JUMPI PUSH2 0x1FE4 PUSH1 0xB PUSH2 0x1DC9 PUSH2 0x1778 DUP5 PUSH2 0x1D32 JUMP JUMPDEST POP POP JUMPDEST PUSH20 0xFFFFFFFFFFFFFFFFFFFFFFFFFFFFFFFFFFFFFFFF DUP3 AND PUSH2 0x2016 JUMPI PUSH2 0x2013 PUSH1 0xB PUSH2 0x1D27 PUSH2 0x1778 DUP5 PUSH2 0x1D32 JUMP JUMPDEST POP POP JUMPDEST PUSH20 0xFFFFFFFFFFFFFFFFFFFFFFFFFFFFFFFFFFFFFFFF DUP4 DUP2 AND PUSH0 SWAP1 DUP2 MSTORE PUSH1 0x9 PUSH1 0x20 MSTORE PUSH1 0x40 DUP1 DUP3 KECCAK256 SLOAD DUP6 DUP5 AND DUP4 MSTORE SWAP2 KECCAK256 SLOAD PUSH2 0xB25 SWAP3 SWAP2 DUP3 AND SWAP2 AND DUP4 PUSH2 0x16E6 JUMP JUMPDEST PUSH0 DUP1 PUSH2 0x1DBC DUP6 DUP6 DUP6 PUSH2 0x20A1 JUMP JUMPDEST PUSH0 PUSH1 0xFF DUP3 AND PUSH1 0x1F DUP2 GT ISZERO PUSH2 0x591 JUMPI PUSH1 0x40 MLOAD PUSH32 0xB3512B0C00000000000000000000000000000000000000000000000000000000 DUP2 MSTORE PUSH1 0x4 ADD PUSH1 0x40 MLOAD DUP1 SWAP2 SUB SWAP1 REVERT JUMPDEST DUP3 SLOAD PUSH0 SWAP1 DUP2 SWAP1 DUP1 ISZERO PUSH2 0x21F2 JUMPI PUSH0 PUSH2 0x20BD DUP8 PUSH2 0xEBE PUSH1 0x1 DUP6 PUSH2 0x25EF JUMP JUMPDEST DUP1 SLOAD SWAP1 SWAP2 POP PUSH6 0xFFFFFFFFFFFF DUP1 DUP3 AND SWAP2 PUSH7 0x1000000000000 SWAP1 DIV PUSH26 0xFFFFFFFFFFFFFFFFFFFFFFFFFFFFFFFFFFFFFFFFFFFFFFFFFFFF AND SWAP1 DUP9 AND DUP3 GT ISZERO PUSH2 0x212F JUMPI PUSH1 0x40 MLOAD PUSH32 0x2520601D00000000000000000000000000000000000000000000000000000000 DUP2 MSTORE PUSH1 0x4 ADD PUSH1 0x40 MLOAD DUP1 SWAP2 SUB SWAP1 REVERT JUMPDEST DUP8 PUSH6 0xFFFFFFFFFFFF AND DUP3 PUSH6 0xFFFFFFFFFFFF AND SUB PUSH2 0x217E JUMPI DUP3 SLOAD PUSH6 0xFFFFFFFFFFFF AND PUSH7 0x1000000000000 PUSH26 0xFFFFFFFFFFFFFFFFFFFFFFFFFFFFFFFFFFFFFFFFFFFFFFFFFFFF DUP10 AND MUL OR DUP4 SSTORE PUSH2 0x21E4 JUMP JUMPDEST PUSH1 0x40 DUP1 MLOAD DUP1 DUP3 ADD SWAP1 SWAP2 MSTORE PUSH6 0xFFFFFFFFFFFF DUP1 DUP11 AND DUP3 MSTORE PUSH26 0xFFFFFFFFFFFFFFFFFFFFFFFFFFFFFFFFFFFFFFFFFFFFFFFFFFFF DUP1 DUP11 AND PUSH1 0x20 DUP1 DUP6 ADD SWAP2 DUP3 MSTORE DUP14 SLOAD PUSH1 0x1 DUP2 ADD DUP16 SSTORE PUSH0 DUP16 DUP2 MSTORE SWAP2 SWAP1 SWAP2 KECCAK256 SWAP5 MLOAD SWAP2 MLOAD SWAP1 SWAP3 AND PUSH7 0x1000000000000 MUL SWAP3 AND SWAP2 SWAP1 SWAP2 OR SWAP2 ADD SSTORE JUMPDEST SWAP5 POP DUP6 SWAP4 POP PUSH2 0x1DC1 SWAP3 POP POP POP JUMP JUMPDEST POP POP PUSH1 0x40 DUP1 MLOAD DUP1 DUP3 ADD SWAP1 SWAP2 MSTORE PUSH6 0xFFFFFFFFFFFF DUP1 DUP6 AND DUP3 MSTORE PUSH26 0xFFFFFFFFFFFFFFFFFFFFFFFFFFFFFFFFFFFFFFFFFFFFFFFFFFFF DUP1 DUP6 AND PUSH1 0x20 DUP1 DUP6 ADD SWAP2 DUP3 MSTORE DUP9 SLOAD PUSH1 0x1 DUP2 ADD DUP11 SSTORE PUSH0 DUP11 DUP2 MSTORE SWAP2 DUP3 KECCAK256 SWAP6 MLOAD SWAP3 MLOAD SWAP1 SWAP4 AND PUSH7 0x1000000000000 MUL SWAP2 SWAP1 SWAP4 AND OR SWAP3 ADD SWAP2 SWAP1 SWAP2 SSTORE SWAP1 POP DUP2 PUSH2 0x1DC1 JUMP JUMPDEST PUSH0 DUP2 MLOAD DUP1 DUP5 MSTORE DUP1 PUSH1 0x20 DUP5 ADD PUSH1 0x20 DUP7 ADD MCOPY PUSH0 PUSH1 0x20 DUP3 DUP7 ADD ADD MSTORE PUSH1 0x20 PUSH32 0xFFFFFFFFFFFFFFFFFFFFFFFFFFFFFFFFFFFFFFFFFFFFFFFFFFFFFFFFFFFFFFE0 PUSH1 0x1F DUP4 ADD AND DUP6 ADD ADD SWAP2 POP POP SWAP3 SWAP2 POP POP JUMP JUMPDEST PUSH1 0x20 DUP2 MSTORE PUSH0 PUSH2 0xAB1 PUSH1 0x20 DUP4 ADD DUP5 PUSH2 0x2262 JUMP JUMPDEST DUP1 CALLDATALOAD PUSH20 0xFFFFFFFFFFFFFFFFFFFFFFFFFFFFFFFFFFFFFFFF DUP2 AND DUP2 EQ PUSH2 0x22E3 JUMPI PUSH0 PUSH0 REVERT JUMPDEST SWAP2 SWAP1 POP JUMP JUMPDEST PUSH0 PUSH0 PUSH1 0x40 DUP4 DUP6 SUB SLT ISZERO PUSH2 0x22F9 JUMPI PUSH0 PUSH0 REVERT JUMPDEST PUSH2 0x2302 DUP4 PUSH2 0x22C0 JUMP JUMPDEST SWAP5 PUSH1 0x20 SWAP4 SWAP1 SWAP4 ADD CALLDATALOAD SWAP4 POP POP POP JUMP JUMPDEST PUSH0 PUSH0 PUSH0 PUSH1 0x60 DUP5 DUP7 SUB SLT ISZERO PUSH2 0x2322 JUMPI PUSH0 PUSH0 REVERT JUMPDEST PUSH2 0x232B DUP5 PUSH2 0x22C0 JUMP JUMPDEST SWAP3 POP PUSH2 0x2339 PUSH1 0x20 DUP6 ADD PUSH2 0x22C0 JUMP JUMPDEST SWAP3 SWAP6 SWAP3 SWAP5 POP POP POP PUSH1 0x40 SWAP2 SWAP1 SWAP2 ADD CALLDATALOAD SWAP1 JUMP JUMPDEST PUSH0 PUSH1 0x20 DUP3 DUP5 SUB SLT ISZERO PUSH2 0x235A JUMPI PUSH0 PUSH0 REVERT JUMPDEST POP CALLDATALOAD SWAP2 SWAP1 POP JUMP JUMPDEST PUSH0 PUSH1 0x20 DUP3 DUP5 SUB SLT ISZERO PUSH2 0x2371 JUMPI PUSH0 PUSH0 REVERT JUMPDEST PUSH2 0xAB1 DUP3 PUSH2 0x22C0 JUMP JUMPDEST PUSH32 0xFF00000000000000000000000000000000000000000000000000000000000000 DUP9 AND DUP2 MSTORE PUSH1 0xE0 PUSH1 0x20 DUP3 ADD MSTORE PUSH0 PUSH2 0x23B4 PUSH1 0xE0 DUP4 ADD DUP10 PUSH2 0x2262 JUMP JUMPDEST DUP3 DUP2 SUB PUSH1 0x40 DUP5 ADD MSTORE PUSH2 0x23C6 DUP2 DUP10 PUSH2 0x2262 JUMP JUMPDEST PUSH1 0x60 DUP5 ADD DUP9 SWAP1 MSTORE PUSH20 0xFFFFFFFFFFFFFFFFFFFFFFFFFFFFFFFFFFFFFFFF DUP8 AND PUSH1 0x80 DUP6 ADD MSTORE PUSH1 0xA0 DUP5 ADD DUP7 SWAP1 MSTORE DUP4 DUP2 SUB PUSH1 0xC0 DUP6 ADD MSTORE DUP5 MLOAD DUP1 DUP3 MSTORE PUSH1 0x20 DUP1 DUP8 ADD SWAP4 POP SWAP1 SWAP2 ADD SWAP1 PUSH0 JUMPDEST DUP2 DUP2 LT ISZERO PUSH2 0x2428 JUMPI DUP4 MLOAD DUP4 MSTORE PUSH1 0x20 SWAP4 DUP5 ADD SWAP4 SWAP1 SWAP3 ADD SWAP2 PUSH1 0x1 ADD PUSH2 0x240A JUMP JUMPDEST POP SWAP1 SWAP12 SWAP11 POP POP POP POP POP POP POP POP POP POP POP JUMP JUMPDEST DUP1 CALLDATALOAD PUSH1 0xFF DUP2 AND DUP2 EQ PUSH2 0x22E3 JUMPI PUSH0 PUSH0 REVERT JUMPDEST PUSH0 PUSH0 PUSH0 PUSH0 PUSH0 PUSH0 PUSH1 0xC0 DUP8 DUP10 SUB SLT ISZERO PUSH2 0x245E JUMPI PUSH0 PUSH0 REVERT JUMPDEST PUSH2 0x2467 DUP8 PUSH2 0x22C0 JUMP JUMPDEST SWAP6 POP PUSH1 0x20 DUP8 ADD CALLDATALOAD SWAP5 POP PUSH1 0x40 DUP8 ADD CALLDATALOAD SWAP4 POP PUSH2 0x2483 PUSH1 0x60 DUP9 ADD PUSH2 0x2439 JUMP JUMPDEST SWAP6 SWAP9 SWAP5 SWAP8 POP SWAP3 SWAP6 PUSH1 0x80 DUP2 ADD CALLDATALOAD SWAP5 PUSH1 0xA0 SWAP1 SWAP2 ADD CALLDATALOAD SWAP4 POP SWAP2 POP POP JUMP JUMPDEST PUSH0 PUSH0 PUSH0 PUSH0 PUSH0 PUSH0 PUSH0 PUSH1 0xE0 DUP9 DUP11 SUB SLT ISZERO PUSH2 0x24B3 JUMPI PUSH0 PUSH0 REVERT JUMPDEST PUSH2 0x24BC DUP9 PUSH2 0x22C0 JUMP JUMPDEST SWAP7 POP PUSH2 0x24CA PUSH1 0x20 DUP10 ADD PUSH2 0x22C0 JUMP JUMPDEST SWAP6 POP PUSH1 0x40 DUP9 ADD CALLDATALOAD SWAP5 POP PUSH1 0x60 DUP9 ADD CALLDATALOAD SWAP4 POP PUSH2 0x24E6 PUSH1 0x80 DUP10 ADD PUSH2 0x2439 JUMP JUMPDEST SWAP7 SWAP10 SWAP6 SWAP9 POP SWAP4 SWAP7 SWAP3 SWAP6 SWAP5 PUSH1 0xA0 DUP5 ADD CALLDATALOAD SWAP5 POP PUSH1 0xC0 SWAP1 SWAP4 ADD CALLDATALOAD SWAP3 SWAP2 POP POP JUMP JUMPDEST PUSH0 PUSH0 PUSH1 0x40 DUP4 DUP6 SUB SLT ISZERO PUSH2 0x2514 JUMPI PUSH0 PUSH0 REVERT JUMPDEST PUSH2 0x251D DUP4 PUSH2 0x22C0 JUMP JUMPDEST SWAP2 POP PUSH2 0x252B PUSH1 0x20 DUP5 ADD PUSH2 0x22C0 JUMP JUMPDEST SWAP1 POP SWAP3 POP SWAP3 SWAP1 POP JUMP JUMPDEST PUSH0 PUSH0 PUSH1 0x40 DUP4 DUP6 SUB SLT ISZERO PUSH2 0x2545 JUMPI PUSH0 PUSH0 REVERT JUMPDEST PUSH2 0x254E DUP4 PUSH2 0x22C0 JUMP JUMPDEST SWAP2 POP PUSH1 0x20 DUP4 ADD CALLDATALOAD PUSH4 0xFFFFFFFF DUP2 AND DUP2 EQ PUSH2 0x2566 JUMPI PUSH0 PUSH0 REVERT JUMPDEST DUP1 SWAP2 POP POP SWAP3 POP SWAP3 SWAP1 POP JUMP JUMPDEST PUSH1 0x1 DUP2 DUP2 SHR SWAP1 DUP3 AND DUP1 PUSH2 0x2585 JUMPI PUSH1 0x7F DUP3 AND SWAP2 POP JUMPDEST PUSH1 0x20 DUP3 LT DUP2 SUB PUSH2 0x25BC JUMPI PUSH32 0x4E487B7100000000000000000000000000000000000000000000000000000000 PUSH0 MSTORE PUSH1 0x22 PUSH1 0x4 MSTORE PUSH1 0x24 PUSH0 REVERT JUMPDEST POP SWAP2 SWAP1 POP JUMP JUMPDEST PUSH32 0x4E487B7100000000000000000000000000000000000000000000000000000000 PUSH0 MSTORE PUSH1 0x11 PUSH1 0x4 MSTORE PUSH1 0x24 PUSH0 REVERT JUMPDEST DUP2 DUP2 SUB DUP2 DUP2 GT ISZERO PUSH2 0x591 JUMPI PUSH2 0x591 PUSH2 0x25C2 JUMP JUMPDEST DUP1 DUP3 ADD DUP1 DUP3 GT ISZERO PUSH2 0x591 JUMPI PUSH2 0x591 PUSH2 0x25C2 JUMP JUMPDEST PUSH32 0x4E487B7100000000000000000000000000000000000000000000000000000000 PUSH0 MSTORE PUSH1 0x12 PUSH1 0x4 MSTORE PUSH1 0x24 PUSH0 REVERT JUMPDEST PUSH32 0x4E487B7100000000000000000000000000000000000000000000000000000000 PUSH0 MSTORE PUSH1 0x21 PUSH1 0x4 MSTORE PUSH1 0x24 PUSH0 REVERT JUMPDEST PUSH32 0x4E487B7100000000000000000000000000000000000000000000000000000000 PUSH0 MSTORE PUSH1 0x32 PUSH1 0x4 MSTORE PUSH1 0x24 PUSH0 REVERT JUMPDEST PUSH0 DUP3 PUSH2 0x26CF JUMPI PUSH32 0x4E487B7100000000000000000000000000000000000000000000000000000000 PUSH0 MSTORE PUSH1 0x12 PUSH1 0x4 MSTORE PUSH1 0x24 PUSH0 REVERT JUMPDEST POP DIV SWAP1 JUMP JUMPDEST PUSH26 0xFFFFFFFFFFFFFFFFFFFFFFFFFFFFFFFFFFFFFFFFFFFFFFFFFFFF DUP3 DUP2 AND DUP3 DUP3 AND SUB SWAP1 DUP2 GT ISZERO PUSH2 0x591 JUMPI PUSH2 0x591 PUSH2 0x25C2 JUMP JUMPDEST PUSH26 0xFFFFFFFFFFFFFFFFFFFFFFFFFFFFFFFFFFFFFFFFFFFFFFFFFFFF DUP2 DUP2 AND DUP4 DUP3 AND ADD SWAP1 DUP2 GT ISZERO PUSH2 0x591 JUMPI PUSH2 0x591 PUSH2 0x25C2 JUMP INVALID LOG2 PUSH5 0x6970667358 0x22 SLT KECCAK256 PUSH7 0x39385BAA4EDBB4 PUSH0 0x21 MLOAD 0xE7 EQ SWAP5 PUSH22 0x709CA7D341922E59B1F66B3472AD009FD364736F6C63 NUMBER STOP ADDMOD SHR STOP CALLER "},"methodIdentifiers":{"CLOCK_MODE()":"4bf5d7e9","DOMAIN_SEPARATOR()":"3644e515","allowance(address,address)":"dd62ed3e","approve(address,uint256)":"095ea7b3","balanceOf(address)":"70a08231","burn(uint256)":"42966c68","burnFrom(address,uint256)":"79cc6790","checkpoints(address,uint32)":"f1127ed8","clock()":"91ddadf4","decimals()":"313ce567","delegate(address)":"5c19a95c","delegateBySig(address,uint256,uint256,uint8,bytes32,bytes32)":"c3cda520","delegates(address)":"587cde1e","eip712Domain()":"84b0196e","getPastTotalSupply(uint256)":"8e539e8c","getPastVotes(address,uint256)":"3a46b1a8","getVotes(address)":"9ab24eb0","mint(address,uint256)":"40c10f19","name()":"06fdde03","nonces(address)":"7ecebe00","numCheckpoints(address)":"6fcfff45","owner()":"8da5cb5b","permit(address,address,uint256,uint256,uint8,bytes32,bytes32)":"d505accf","renounceOwnership()":"715018a6","symbol()":"95d89b41","totalSupply()":"18160ddd","transfer(address,uint256)":"a9059cbb","transferFrom(address,address,uint256)":"23b872dd","transferOwnership(address)":"f2fde38b"}}}}}