{
  "_format": "hh-sol-artifact-1",
  "contractName": "CampaignFactory",
  "sourceName": "contracts/CampaignFactory.sol",
  "abi": [
    {
      "inputs": [],
      "stateMutability": "nonpayable",
      "type": "constructor"
    },
    {
      "inputs": [],
      "name": "FailedDeployment",
      "type": "error"
    },
    {
      "inputs": [
        {
          "internalType": "uint256",
          "name": "balance",
          "type": "uint256"
        },
        {
          "internalType": "uint256",
          "name": "needed",
          "type": "uint256"
        }
      ],
      "name": "InsufficientBalance",
      "type": "error"
    },
    {
      "anonymous": false,
      "inputs": [
        {
          "indexed": true,
          "internalType": "address",
          "name": "campaign",
          "type": "address"
        },
        {
          "indexed": true,
          "internalType": "address",
          "name": "creator",
          "type": "address"
        },
        {
          "indexed": false,
          "internalType": "string",
          "name": "name",
          "type": "string"
        },
        {
          "indexed": false,
          "internalType": "uint256",
          "name": "goal",
          "type": "uint256"
        },
        {
          "indexed": false,
          "internalType": "uint256",
          "name": "deadline",
          "type": "uint256"
        }
      ],
      "name": "CampaignCreated",
      "type": "event"
    },
    {
      "inputs": [
        {
          "internalType": "uint256",
          "name": "",
          "type": "uint256"
        }
      ],
      "name": "campaigns",
      "outputs": [
        {
          "internalType": "address",
          "name": "",
          "type": "address"
        }
      ],
      "stateMutability": "view",
      "type": "function"
    },
    {
      "inputs": [
        {
          "internalType": "string",
          "name": "_name",
          "type": "string"
        },
        {
          "internalType": "string",
          "name": "_description",
          "type": "string"
        },
        {
          "internalType": "uint256",
          "name": "_goal",
          "type": "uint256"
        },
        {
          "internalType": "uint256",
          "name": "_durationDays",
          "type": "uint256"
        },
        {
          "internalType": "address",
          "name": "_beneficiary",
          "type": "address"
        }
      ],
      "name": "createCampaign",
      "outputs": [
        {
          "internalType": "address",
          "name": "",
          "type": "address"
        }
      ],
      "stateMutability": "nonpayable",
      "type": "function"
    },
    {
      "inputs": [],
      "name": "getAllCampaignDetails",
      "outputs": [
        {
          "internalType": "address[]",
          "name": "campaignAddresses",
          "type": "address[]"
        },
        {
          "internalType": "string[]",
          "name": "names",
          "type": "string[]"
        },
        {
          "internalType": "string[]",
          "name": "descriptions",
          "type": "string[]"
        },
        {
          "internalType": "uint256[]",
          "name": "goals",
          "type": "uint256[]"
        },
        {
          "internalType": "uint256[]",
          "name": "deadlines",
          "type": "uint256[]"
        },
        {
          "internalType": "address[]",
          "name": "beneficiaries",
          "type": "address[]"
        },
        {
          "internalType": "address[]",
          "name": "creators",
          "type": "address[]"
        },
        {
          "internalType": "uint256[]",
          "name": "totalFunded",
          "type": "uint256[]"
        },
        {
          "internalType": "bool[]",
          "name": "actives",
          "type": "bool[]"
        }
      ],
      "stateMutability": "view",
      "type": "function"
    },
    {
      "inputs": [],
      "name": "getAllCampaigns",
      "outputs": [
        {
          "internalType": "address[]",
          "name": "",
          "type": "address[]"
        }
      ],
      "stateMutability": "view",
      "type": "function"
    },
    {
      "inputs": [
        {
          "internalType": "uint256",
          "name": "index",
          "type": "uint256"
        }
      ],
      "name": "getCampaign",
      "outputs": [
        {
          "internalType": "address",
          "name": "campaignAddress",
          "type": "address"
        },
        {
          "internalType": "string",
          "name": "name",
          "type": "string"
        },
        {
          "internalType": "string",
          "name": "description",
          "type": "string"
        },
        {
          "internalType": "uint256",
          "name": "goal",
          "type": "uint256"
        },
        {
          "internalType": "uint256",
          "name": "deadline",
          "type": "uint256"
        },
        {
          "internalType": "address",
          "name": "beneficiary",
          "type": "address"
        },
        {
          "internalType": "address",
          "name": "creator",
          "type": "address"
        },
        {
          "internalType": "uint256",
          "name": "totalFunded",
          "type": "uint256"
        },
        {
          "internalType": "bool",
          "name": "isActive",
          "type": "bool"
        }
      ],
      "stateMutability": "view",
      "type": "function"
    },
    {
      "inputs": [],
      "name": "implementation",
      "outputs": [
        {
          "internalType": "address",
          "name": "",
          "type": "address"
        }
      ],
      "stateMutability": "view",
      "type": "function"
    },
    {
      "inputs": [],
      "name": "owner",
      "outputs": [
        {
          "internalType": "address",
          "name": "",
          "type": "address"
        }
      ],
      "stateMutability": "view",
      "type": "function"
    }
  ],
  "bytecode": "0x60a0604052348015600e575f5ffd5b506040516019906053565b604051809103905ff0801580156031573d5f5f3e3d5ffd5b506001600160a01b03166080525f80546001600160a01b031916331790556060565b6115bb806118e083390190565b60805161186261007e5f395f818160fb01526101fc01526118625ff3fe608060405234801561000f575f5ffd5b506004361061007a575f3560e01c80635c60da1b116100585780635c60da1b146100f657806386cdf6041461011d5780638da5cb5b1461013257806395a41fe214610151575f5ffd5b8063141961bc1461007e5780632bfec047146100bb5780635598f8cc146100ce575b5f5ffd5b61009161008c36600461119a565b61016e565b60405173ffffffffffffffffffffffffffffffffffffffff90911681526020015b60405180910390f35b6100916100c93660046112e8565b6101a3565b6100e16100dc36600461119a565b61037d565b6040516100b2999897969594939291906113bf565b6100917f000000000000000000000000000000000000000000000000000000000000000081565b610125610804565b6040516100b291906114b5565b5f546100919073ffffffffffffffffffffffffffffffffffffffff1681565b610159610871565b6040516100b29998979695949392919061156f565b6001818154811061017d575f80fd5b5f9182526020909120015473ffffffffffffffffffffffffffffffffffffffff16905081565b6040517fffffffffffffffffffffffffffffffffffffffff0000000000000000000000003360601b1660208201524260348201525f9081906054016040516020818303038152906040528051906020012090505f6102217f0000000000000000000000000000000000000000000000000000000000000000836110aa565b6040517f767ab12200000000000000000000000000000000000000000000000000000000815290915073ffffffffffffffffffffffffffffffffffffffff82169063767ab12290610280908b908b908b908b908b90339060040161165e565b5f604051808303815f87803b158015610297575f5ffd5b505af11580156102a9573d5f5f3e3d5ffd5b50506001805480820182555f919091527fb10e2d527612073b26eecdfd717e6a320cf44b4afac2b0732d9fcbe2b7fa0cf60180547fffffffffffffffffffffffff00000000000000000000000000000000000000001673ffffffffffffffffffffffffffffffffffffffff851690811790915533925090507f810c1f0481c76c27bfb99d47b443b405e6f4d247fb07302759cb36d58742d07f8a896103518a620151806116eb565b61035b9042611702565b60405161036a93929190611715565b60405180910390a3979650505050505050565b5f6060805f5f5f5f5f5f6001805490508a106103fa576040517f08c379a000000000000000000000000000000000000000000000000000000000815260206004820152600d60248201527f496e76616c696420696e6465780000000000000000000000000000000000000060448201526064015b60405180910390fd5b5f60018b8154811061040e5761040e611739565b5f918252602082200154604080517f06fdde03000000000000000000000000000000000000000000000000000000008152905173ffffffffffffffffffffffffffffffffffffffff9092169350839283926306fdde039260048082019392918290030181865afa158015610484573d5f5f3e3d5ffd5b505050506040513d5f823e601f3d9081017fffffffffffffffffffffffffffffffffffffffffffffffffffffffffffffffe01682016040526104c99190810190611766565b8273ffffffffffffffffffffffffffffffffffffffff16637284e4166040518163ffffffff1660e01b81526004015f60405180830381865afa158015610511573d5f5f3e3d5ffd5b505050506040513d5f823e601f3d9081017fffffffffffffffffffffffffffffffffffffffffffffffffffffffffffffffe01682016040526105569190810190611766565b8373ffffffffffffffffffffffffffffffffffffffff1663401938836040518163ffffffff1660e01b8152600401602060405180830381865afa15801561059f573d5f5f3e3d5ffd5b505050506040513d601f19601f820116820180604052508101906105c391906117db565b8473ffffffffffffffffffffffffffffffffffffffff166329dcb0cf6040518163ffffffff1660e01b8152600401602060405180830381865afa15801561060c573d5f5f3e3d5ffd5b505050506040513d601f19601f8201168201806040525081019061063091906117db565b8573ffffffffffffffffffffffffffffffffffffffff166338af3eed6040518163ffffffff1660e01b8152600401602060405180830381865afa158015610679573d5f5f3e3d5ffd5b505050506040513d601f19601f8201168201806040525081019061069d91906117f2565b8673ffffffffffffffffffffffffffffffffffffffff166302d05d3f6040518163ffffffff1660e01b8152600401602060405180830381865afa1580156106e6573d5f5f3e3d5ffd5b505050506040513d601f19601f8201168201806040525081019061070a91906117f2565b8773ffffffffffffffffffffffffffffffffffffffff1663ad044f496040518163ffffffff1660e01b8152600401602060405180830381865afa158015610753573d5f5f3e3d5ffd5b505050506040513d601f19601f8201168201806040525081019061077791906117db565b8873ffffffffffffffffffffffffffffffffffffffff166322f3e2d46040518163ffffffff1660e01b8152600401602060405180830381865afa1580156107c0573d5f5f3e3d5ffd5b505050506040513d601f19601f820116820180604052508101906107e4919061180d565b995099509950995099509950995099509950509193959799909294969850565b6060600180548060200260200160405190810160405280929190818152602001828054801561086757602002820191905f5260205f20905b815473ffffffffffffffffffffffffffffffffffffffff16815260019091019060200180831161083c575b5050505050905090565b60608060608060608060608060605f60018054905090508067ffffffffffffffff8111156108a1576108a16111b1565b6040519080825280602002602001820160405280156108ca578160200160208202803683370190505b5099508067ffffffffffffffff8111156108e6576108e66111b1565b60405190808252806020026020018201604052801561091957816020015b60608152602001906001900390816109045790505b5098508067ffffffffffffffff811115610935576109356111b1565b60405190808252806020026020018201604052801561096857816020015b60608152602001906001900390816109535790505b5097508067ffffffffffffffff811115610984576109846111b1565b6040519080825280602002602001820160405280156109ad578160200160208202803683370190505b5096508067ffffffffffffffff8111156109c9576109c96111b1565b6040519080825280602002602001820160405280156109f2578160200160208202803683370190505b5095508067ffffffffffffffff811115610a0e57610a0e6111b1565b604051908082528060200260200182016040528015610a37578160200160208202803683370190505b5094508067ffffffffffffffff811115610a5357610a536111b1565b604051908082528060200260200182016040528015610a7c578160200160208202803683370190505b5093508067ffffffffffffffff811115610a9857610a986111b1565b604051908082528060200260200182016040528015610ac1578160200160208202803683370190505b5092508067ffffffffffffffff811115610add57610add6111b1565b604051908082528060200260200182016040528015610b06578160200160208202803683370190505b5091505f5b8181101561109d575f60018281548110610b2757610b27611739565b905f5260205f20015f9054906101000a900473ffffffffffffffffffffffffffffffffffffffff169050808c8381518110610b6457610b64611739565b602002602001019073ffffffffffffffffffffffffffffffffffffffff16908173ffffffffffffffffffffffffffffffffffffffff16815250508073ffffffffffffffffffffffffffffffffffffffff166306fdde036040518163ffffffff1660e01b81526004015f60405180830381865afa158015610be6573d5f5f3e3d5ffd5b505050506040513d5f823e601f3d9081017fffffffffffffffffffffffffffffffffffffffffffffffffffffffffffffffe0168201604052610c2b9190810190611766565b8b8381518110610c3d57610c3d611739565b60200260200101819052508073ffffffffffffffffffffffffffffffffffffffff16637284e4166040518163ffffffff1660e01b81526004015f60405180830381865afa158015610c90573d5f5f3e3d5ffd5b505050506040513d5f823e601f3d9081017fffffffffffffffffffffffffffffffffffffffffffffffffffffffffffffffe0168201604052610cd59190810190611766565b8a8381518110610ce757610ce7611739565b60200260200101819052508073ffffffffffffffffffffffffffffffffffffffff1663401938836040518163ffffffff1660e01b8152600401602060405180830381865afa158015610d3b573d5f5f3e3d5ffd5b505050506040513d601f19601f82011682018060405250810190610d5f91906117db565b898381518110610d7157610d71611739565b6020026020010181815250508073ffffffffffffffffffffffffffffffffffffffff166329dcb0cf6040518163ffffffff1660e01b8152600401602060405180830381865afa158015610dc6573d5f5f3e3d5ffd5b505050506040513d601f19601f82011682018060405250810190610dea91906117db565b888381518110610dfc57610dfc611739565b6020026020010181815250508073ffffffffffffffffffffffffffffffffffffffff166338af3eed6040518163ffffffff1660e01b8152600401602060405180830381865afa158015610e51573d5f5f3e3d5ffd5b505050506040513d601f19601f82011682018060405250810190610e7591906117f2565b878381518110610e8757610e87611739565b602002602001019073ffffffffffffffffffffffffffffffffffffffff16908173ffffffffffffffffffffffffffffffffffffffff16815250508073ffffffffffffffffffffffffffffffffffffffff166302d05d3f6040518163ffffffff1660e01b8152600401602060405180830381865afa158015610f0a573d5f5f3e3d5ffd5b505050506040513d601f19601f82011682018060405250810190610f2e91906117f2565b868381518110610f4057610f40611739565b602002602001019073ffffffffffffffffffffffffffffffffffffffff16908173ffffffffffffffffffffffffffffffffffffffff16815250508073ffffffffffffffffffffffffffffffffffffffff1663ad044f496040518163ffffffff1660e01b8152600401602060405180830381865afa158015610fc3573d5f5f3e3d5ffd5b505050506040513d601f19601f82011682018060405250810190610fe791906117db565b858381518110610ff957610ff9611739565b6020026020010181815250508073ffffffffffffffffffffffffffffffffffffffff166322f3e2d46040518163ffffffff1660e01b8152600401602060405180830381865afa15801561104e573d5f5f3e3d5ffd5b505050506040513d601f19601f82011682018060405250810190611072919061180d565b84838151811061108457611084611739565b9115156020928302919091019091015250600101610b0b565b5050909192939495969798565b5f6110b683835f6110bf565b90505b92915050565b5f81471015611103576040517fcf479181000000000000000000000000000000000000000000000000000000008152476004820152602481018390526044016103f1565b763d602d80600a3d3981f3363d3d373d3d3d363d730000008460601b60e81c175f526e5af43d82803e903d91602b57fd5bf38460781b17602052826037600984f5905073ffffffffffffffffffffffffffffffffffffffff8116611193576040517fb06ebf3d00000000000000000000000000000000000000000000000000000000815260040160405180910390fd5b9392505050565b5f602082840312156111aa575f5ffd5b5035919050565b7f4e487b71000000000000000000000000000000000000000000000000000000005f52604160045260245ffd5b604051601f82017fffffffffffffffffffffffffffffffffffffffffffffffffffffffffffffffe016810167ffffffffffffffff81118282101715611225576112256111b1565b604052919050565b5f67ffffffffffffffff821115611246576112466111b1565b50601f017fffffffffffffffffffffffffffffffffffffffffffffffffffffffffffffffe01660200190565b5f82601f830112611281575f5ffd5b813561129461128f8261122d565b6111de565b8181528460208386010111156112a8575f5ffd5b816020850160208301375f918101602001919091529392505050565b73ffffffffffffffffffffffffffffffffffffffff811681146112e5575f5ffd5b50565b5f5f5f5f5f60a086880312156112fc575f5ffd5b853567ffffffffffffffff811115611312575f5ffd5b61131e88828901611272565b955050602086013567ffffffffffffffff81111561133a575f5ffd5b61134688828901611272565b94505060408601359250606086013591506080860135611365816112c4565b809150509295509295909350565b5f81518084528060208401602086015e5f6020828601015260207fffffffffffffffffffffffffffffffffffffffffffffffffffffffffffffffe0601f83011685010191505092915050565b73ffffffffffffffffffffffffffffffffffffffff8a16815261012060208201525f6113ef61012083018b611373565b8281036040840152611401818b611373565b91505087606083015286608083015273ffffffffffffffffffffffffffffffffffffffff861660a083015273ffffffffffffffffffffffffffffffffffffffff851660c08301528360e08301528215156101008301529a9950505050505050505050565b5f8151808452602084019350602083015f5b828110156114ab57815173ffffffffffffffffffffffffffffffffffffffff16865260209586019590910190600101611477565b5093949350505050565b602081525f6110b66020830184611465565b5f82825180855260208501945060208160051b830101602085015f5b83811015611533577fffffffffffffffffffffffffffffffffffffffffffffffffffffffffffffffe085840301885261151d838351611373565b60209889019890935091909101906001016114e3565b50909695505050505050565b5f8151808452602084019350602083015f5b828110156114ab578151865260209586019590910190600101611551565b61012081525f61158361012083018c611465565b8281036020840152611595818c6114c7565b905082810360408401526115a9818b6114c7565b905082810360608401526115bd818a61153f565b905082810360808401526115d1818961153f565b905082810360a08401526115e58188611465565b905082810360c08401526115f98187611465565b905082810360e084015261160d818661153f565b838103610100850152845180825260208087019350909101905f90815b8181101561164a578451151584526020948501949093019260010161162a565b50919e9d5050505050505050505050505050565b60c081525f61167060c0830189611373565b82810360208401526116828189611373565b60408401979097525050606081019390935273ffffffffffffffffffffffffffffffffffffffff91821660808401521660a09091015292915050565b7f4e487b71000000000000000000000000000000000000000000000000000000005f52601160045260245ffd5b80820281158282048414176110b9576110b96116be565b808201808211156110b9576110b96116be565b606081525f6117276060830186611373565b60208301949094525060400152919050565b7f4e487b71000000000000000000000000000000000000000000000000000000005f52603260045260245ffd5b5f60208284031215611776575f5ffd5b815167ffffffffffffffff81111561178c575f5ffd5b8201601f8101841361179c575f5ffd5b80516117aa61128f8261122d565b8181528560208385010111156117be575f5ffd5b8160208401602083015e5f91810160200191909152949350505050565b5f602082840312156117eb575f5ffd5b5051919050565b5f60208284031215611802575f5ffd5b8151611193816112c4565b5f6020828403121561181d575f5ffd5b81518015158114611193575f5ffdfea2646970667358221220781fd9d5b917c3d7de951bc029bd17766c7d58aaa24a87e3f7cb903bcb4d0ee664736f6c634300081c00336080604052348015600e575f5ffd5b503380603357604051631e4fbdf760e01b81525f600482015260240160405180910390fd5b603a816043565b50600180556092565b5f80546001600160a01b038381166001600160a01b0319831681178455604051919092169283917f8be0079c531659141344cd1fd0a4f28419497f9722a3daafe3b4186f6b6457e09190a35050565b61151c8061009f5f395ff3fe60806040526004361061015a575f3560e01c8063715018a6116100bb578063ad044f4911610071578063c19d93fb11610057578063c19d93fb14610379578063ce7460241461039f578063f2fde38b146103b3575f5ffd5b8063ad044f491461035c578063b60d428814610371575f5ffd5b8063767ab122116100a1578063767ab122146102fb5780637d3d65221461031a5780638da5cb5b14610333575f5ffd5b8063715018a6146102d35780637284e416146102e7575f5ffd5b80633ccfd60b1161011057806342e94c90116100f657806342e94c90146102805780634bb278f3146102ab578063590e1ae3146102bf575f5ffd5b80633ccfd60b14610257578063401938831461026b575f5ffd5b806322f3e2d41161014057806322f3e2d4146101e457806329dcb0cf1461020857806338af3eed1461022b575f5ffd5b806302d05d3f1461016d57806306fdde03146101c3575f5ffd5b36610169576101676103d2565b005b5f5ffd5b348015610178575f5ffd5b506008546101999073ffffffffffffffffffffffffffffffffffffffff1681565b60405173ffffffffffffffffffffffffffffffffffffffff90911681526020015b60405180910390f35b3480156101ce575f5ffd5b506101d76105a5565b6040516101ba9190611049565b3480156101ef575f5ffd5b506101f8610631565b60405190151581526020016101ba565b348015610213575f5ffd5b5061021d60065481565b6040519081526020016101ba565b348015610236575f5ffd5b506007546101999073ffffffffffffffffffffffffffffffffffffffff1681565b348015610262575f5ffd5b5061016761065d565b348015610276575f5ffd5b5061021d60055481565b34801561028b575f5ffd5b5061021d61029a3660046110c4565b600a6020525f908152604090205481565b3480156102b6575f5ffd5b50610167610862565b3480156102ca575f5ffd5b5061016761093b565b3480156102de575f5ffd5b50610167610b32565b3480156102f2575f5ffd5b506101d7610b43565b348015610306575f5ffd5b506101676103153660046111d9565b610b50565b348015610325575f5ffd5b5060055460095410156101f8565b34801561033e575f5ffd5b505f5473ffffffffffffffffffffffffffffffffffffffff16610199565b348015610367575f5ffd5b5061021d60095481565b6101676103d2565b348015610384575f5ffd5b506002546103929060ff1681565b6040516101ba919061129c565b3480156103aa575f5ffd5b50610167610d74565b3480156103be575f5ffd5b506101676103cd3660046110c4565b610dba565b5f60025460ff1660038111156103ea576103ea61126f565b14610456576040517f08c379a000000000000000000000000000000000000000000000000000000000815260206004820152601360248201527f43616d706169676e206e6f74206163746976650000000000000000000000000060448201526064015b60405180910390fd5b60065442106104c1576040517f08c379a000000000000000000000000000000000000000000000000000000000815260206004820152600f60248201527f446561646c696e65207061737365640000000000000000000000000000000000604482015260640161044d565b335f908152600a6020526040812080543492906104df908490611308565b925050819055503460095f8282546104f79190611308565b90915550506040805134815242602082015233917fcd909ec339185c4598a4096e174308fbdf136d117f230960f873a2f2e81f63af910160405180910390a2600554600954106105a357600280547fffffffffffffffffffffffffffffffffffffffffffffffffffffffffffffff001660011790556009546040519081527ffbfd8ab7c24300fa9888cd721c8565a7da56759384781283684dcf7c7c4a846b9060200160405180910390a15b565b600380546105b29061131b565b80601f01602080910402602001604051908101604052809291908181526020018280546105de9061131b565b80156106295780601f1061060057610100808354040283529160200191610629565b820191905f5260205f20905b81548152906001019060200180831161060c57829003601f168201915b505050505081565b5f8060025460ff16600381111561064a5761064a61126f565b148015610658575060065442105b905090565b610665610e1d565b600160025460ff16600381111561067e5761067e61126f565b146106e5576040517f08c379a000000000000000000000000000000000000000000000000000000000815260206004820152601060248201527f476f616c206e6f74207265616368656400000000000000000000000000000000604482015260640161044d565b60075473ffffffffffffffffffffffffffffffffffffffff163314610766576040517f08c379a000000000000000000000000000000000000000000000000000000000815260206004820152600f60248201527f4e6f742062656e65666963696172790000000000000000000000000000000000604482015260640161044d565b600280547fffffffffffffffffffffffffffffffffffffffffffffffffffffffffffffff001660031790556007546040515f9173ffffffffffffffffffffffffffffffffffffffff169047908381818185875af1925050503d805f81146107e8576040519150601f19603f3d011682016040523d82523d5f602084013e6107ed565b606091505b5050905080610858576040517f08c379a000000000000000000000000000000000000000000000000000000000815260206004820152601260248201527f4661696c656420746f2073656e64204554480000000000000000000000000000604482015260640161044d565b506105a360018055565b61086a610e60565b6006544210156108d6576040517f08c379a000000000000000000000000000000000000000000000000000000000815260206004820152601560248201527f43616d706169676e207374696c6c206163746976650000000000000000000000604482015260640161044d565b600554600954101561090e57600280547fffffffffffffffffffffffffffffffffffffffffffffffffffffffffffffff001681179055565b600280547fffffffffffffffffffffffffffffffffffffffffffffffffffffffffffffff00166003179055565b610943610e1d565b60065442101580156109585750600554600954105b6109be576040517f08c379a000000000000000000000000000000000000000000000000000000000815260206004820152601360248201527f526566756e6473206e6f7420616c6c6f77656400000000000000000000000000604482015260640161044d565b335f908152600a602052604090205480610a34576040517f08c379a000000000000000000000000000000000000000000000000000000000815260206004820152600f60248201527f4e6f20636f6e747269627574696f6e0000000000000000000000000000000000604482015260640161044d565b335f818152600a60205260408082208290555190919083908381818185875af1925050503d805f8114610a82576040519150601f19603f3d011682016040523d82523d5f602084013e610a87565b606091505b5050905080610af2576040517f08c379a000000000000000000000000000000000000000000000000000000000815260206004820152601260248201527f4661696c656420746f2073656e64204554480000000000000000000000000000604482015260640161044d565b60405182815233907fd7dee2702d63ad89917b6a4da9981c90c4d24f8c2bdfd64c604ecae57d8d06519060200160405180910390a250506105a360018055565b610b3a610e60565b6105a35f610eb2565b600480546105b29061131b565b5f610b59610f26565b805490915060ff68010000000000000000820416159067ffffffffffffffff165f81158015610b855750825b90505f8267ffffffffffffffff166001148015610ba15750303b155b905081158015610baf575080155b15610be6576040517ff92ee8a900000000000000000000000000000000000000000000000000000000815260040160405180910390fd5b84547fffffffffffffffffffffffffffffffffffffffffffffffff00000000000000001660011785558315610c475784547fffffffffffffffffffffffffffffffffffffffffffffff00ffffffffffffffff16680100000000000000001785555b6003610c538c826113b8565b506004610c608b826113b8565b506005899055610c7388620151806114cf565b610c7d9042611308565b6006556007805473ffffffffffffffffffffffffffffffffffffffff8981167fffffffffffffffffffffffff0000000000000000000000000000000000000000928316179092556008805492891692909116919091179055600280547fffffffffffffffffffffffffffffffffffffffffffffffffffffffffffffff00169055610d0686610eb2565b8315610d675784547fffffffffffffffffffffffffffffffffffffffffffffff00ffffffffffffffff168555604051600181527fc7f505b2f371ae2175ee4913f4499e1f2633a7b5936321eed1cdaeb6115181d29060200160405180910390a15b5050505050505050505050565b610d7c610e60565b6105a347610d9e5f5473ffffffffffffffffffffffffffffffffffffffff1690565b73ffffffffffffffffffffffffffffffffffffffff1690610f50565b610dc2610e60565b73ffffffffffffffffffffffffffffffffffffffff8116610e11576040517f1e4fbdf70000000000000000000000000000000000000000000000000000000081525f600482015260240161044d565b610e1a81610eb2565b50565b600260015403610e59576040517f3ee5aeb500000000000000000000000000000000000000000000000000000000815260040160405180910390fd5b6002600155565b5f5473ffffffffffffffffffffffffffffffffffffffff1633146105a3576040517f118cdaa700000000000000000000000000000000000000000000000000000000815233600482015260240161044d565b5f805473ffffffffffffffffffffffffffffffffffffffff8381167fffffffffffffffffffffffff0000000000000000000000000000000000000000831681178455604051919092169283917f8be0079c531659141344cd1fd0a4f28419497f9722a3daafe3b4186f6b6457e09190a35050565b5f807ff0c57e16840df040f15088dc2f81fe391c3923bec73e23a9662efc9c229c6a005b92915050565b80471015610f93576040517fcf4791810000000000000000000000000000000000000000000000000000000081524760048201526024810182905260440161044d565b5f5f8373ffffffffffffffffffffffffffffffffffffffff16836040515f6040518083038185875af1925050503d805f8114610fea576040519150601f19603f3d011682016040523d82523d5f602084013e610fef565b606091505b5091509150816110025761100281611008565b50505050565b80511561101757805160208201fd5b6040517fd6bda27500000000000000000000000000000000000000000000000000000000815260040160405180910390fd5b602081525f82518060208401528060208501604085015e5f6040828501015260407fffffffffffffffffffffffffffffffffffffffffffffffffffffffffffffffe0601f83011684010191505092915050565b803573ffffffffffffffffffffffffffffffffffffffff811681146110bf575f5ffd5b919050565b5f602082840312156110d4575f5ffd5b6110dd8261109c565b9392505050565b7f4e487b71000000000000000000000000000000000000000000000000000000005f52604160045260245ffd5b5f82601f830112611120575f5ffd5b813567ffffffffffffffff81111561113a5761113a6110e4565b6040517fffffffffffffffffffffffffffffffffffffffffffffffffffffffffffffffe0603f7fffffffffffffffffffffffffffffffffffffffffffffffffffffffffffffffe0601f8501160116810181811067ffffffffffffffff821117156111a6576111a66110e4565b6040528181528382016020018510156111bd575f5ffd5b816020850160208301375f918101602001919091529392505050565b5f5f5f5f5f5f60c087890312156111ee575f5ffd5b863567ffffffffffffffff811115611204575f5ffd5b61121089828a01611111565b965050602087013567ffffffffffffffff81111561122c575f5ffd5b61123889828a01611111565b95505060408701359350606087013592506112556080880161109c565b915061126360a0880161109c565b90509295509295509295565b7f4e487b71000000000000000000000000000000000000000000000000000000005f52602160045260245ffd5b60208101600483106112d5577f4e487b71000000000000000000000000000000000000000000000000000000005f52602160045260245ffd5b91905290565b7f4e487b71000000000000000000000000000000000000000000000000000000005f52601160045260245ffd5b80820180821115610f4a57610f4a6112db565b600181811c9082168061132f57607f821691505b602082108103611366577f4e487b71000000000000000000000000000000000000000000000000000000005f52602260045260245ffd5b50919050565b601f8211156113b357805f5260205f20601f840160051c810160208510156113915750805b601f840160051c820191505b818110156113b0575f815560010161139d565b50505b505050565b815167ffffffffffffffff8111156113d2576113d26110e4565b6113e6816113e0845461131b565b8461136c565b6020601f821160018114611437575f83156114015750848201515b7fffffffffffffffffffffffffffffffffffffffffffffffffffffffffffffffff600385901b1c1916600184901b1784556113b0565b5f848152602081207fffffffffffffffffffffffffffffffffffffffffffffffffffffffffffffffe08516915b828110156114845787850151825560209485019460019092019101611464565b50848210156114c057868401517fffffffffffffffffffffffffffffffffffffffffffffffffffffffffffffffff600387901b60f8161c191681555b50505050600190811b01905550565b8082028115828204841417610f4a57610f4a6112db56fea2646970667358221220bfcffb4e02ff095c020bda9240710c2cb28c4b7133986b16f05301b94e3f765c64736f6c634300081c0033",
  "linkReferences": {},
  "deployedLinkReferences": {}
}