{
  "_format": "hh-sol-artifact-1",
  "contractName": "CrowdchainGovernor",
  "sourceName": "contracts/GovernanceToken.sol",
  "abi": [
    {
      "inputs": [
        {
          "internalType": "address",
          "name": "initialOwner",
          "type": "address"
        }
      ],
      "stateMutability": "nonpayable",
      "type": "constructor"
    },
    {
      "inputs": [],
      "name": "CheckpointUnorderedInsertion",
      "type": "error"
    },
    {
      "inputs": [],
      "name": "ECDSAInvalidSignature",
      "type": "error"
    },
    {
      "inputs": [
        {
          "internalType": "uint256",
          "name": "length",
          "type": "uint256"
        }
      ],
      "name": "ECDSAInvalidSignatureLength",
      "type": "error"
    },
    {
      "inputs": [
        {
          "internalType": "bytes32",
          "name": "s",
          "type": "bytes32"
        }
      ],
      "name": "ECDSAInvalidSignatureS",
      "type": "error"
    },
    {
      "inputs": [
        {
          "internalType": "uint256",
          "name": "increasedSupply",
          "type": "uint256"
        },
        {
          "internalType": "uint256",
          "name": "cap",
          "type": "uint256"
        }
      ],
      "name": "ERC20ExceededSafeSupply",
      "type": "error"
    },
    {
      "inputs": [
        {
          "internalType": "address",
          "name": "spender",
          "type": "address"
        },
        {
          "internalType": "uint256",
          "name": "allowance",
          "type": "uint256"
        },
        {
          "internalType": "uint256",
          "name": "needed",
          "type": "uint256"
        }
      ],
      "name": "ERC20InsufficientAllowance",
      "type": "error"
    },
    {
      "inputs": [
        {
          "internalType": "address",
          "name": "sender",
          "type": "address"
        },
        {
          "internalType": "uint256",
          "name": "balance",
          "type": "uint256"
        },
        {
          "internalType": "uint256",
          "name": "needed",
          "type": "uint256"
        }
      ],
      "name": "ERC20InsufficientBalance",
      "type": "error"
    },
    {
      "inputs": [
        {
          "internalType": "address",
          "name": "approver",
          "type": "address"
        }
      ],
      "name": "ERC20InvalidApprover",
      "type": "error"
    },
    {
      "inputs": [
        {
          "internalType": "address",
          "name": "receiver",
          "type": "address"
        }
      ],
      "name": "ERC20InvalidReceiver",
      "type": "error"
    },
    {
      "inputs": [
        {
          "internalType": "address",
          "name": "sender",
          "type": "address"
        }
      ],
      "name": "ERC20InvalidSender",
      "type": "error"
    },
    {
      "inputs": [
        {
          "internalType": "address",
          "name": "spender",
          "type": "address"
        }
      ],
      "name": "ERC20InvalidSpender",
      "type": "error"
    },
    {
      "inputs": [
        {
          "internalType": "uint256",
          "name": "deadline",
          "type": "uint256"
        }
      ],
      "name": "ERC2612ExpiredSignature",
      "type": "error"
    },
    {
      "inputs": [
        {
          "internalType": "address",
          "name": "signer",
          "type": "address"
        },
        {
          "internalType": "address",
          "name": "owner",
          "type": "address"
        }
      ],
      "name": "ERC2612InvalidSigner",
      "type": "error"
    },
    {
      "inputs": [
        {
          "internalType": "uint256",
          "name": "timepoint",
          "type": "uint256"
        },
        {
          "internalType": "uint48",
          "name": "clock",
          "type": "uint48"
        }
      ],
      "name": "ERC5805FutureLookup",
      "type": "error"
    },
    {
      "inputs": [],
      "name": "ERC6372InconsistentClock",
      "type": "error"
    },
    {
      "inputs": [
        {
          "internalType": "address",
          "name": "account",
          "type": "address"
        },
        {
          "internalType": "uint256",
          "name": "currentNonce",
          "type": "uint256"
        }
      ],
      "name": "InvalidAccountNonce",
      "type": "error"
    },
    {
      "inputs": [],
      "name": "InvalidShortString",
      "type": "error"
    },
    {
      "inputs": [
        {
          "internalType": "address",
          "name": "owner",
          "type": "address"
        }
      ],
      "name": "OwnableInvalidOwner",
      "type": "error"
    },
    {
      "inputs": [
        {
          "internalType": "address",
          "name": "account",
          "type": "address"
        }
      ],
      "name": "OwnableUnauthorizedAccount",
      "type": "error"
    },
    {
      "inputs": [
        {
          "internalType": "uint8",
          "name": "bits",
          "type": "uint8"
        },
        {
          "internalType": "uint256",
          "name": "value",
          "type": "uint256"
        }
      ],
      "name": "SafeCastOverflowedUintDowncast",
      "type": "error"
    },
    {
      "inputs": [
        {
          "internalType": "string",
          "name": "str",
          "type": "string"
        }
      ],
      "name": "StringTooLong",
      "type": "error"
    },
    {
      "inputs": [
        {
          "internalType": "uint256",
          "name": "expiry",
          "type": "uint256"
        }
      ],
      "name": "VotesExpiredSignature",
      "type": "error"
    },
    {
      "anonymous": false,
      "inputs": [
        {
          "indexed": true,
          "internalType": "address",
          "name": "owner",
          "type": "address"
        },
        {
          "indexed": true,
          "internalType": "address",
          "name": "spender",
          "type": "address"
        },
        {
          "indexed": false,
          "internalType": "uint256",
          "name": "value",
          "type": "uint256"
        }
      ],
      "name": "Approval",
      "type": "event"
    },
    {
      "anonymous": false,
      "inputs": [
        {
          "indexed": true,
          "internalType": "address",
          "name": "delegator",
          "type": "address"
        },
        {
          "indexed": true,
          "internalType": "address",
          "name": "fromDelegate",
          "type": "address"
        },
        {
          "indexed": true,
          "internalType": "address",
          "name": "toDelegate",
          "type": "address"
        }
      ],
      "name": "DelegateChanged",
      "type": "event"
    },
    {
      "anonymous": false,
      "inputs": [
        {
          "indexed": true,
          "internalType": "address",
          "name": "delegate",
          "type": "address"
        },
        {
          "indexed": false,
          "internalType": "uint256",
          "name": "previousVotes",
          "type": "uint256"
        },
        {
          "indexed": false,
          "internalType": "uint256",
          "name": "newVotes",
          "type": "uint256"
        }
      ],
      "name": "DelegateVotesChanged",
      "type": "event"
    },
    {
      "anonymous": false,
      "inputs": [],
      "name": "EIP712DomainChanged",
      "type": "event"
    },
    {
      "anonymous": false,
      "inputs": [
        {
          "indexed": true,
          "internalType": "address",
          "name": "previousOwner",
          "type": "address"
        },
        {
          "indexed": true,
          "internalType": "address",
          "name": "newOwner",
          "type": "address"
        }
      ],
      "name": "OwnershipTransferred",
      "type": "event"
    },
    {
      "anonymous": false,
      "inputs": [
        {
          "indexed": true,
          "internalType": "address",
          "name": "from",
          "type": "address"
        },
        {
          "indexed": true,
          "internalType": "address",
          "name": "to",
          "type": "address"
        },
        {
          "indexed": false,
          "internalType": "uint256",
          "name": "value",
          "type": "uint256"
        }
      ],
      "name": "Transfer",
      "type": "event"
    },
    {
      "inputs": [],
      "name": "CLOCK_MODE",
      "outputs": [
        {
          "internalType": "string",
          "name": "",
          "type": "string"
        }
      ],
      "stateMutability": "view",
      "type": "function"
    },
    {
      "inputs": [],
      "name": "DOMAIN_SEPARATOR",
      "outputs": [
        {
          "internalType": "bytes32",
          "name": "",
          "type": "bytes32"
        }
      ],
      "stateMutability": "view",
      "type": "function"
    },
    {
      "inputs": [
        {
          "internalType": "address",
          "name": "owner",
          "type": "address"
        },
        {
          "internalType": "address",
          "name": "spender",
          "type": "address"
        }
      ],
      "name": "allowance",
      "outputs": [
        {
          "internalType": "uint256",
          "name": "",
          "type": "uint256"
        }
      ],
      "stateMutability": "view",
      "type": "function"
    },
    {
      "inputs": [
        {
          "internalType": "address",
          "name": "spender",
          "type": "address"
        },
        {
          "internalType": "uint256",
          "name": "value",
          "type": "uint256"
        }
      ],
      "name": "approve",
      "outputs": [
        {
          "internalType": "bool",
          "name": "",
          "type": "bool"
        }
      ],
      "stateMutability": "nonpayable",
      "type": "function"
    },
    {
      "inputs": [
        {
          "internalType": "address",
          "name": "account",
          "type": "address"
        }
      ],
      "name": "balanceOf",
      "outputs": [
        {
          "internalType": "uint256",
          "name": "",
          "type": "uint256"
        }
      ],
      "stateMutability": "view",
      "type": "function"
    },
    {
      "inputs": [
        {
          "internalType": "uint256",
          "name": "value",
          "type": "uint256"
        }
      ],
      "name": "burn",
      "outputs": [],
      "stateMutability": "nonpayable",
      "type": "function"
    },
    {
      "inputs": [
        {
          "internalType": "address",
          "name": "account",
          "type": "address"
        },
        {
          "internalType": "uint256",
          "name": "value",
          "type": "uint256"
        }
      ],
      "name": "burnFrom",
      "outputs": [],
      "stateMutability": "nonpayable",
      "type": "function"
    },
    {
      "inputs": [
        {
          "internalType": "address",
          "name": "account",
          "type": "address"
        },
        {
          "internalType": "uint32",
          "name": "pos",
          "type": "uint32"
        }
      ],
      "name": "checkpoints",
      "outputs": [
        {
          "components": [
            {
              "internalType": "uint48",
              "name": "_key",
              "type": "uint48"
            },
            {
              "internalType": "uint208",
              "name": "_value",
              "type": "uint208"
            }
          ],
          "internalType": "struct Checkpoints.Checkpoint208",
          "name": "",
          "type": "tuple"
        }
      ],
      "stateMutability": "view",
      "type": "function"
    },
    {
      "inputs": [],
      "name": "clock",
      "outputs": [
        {
          "internalType": "uint48",
          "name": "",
          "type": "uint48"
        }
      ],
      "stateMutability": "view",
      "type": "function"
    },
    {
      "inputs": [],
      "name": "decimals",
      "outputs": [
        {
          "internalType": "uint8",
          "name": "",
          "type": "uint8"
        }
      ],
      "stateMutability": "view",
      "type": "function"
    },
    {
      "inputs": [
        {
          "internalType": "address",
          "name": "delegatee",
          "type": "address"
        }
      ],
      "name": "delegate",
      "outputs": [],
      "stateMutability": "nonpayable",
      "type": "function"
    },
    {
      "inputs": [
        {
          "internalType": "address",
          "name": "delegatee",
          "type": "address"
        },
        {
          "internalType": "uint256",
          "name": "nonce",
          "type": "uint256"
        },
        {
          "internalType": "uint256",
          "name": "expiry",
          "type": "uint256"
        },
        {
          "internalType": "uint8",
          "name": "v",
          "type": "uint8"
        },
        {
          "internalType": "bytes32",
          "name": "r",
          "type": "bytes32"
        },
        {
          "internalType": "bytes32",
          "name": "s",
          "type": "bytes32"
        }
      ],
      "name": "delegateBySig",
      "outputs": [],
      "stateMutability": "nonpayable",
      "type": "function"
    },
    {
      "inputs": [
        {
          "internalType": "address",
          "name": "account",
          "type": "address"
        }
      ],
      "name": "delegates",
      "outputs": [
        {
          "internalType": "address",
          "name": "",
          "type": "address"
        }
      ],
      "stateMutability": "view",
      "type": "function"
    },
    {
      "inputs": [],
      "name": "eip712Domain",
      "outputs": [
        {
          "internalType": "bytes1",
          "name": "fields",
          "type": "bytes1"
        },
        {
          "internalType": "string",
          "name": "name",
          "type": "string"
        },
        {
          "internalType": "string",
          "name": "version",
          "type": "string"
        },
        {
          "internalType": "uint256",
          "name": "chainId",
          "type": "uint256"
        },
        {
          "internalType": "address",
          "name": "verifyingContract",
          "type": "address"
        },
        {
          "internalType": "bytes32",
          "name": "salt",
          "type": "bytes32"
        },
        {
          "internalType": "uint256[]",
          "name": "extensions",
          "type": "uint256[]"
        }
      ],
      "stateMutability": "view",
      "type": "function"
    },
    {
      "inputs": [
        {
          "internalType": "uint256",
          "name": "timepoint",
          "type": "uint256"
        }
      ],
      "name": "getPastTotalSupply",
      "outputs": [
        {
          "internalType": "uint256",
          "name": "",
          "type": "uint256"
        }
      ],
      "stateMutability": "view",
      "type": "function"
    },
    {
      "inputs": [
        {
          "internalType": "address",
          "name": "account",
          "type": "address"
        },
        {
          "internalType": "uint256",
          "name": "timepoint",
          "type": "uint256"
        }
      ],
      "name": "getPastVotes",
      "outputs": [
        {
          "internalType": "uint256",
          "name": "",
          "type": "uint256"
        }
      ],
      "stateMutability": "view",
      "type": "function"
    },
    {
      "inputs": [
        {
          "internalType": "address",
          "name": "account",
          "type": "address"
        }
      ],
      "name": "getVotes",
      "outputs": [
        {
          "internalType": "uint256",
          "name": "",
          "type": "uint256"
        }
      ],
      "stateMutability": "view",
      "type": "function"
    },
    {
      "inputs": [
        {
          "internalType": "address",
          "name": "to",
          "type": "address"
        },
        {
          "internalType": "uint256",
          "name": "amount",
          "type": "uint256"
        }
      ],
      "name": "mint",
      "outputs": [],
      "stateMutability": "nonpayable",
      "type": "function"
    },
    {
      "inputs": [],
      "name": "name",
      "outputs": [
        {
          "internalType": "string",
          "name": "",
          "type": "string"
        }
      ],
      "stateMutability": "view",
      "type": "function"
    },
    {
      "inputs": [
        {
          "internalType": "address",
          "name": "owner",
          "type": "address"
        }
      ],
      "name": "nonces",
      "outputs": [
        {
          "internalType": "uint256",
          "name": "",
          "type": "uint256"
        }
      ],
      "stateMutability": "view",
      "type": "function"
    },
    {
      "inputs": [
        {
          "internalType": "address",
          "name": "account",
          "type": "address"
        }
      ],
      "name": "numCheckpoints",
      "outputs": [
        {
          "internalType": "uint32",
          "name": "",
          "type": "uint32"
        }
      ],
      "stateMutability": "view",
      "type": "function"
    },
    {
      "inputs": [],
      "name": "owner",
      "outputs": [
        {
          "internalType": "address",
          "name": "",
          "type": "address"
        }
      ],
      "stateMutability": "view",
      "type": "function"
    },
    {
      "inputs": [
        {
          "internalType": "address",
          "name": "owner",
          "type": "address"
        },
        {
          "internalType": "address",
          "name": "spender",
          "type": "address"
        },
        {
          "internalType": "uint256",
          "name": "value",
          "type": "uint256"
        },
        {
          "internalType": "uint256",
          "name": "deadline",
          "type": "uint256"
        },
        {
          "internalType": "uint8",
          "name": "v",
          "type": "uint8"
        },
        {
          "internalType": "bytes32",
          "name": "r",
          "type": "bytes32"
        },
        {
          "internalType": "bytes32",
          "name": "s",
          "type": "bytes32"
        }
      ],
      "name": "permit",
      "outputs": [],
      "stateMutability": "nonpayable",
      "type": "function"
    },
    {
      "inputs": [],
      "name": "renounceOwnership",
      "outputs": [],
      "stateMutability": "nonpayable",
      "type": "function"
    },
    {
      "inputs": [],
      "name": "symbol",
      "outputs": [
        {
          "internalType": "string",
          "name": "",
          "type": "string"
        }
      ],
      "stateMutability": "view",
      "type": "function"
    },
    {
      "inputs": [],
      "name": "totalSupply",
      "outputs": [
        {
          "internalType": "uint256",
          "name": "",
          "type": "uint256"
        }
      ],
      "stateMutability": "view",
      "type": "function"
    },
    {
      "inputs": [
        {
          "internalType": "address",
          "name": "to",
          "type": "address"
        },
        {
          "internalType": "uint256",
          "name": "value",
          "type": "uint256"
        }
      ],
      "name": "transfer",
      "outputs": [
        {
          "internalType": "bool",
          "name": "",
          "type": "bool"
        }
      ],
      "stateMutability": "nonpayable",
      "type": "function"
    },
    {
      "inputs": [
        {
          "internalType": "address",
          "name": "from",
          "type": "address"
        },
        {
          "internalType": "address",
          "name": "to",
          "type": "address"
        },
        {
          "internalType": "uint256",
          "name": "value",
          "type": "uint256"
        }
      ],
      "name": "transferFrom",
      "outputs": [
        {
          "internalType": "bool",
          "name": "",
          "type": "bool"
        }
      ],
      "stateMutability": "nonpayable",
      "type": "function"
    },
    {
      "inputs": [
        {
          "internalType": "address",
          "name": "newOwner",
          "type": "address"
        }
      ],
      "name": "transferOwnership",
      "outputs": [],
      "stateMutability": "nonpayable",
      "type": "function"
    }
  ],
  "bytecode": "0x610160604052348015610010575f5ffd5b50604051612c21380380612c2183398101604081905261002f9161028b565b6040518060400160405280601281526020017121b937bbb231b430b4b723b7bb32b93737b960711b81525080604051806040016040528060018152602001603160f81b815250836040518060400160405280601281526020017121b937bbb231b430b4b723b7bb32b93737b960711b8152506040518060400160405280600381526020016210d0d560ea1b81525081600390816100cc9190610350565b5060046100d98282610350565b5050506001600160a01b03811661010a57604051631e4fbdf760e01b81525f60048201526024015b60405180910390fd5b610113816101cb565b5061011f82600661021c565b6101205261012e81600761021c565b61014052815160208084019190912060e052815190820120610100524660a0526101ba60e05161010051604080517f8b73c3c69bb8fe3d512ecc4cf759cc79239f7b179b0ffacaa9a75d522b39400f60208201529081019290925260608201524660808201523060a08201525f9060c00160405160208183030381529060405280519060200120905090565b60805250503060c052506104629050565b600580546001600160a01b038381166001600160a01b0319831681179093556040519116919082907f8be0079c531659141344cd1fd0a4f28419497f9722a3daafe3b4186f6b6457e0905f90a35050565b5f602083511015610237576102308361024e565b9050610248565b816102428482610350565b5060ff90505b92915050565b5f5f829050601f81511115610278578260405163305a27a960e01b8152600401610101919061040a565b80516102838261043f565b179392505050565b5f6020828403121561029b575f5ffd5b81516001600160a01b03811681146102b1575f5ffd5b9392505050565b634e487b7160e01b5f52604160045260245ffd5b600181811c908216806102e057607f821691505b6020821081036102fe57634e487b7160e01b5f52602260045260245ffd5b50919050565b601f82111561034b57805f5260205f20601f840160051c810160208510156103295750805b601f840160051c820191505b81811015610348575f8155600101610335565b50505b505050565b81516001600160401b03811115610369576103696102b8565b61037d8161037784546102cc565b84610304565b6020601f8211600181146103af575f83156103985750848201515b5f19600385901b1c1916600184901b178455610348565b5f84815260208120601f198516915b828110156103de57878501518255602094850194600190920191016103be565b50848210156103fb57868401515f19600387901b60f8161c191681555b50505050600190811b01905550565b602081525f82518060208401528060208501604085015e5f604082850101526040601f19601f83011684010191505092915050565b805160208083015191908110156102fe575f1960209190910360031b1b16919050565b60805160a05160c05160e05161010051610120516101405161276e6104b35f395f6111ad01525f61118001525f610d8701525f610d5f01525f610cba01525f610ce401525f610d0e015261276e5ff3fe608060405234801561000f575f5ffd5b50600436106101c6575f3560e01c8063715018a6116100fe57806395d89b411161009e578063d505accf1161006e578063d505accf14610431578063dd62ed3e14610444578063f1127ed814610489578063f2fde38b146104db575f5ffd5b806395d89b41146103f05780639ab24eb0146103f8578063a9059cbb1461040b578063c3cda5201461041e575f5ffd5b806384b0196e116100d957806384b0196e146103855780638da5cb5b146103a05780638e539e8c146103be57806391ddadf4146103d1575f5ffd5b8063715018a61461035757806379cc67901461035f5780637ecebe0014610372575f5ffd5b806340c10f1911610169578063587cde1e11610144578063587cde1e1461028a5780635c19a95c146102e75780636fcfff45146102fa57806370a0823114610322575f5ffd5b806340c10f191461025a57806342966c681461026f5780634bf5d7e914610282575f5ffd5b806323b872dd116101a457806323b872dd1461021d578063313ce567146102305780633644e5151461023f5780633a46b1a814610247575f5ffd5b806306fdde03146101ca578063095ea7b3146101e857806318160ddd1461020b575b5f5ffd5b6101d26104ee565b6040516101df91906122ae565b60405180910390f35b6101fb6101f63660046122e8565b61057e565b60405190151581526020016101df565b6002545b6040519081526020016101df565b6101fb61022b366004612310565b610597565b604051601281526020016101df565b61020f6105ba565b61020f6102553660046122e8565b6105c8565b61026d6102683660046122e8565b610622565b005b61026d61027d36600461234a565b610638565b6101d2610645565b6102c2610298366004612361565b73ffffffffffffffffffffffffffffffffffffffff9081165f908152600960205260409020541690565b60405173ffffffffffffffffffffffffffffffffffffffff90911681526020016101df565b61026d6102f5366004612361565b6106d6565b61030d610308366004612361565b6106e1565b60405163ffffffff90911681526020016101df565b61020f610330366004612361565b73ffffffffffffffffffffffffffffffffffffffff165f9081526020819052604090205490565b61026d6106eb565b61026d61036d3660046122e8565b6106fe565b61020f610380366004612361565b610713565b61038d61071d565b6040516101df979695949392919061237a565b60055473ffffffffffffffffffffffffffffffffffffffff166102c2565b61020f6103cc36600461234a565b61077b565b6103d96107b2565b60405165ffffffffffff90911681526020016101df565b6101d26107bb565b61020f610406366004612361565b6107ca565b6101fb6104193660046122e8565b6107f7565b61026d61042c366004612449565b610804565b61026d61043f36600461249d565b6108eb565b61020f610452366004612503565b73ffffffffffffffffffffffffffffffffffffffff9182165f90815260016020908152604080832093909416825291909152205490565b61049c610497366004612534565b610a94565b60408051825165ffffffffffff16815260209283015179ffffffffffffffffffffffffffffffffffffffffffffffffffff1692810192909252016101df565b61026d6104e9366004612361565b610ab8565b6060600380546104fd90612571565b80601f016020809104026020016040519081016040528092919081815260200182805461052990612571565b80156105745780601f1061054b57610100808354040283529160200191610574565b820191905f5260205f20905b81548152906001019060200180831161055757829003601f168201915b5050505050905090565b5f3361058b818585610b18565b60019150505b92915050565b5f336105a4858285610b2a565b6105af858585610bf8565b506001949350505050565b5f6105c3610ca1565b905090565b5f6105ff6105d583610dd7565b73ffffffffffffffffffffffffffffffffffffffff85165f908152600a6020526040902090610e3e565b79ffffffffffffffffffffffffffffffffffffffffffffffffffff169392505050565b61062a610f04565b6106348282610f57565b5050565b6106423382610fb1565b50565b606061064f61100b565b65ffffffffffff1661065f6107b2565b65ffffffffffff161461069e576040517f6ff0714000000000000000000000000000000000000000000000000000000000815260040160405180910390fd5b5060408051808201909152601d81527f6d6f64653d626c6f636b6e756d6265722666726f6d3d64656661756c74000000602082015290565b336106348183611015565b5f610591826110ab565b6106f3610f04565b6106fc5f6110d9565b565b610709823383610b2a565b6106348282610fb1565b5f6105918261114f565b5f6060805f5f5f606061072e611179565b6107366111a6565b604080515f808252602082019092527f0f000000000000000000000000000000000000000000000000000000000000009b939a50919850469750309650945092509050565b5f61079061078883610dd7565b600b90610e3e565b79ffffffffffffffffffffffffffffffffffffffffffffffffffff1692915050565b5f6105c361100b565b6060600480546104fd90612571565b73ffffffffffffffffffffffffffffffffffffffff81165f908152600a60205260408120610790906111d3565b5f3361058b818585610bf8565b83421115610846576040517f4683af0e000000000000000000000000000000000000000000000000000000008152600481018590526024015b60405180910390fd5b604080517fe48329057bfd03d55e49b547132e39cffd9c1820ad7b9d4c5307691425d15adf602082015273ffffffffffffffffffffffffffffffffffffffff88169181019190915260608101869052608081018590525f906108cc906108c49060a00160405160208183030381529060405280519060200120611220565b858585611267565b90506108d88187611293565b6108e28188611015565b50505050505050565b83421115610928576040517f627913020000000000000000000000000000000000000000000000000000000081526004810185905260240161083d565b5f7f6e71edae12b1b97f4d1f60370fef10105fa2faae0126114a169c64845d6126c98888886109808c73ffffffffffffffffffffffffffffffffffffffff165f90815260086020526040902080546001810190915590565b60408051602081019690965273ffffffffffffffffffffffffffffffffffffffff94851690860152929091166060840152608083015260a082015260c0810186905260e0016040516020818303038152906040528051906020012090505f6109e782611220565b90505f6109f682878787611267565b90508973ffffffffffffffffffffffffffffffffffffffff168173ffffffffffffffffffffffffffffffffffffffff1614610a7d576040517f4b800e4600000000000000000000000000000000000000000000000000000000815273ffffffffffffffffffffffffffffffffffffffff80831660048301528b16602482015260440161083d565b610a888a8a8a610b18565b50505050505050505050565b604080518082019091525f8082526020820152610ab18383611318565b9392505050565b610ac0610f04565b73ffffffffffffffffffffffffffffffffffffffff8116610b0f576040517f1e4fbdf70000000000000000000000000000000000000000000000000000000081525f600482015260240161083d565b610642816110d9565b610b258383836001611359565b505050565b73ffffffffffffffffffffffffffffffffffffffff8381165f908152600160209081526040808320938616835292905220547fffffffffffffffffffffffffffffffffffffffffffffffffffffffffffffffff811015610bf25781811015610be4576040517ffb8f41b200000000000000000000000000000000000000000000000000000000815273ffffffffffffffffffffffffffffffffffffffff84166004820152602481018290526044810183905260640161083d565b610bf284848484035f611359565b50505050565b73ffffffffffffffffffffffffffffffffffffffff8316610c47576040517f96c6fd1e0000000000000000000000000000000000000000000000000000000081525f600482015260240161083d565b73ffffffffffffffffffffffffffffffffffffffff8216610c96576040517fec442f050000000000000000000000000000000000000000000000000000000081525f600482015260240161083d565b610b2583838361149e565b5f3073ffffffffffffffffffffffffffffffffffffffff7f000000000000000000000000000000000000000000000000000000000000000016148015610d0657507f000000000000000000000000000000000000000000000000000000000000000046145b15610d3057507f000000000000000000000000000000000000000000000000000000000000000090565b6105c3604080517f8b73c3c69bb8fe3d512ecc4cf759cc79239f7b179b0ffacaa9a75d522b39400f60208201527f0000000000000000000000000000000000000000000000000000000000000000918101919091527f000000000000000000000000000000000000000000000000000000000000000060608201524660808201523060a08201525f9060c00160405160208183030381529060405280519060200120905090565b5f5f610de16107b2565b90508065ffffffffffff168310610e35576040517fecd3f81e0000000000000000000000000000000000000000000000000000000081526004810184905265ffffffffffff8216602482015260440161083d565b610ab1836114a9565b81545f9081816005811115610e9a575f610e57846114f8565b610e6190856125ef565b5f8881526020902090915081015465ffffffffffff9081169087161015610e8a57809150610e98565b610e95816001612602565b92505b505b5f610ea78787858561165d565b90508015610ef757610ecb87610ebe6001846125ef565b5f91825260209091200190565b546601000000000000900479ffffffffffffffffffffffffffffffffffffffffffffffffffff16610ef9565b5f5b979650505050505050565b60055473ffffffffffffffffffffffffffffffffffffffff1633146106fc576040517f118cdaa700000000000000000000000000000000000000000000000000000000815233600482015260240161083d565b73ffffffffffffffffffffffffffffffffffffffff8216610fa6576040517fec442f050000000000000000000000000000000000000000000000000000000081525f600482015260240161083d565b6106345f838361149e565b73ffffffffffffffffffffffffffffffffffffffff8216611000576040517f96c6fd1e0000000000000000000000000000000000000000000000000000000081525f600482015260240161083d565b610634825f8361149e565b5f6105c3436114a9565b73ffffffffffffffffffffffffffffffffffffffff8281165f8181526009602052604080822080548686167fffffffffffffffffffffffff0000000000000000000000000000000000000000821681179092559151919094169392849290917f3134e8a2e6d97e929a7e54011ea5485d7d196dd5f0ba4d4ef95803e8e3fc257f9190a4610b2581836110a6866116bc565b6116e6565b73ffffffffffffffffffffffffffffffffffffffff81165f908152600a602052604081205461059190611903565b6005805473ffffffffffffffffffffffffffffffffffffffff8381167fffffffffffffffffffffffff0000000000000000000000000000000000000000831681179093556040519116919082907f8be0079c531659141344cd1fd0a4f28419497f9722a3daafe3b4186f6b6457e0905f90a35050565b73ffffffffffffffffffffffffffffffffffffffff81165f90815260086020526040812054610591565b60606105c37f0000000000000000000000000000000000000000000000000000000000000000600661194c565b60606105c37f0000000000000000000000000000000000000000000000000000000000000000600761194c565b80545f908015611218576111ec83610ebe6001846125ef565b546601000000000000900479ffffffffffffffffffffffffffffffffffffffffffffffffffff16610ab1565b5f9392505050565b5f61059161122c610ca1565b836040517f19010000000000000000000000000000000000000000000000000000000000008152600281019290925260228201526042902090565b5f5f5f5f611277888888886119f5565b9250925092506112878282611ae8565b50909695505050505050565b73ffffffffffffffffffffffffffffffffffffffff82165f908152600860205260409020805460018101909155818114610b25576040517f752d88c000000000000000000000000000000000000000000000000000000000815273ffffffffffffffffffffffffffffffffffffffff841660048201526024810182905260440161083d565b604080518082019091525f808252602082015273ffffffffffffffffffffffffffffffffffffffff83165f908152600a60205260409020610ab19083611beb565b73ffffffffffffffffffffffffffffffffffffffff84166113a8576040517fe602df050000000000000000000000000000000000000000000000000000000081525f600482015260240161083d565b73ffffffffffffffffffffffffffffffffffffffff83166113f7576040517f94280d620000000000000000000000000000000000000000000000000000000081525f600482015260240161083d565b73ffffffffffffffffffffffffffffffffffffffff8085165f9081526001602090815260408083209387168352929052208290558015610bf2578273ffffffffffffffffffffffffffffffffffffffff168473ffffffffffffffffffffffffffffffffffffffff167f8c5be1e5ebec7d5bd14f71427d1e84f3dd0314c0f7b2291e5b200ac8c7c3b9258460405161149091815260200190565b60405180910390a350505050565b610b25838383611c6e565b5f65ffffffffffff8211156114f4576040517f6dfcc650000000000000000000000000000000000000000000000000000000008152603060048201526024810183905260440161083d565b5090565b5f60018211611505575090565b816001700100000000000000000000000000000000821061152b5760809190911c9060401b5b6801000000000000000082106115465760409190911c9060201b5b640100000000821061155d5760209190911c9060101b5b6201000082106115725760109190911c9060081b5b61010082106115865760089190911c9060041b5b601082106115995760049190911c9060021b5b600482106115a55760011b5b600302600190811c908185816115bd576115bd612615565b048201901c905060018185816115d5576115d5612615565b048201901c905060018185816115ed576115ed612615565b048201901c9050600181858161160557611605612615565b048201901c9050600181858161161d5761161d612615565b048201901c9050600181858161163557611635612615565b048201901c905061165481858161164e5761164e612615565b04821190565b90039392505050565b5f5b818310156116b4575f6116728484611d0d565b5f8781526020902090915065ffffffffffff86169082015465ffffffffffff1611156116a0578092506116ae565b6116ab816001612602565b93505b5061165f565b509392505050565b73ffffffffffffffffffffffffffffffffffffffff81165f90815260208190526040812054610591565b8173ffffffffffffffffffffffffffffffffffffffff168373ffffffffffffffffffffffffffffffffffffffff161415801561172157505f81115b15610b255773ffffffffffffffffffffffffffffffffffffffff8316156118155773ffffffffffffffffffffffffffffffffffffffff83165f908152600a60205260408120819061177d90611d2761177886611d32565b611d91565b79ffffffffffffffffffffffffffffffffffffffffffffffffffff16915079ffffffffffffffffffffffffffffffffffffffffffffffffffff1691508473ffffffffffffffffffffffffffffffffffffffff167fdec2bacdd2f05b59de34da9b523dff8be42e5e38e818c82fdb0bae774387a724838360405161180a929190918252602082015260400190565b60405180910390a250505b73ffffffffffffffffffffffffffffffffffffffff821615610b255773ffffffffffffffffffffffffffffffffffffffff82165f908152600a60205260408120819061186790611dc961177886611d32565b79ffffffffffffffffffffffffffffffffffffffffffffffffffff16915079ffffffffffffffffffffffffffffffffffffffffffffffffffff1691508373ffffffffffffffffffffffffffffffffffffffff167fdec2bacdd2f05b59de34da9b523dff8be42e5e38e818c82fdb0bae774387a72483836040516118f4929190918252602082015260400190565b60405180910390a25050505050565b5f63ffffffff8211156114f4576040517f6dfcc650000000000000000000000000000000000000000000000000000000008152602060048201526024810183905260440161083d565b606060ff83146119665761195f83611dd4565b9050610591565b81805461197290612571565b80601f016020809104026020016040519081016040528092919081815260200182805461199e90612571565b80156119e95780601f106119c0576101008083540402835291602001916119e9565b820191905f5260205f20905b8154815290600101906020018083116119cc57829003601f168201915b50505050509050610591565b5f80807f7fffffffffffffffffffffffffffffff5d576e7357a4501ddfe92f46681b20a0841115611a2e57505f91506003905082611ade565b604080515f808252602082018084528a905260ff891692820192909252606081018790526080810186905260019060a0016020604051602081039080840390855afa158015611a7f573d5f5f3e3d5ffd5b50506040517fffffffffffffffffffffffffffffffffffffffffffffffffffffffffffffffe0015191505073ffffffffffffffffffffffffffffffffffffffff8116611ad557505f925060019150829050611ade565b92505f91508190505b9450945094915050565b5f826003811115611afb57611afb612642565b03611b04575050565b6001826003811115611b1857611b18612642565b03611b4f576040517ff645eedf00000000000000000000000000000000000000000000000000000000815260040160405180910390fd5b6002826003811115611b6357611b63612642565b03611b9d576040517ffce698f70000000000000000000000000000000000000000000000000000000081526004810182905260240161083d565b6003826003811115611bb157611bb1612642565b03610634576040517fd78bce0c0000000000000000000000000000000000000000000000000000000081526004810182905260240161083d565b604080518082019091525f8082526020820152825f018263ffffffff1681548110611c1857611c1861266f565b5f9182526020918290206040805180820190915291015465ffffffffffff811682526601000000000000900479ffffffffffffffffffffffffffffffffffffffffffffffffffff16918101919091529392505050565b611c79838383611e11565b73ffffffffffffffffffffffffffffffffffffffff8316611d02575f611c9e60025490565b905079ffffffffffffffffffffffffffffffffffffffffffffffffffff80821115611cff576040517f1cb15d26000000000000000000000000000000000000000000000000000000008152600481018390526024810182905260440161083d565b50505b610b25838383611fb8565b5f611d1b600284841861269c565b610ab190848416612602565b5f610ab182846126d4565b5f79ffffffffffffffffffffffffffffffffffffffffffffffffffff8211156114f4576040517f6dfcc65000000000000000000000000000000000000000000000000000000000815260d060048201526024810183905260440161083d565b5f5f611dbc611d9e6107b2565b611db4611daa886111d3565b868863ffffffff16565b879190612054565b915091505b935093915050565b5f610ab18284612706565b60605f611de083612061565b6040805160208082528183019092529192505f91906020820181803683375050509182525060208101929092525090565b73ffffffffffffffffffffffffffffffffffffffff8316611e48578060025f828254611e3d9190612602565b90915550611ef89050565b73ffffffffffffffffffffffffffffffffffffffff83165f9081526020819052604090205481811015611ecd576040517fe450d38c00000000000000000000000000000000000000000000000000000000815273ffffffffffffffffffffffffffffffffffffffff85166004820152602481018290526044810183905260640161083d565b73ffffffffffffffffffffffffffffffffffffffff84165f9081526020819052604090209082900390555b73ffffffffffffffffffffffffffffffffffffffff8216611f2157600280548290039055611f4c565b73ffffffffffffffffffffffffffffffffffffffff82165f9081526020819052604090208054820190555b8173ffffffffffffffffffffffffffffffffffffffff168373ffffffffffffffffffffffffffffffffffffffff167fddf252ad1be2c89b69c2b068fc378daa952ba7f163c4a11628f55a4df523b3ef83604051611fab91815260200190565b60405180910390a3505050565b73ffffffffffffffffffffffffffffffffffffffff8316611fe757611fe4600b611dc961177884611d32565b50505b73ffffffffffffffffffffffffffffffffffffffff821661201657612013600b611d2761177884611d32565b50505b73ffffffffffffffffffffffffffffffffffffffff8381165f90815260096020526040808220548584168352912054610b25929182169116836116e6565b5f80611dbc8585856120a1565b5f60ff8216601f811115610591576040517fb3512b0c00000000000000000000000000000000000000000000000000000000815260040160405180910390fd5b82545f90819080156121f2575f6120bd87610ebe6001856125ef565b805490915065ffffffffffff808216916601000000000000900479ffffffffffffffffffffffffffffffffffffffffffffffffffff1690881682111561212f576040517f2520601d00000000000000000000000000000000000000000000000000000000815260040160405180910390fd5b8765ffffffffffff168265ffffffffffff160361217e57825465ffffffffffff16660100000000000079ffffffffffffffffffffffffffffffffffffffffffffffffffff8916021783556121e4565b6040805180820190915265ffffffffffff808a16825279ffffffffffffffffffffffffffffffffffffffffffffffffffff808a1660208085019182528d54600181018f555f8f815291909120945191519092166601000000000000029216919091179101555b9450859350611dc192505050565b50506040805180820190915265ffffffffffff808516825279ffffffffffffffffffffffffffffffffffffffffffffffffffff80851660208085019182528854600181018a555f8a8152918220955192519093166601000000000000029190931617920191909155905081611dc1565b5f81518084528060208401602086015e5f6020828601015260207fffffffffffffffffffffffffffffffffffffffffffffffffffffffffffffffe0601f83011685010191505092915050565b602081525f610ab16020830184612262565b803573ffffffffffffffffffffffffffffffffffffffff811681146122e3575f5ffd5b919050565b5f5f604083850312156122f9575f5ffd5b612302836122c0565b946020939093013593505050565b5f5f5f60608486031215612322575f5ffd5b61232b846122c0565b9250612339602085016122c0565b929592945050506040919091013590565b5f6020828403121561235a575f5ffd5b5035919050565b5f60208284031215612371575f5ffd5b610ab1826122c0565b7fff000000000000000000000000000000000000000000000000000000000000008816815260e060208201525f6123b460e0830189612262565b82810360408401526123c68189612262565b6060840188905273ffffffffffffffffffffffffffffffffffffffff8716608085015260a0840186905283810360c0850152845180825260208087019350909101905f5b8181101561242857835183526020938401939092019160010161240a565b50909b9a5050505050505050505050565b803560ff811681146122e3575f5ffd5b5f5f5f5f5f5f60c0878903121561245e575f5ffd5b612467876122c0565b9550602087013594506040870135935061248360608801612439565b9598949750929560808101359460a0909101359350915050565b5f5f5f5f5f5f5f60e0888a0312156124b3575f5ffd5b6124bc886122c0565b96506124ca602089016122c0565b955060408801359450606088013593506124e660808901612439565b9699959850939692959460a0840135945060c09093013592915050565b5f5f60408385031215612514575f5ffd5b61251d836122c0565b915061252b602084016122c0565b90509250929050565b5f5f60408385031215612545575f5ffd5b61254e836122c0565b9150602083013563ffffffff81168114612566575f5ffd5b809150509250929050565b600181811c9082168061258557607f821691505b6020821081036125bc577f4e487b71000000000000000000000000000000000000000000000000000000005f52602260045260245ffd5b50919050565b7f4e487b71000000000000000000000000000000000000000000000000000000005f52601160045260245ffd5b81810381811115610591576105916125c2565b80820180821115610591576105916125c2565b7f4e487b71000000000000000000000000000000000000000000000000000000005f52601260045260245ffd5b7f4e487b71000000000000000000000000000000000000000000000000000000005f52602160045260245ffd5b7f4e487b71000000000000000000000000000000000000000000000000000000005f52603260045260245ffd5b5f826126cf577f4e487b71000000000000000000000000000000000000000000000000000000005f52601260045260245ffd5b500490565b79ffffffffffffffffffffffffffffffffffffffffffffffffffff8281168282160390811115610591576105916125c2565b79ffffffffffffffffffffffffffffffffffffffffffffffffffff8181168382160190811115610591576105916125c256fea2646970667358221220bb404ab0762ba06b72feee2585af1a5ed0a7befcb765bdc3c578c68a6ae8fd5e64736f6c634300081c0033",
  "linkReferences": {},
  "deployedLinkReferences": {}
}