{
  "_format": "hh-sol-artifact-1",
  "contractName": "Treasury",
  "sourceName": "contracts/Treasury.sol",
  "abi": [
    {
      "inputs": [
        {
          "internalType": "address",
          "name": "_campaign",
          "type": "address"
        }
      ],
      "stateMutability": "nonpayable",
      "type": "constructor"
    },
    {
      "inputs": [],
      "name": "AlreadyReleased",
      "type": "error"
    },
    {
      "inputs": [],
      "name": "FailedCall",
      "type": "error"
    },
    {
      "inputs": [
        {
          "internalType": "uint256",
          "name": "balance",
          "type": "uint256"
        },
        {
          "internalType": "uint256",
          "name": "needed",
          "type": "uint256"
        }
      ],
      "name": "InsufficientBalance",
      "type": "error"
    },
    {
      "inputs": [
        {
          "internalType": "address",
          "name": "owner",
          "type": "address"
        }
      ],
      "name": "OwnableInvalidOwner",
      "type": "error"
    },
    {
      "inputs": [
        {
          "internalType": "address",
          "name": "account",
          "type": "address"
        }
      ],
      "name": "OwnableUnauthorizedAccount",
      "type": "error"
    },
    {
      "anonymous": false,
      "inputs": [
        {
          "indexed": false,
          "internalType": "uint256",
          "name": "id",
          "type": "uint256"
        },
        {
          "indexed": false,
          "internalType": "uint256",
          "name": "amount",
          "type": "uint256"
        }
      ],
      "name": "MilestoneFunded",
      "type": "event"
    },
    {
      "anonymous": false,
      "inputs": [
        {
          "indexed": false,
          "internalType": "uint256",
          "name": "id",
          "type": "uint256"
        },
        {
          "indexed": false,
          "internalType": "address",
          "name": "to",
          "type": "address"
        }
      ],
      "name": "MilestoneReleased",
      "type": "event"
    },
    {
      "anonymous": false,
      "inputs": [
        {
          "indexed": true,
          "internalType": "address",
          "name": "previousOwner",
          "type": "address"
        },
        {
          "indexed": true,
          "internalType": "address",
          "name": "newOwner",
          "type": "address"
        }
      ],
      "name": "OwnershipTransferred",
      "type": "event"
    },
    {
      "inputs": [
        {
          "internalType": "uint256",
          "name": "id",
          "type": "uint256"
        },
        {
          "internalType": "uint256",
          "name": "amount",
          "type": "uint256"
        },
        {
          "internalType": "string",
          "name": "desc",
          "type": "string"
        }
      ],
      "name": "addMilestone",
      "outputs": [],
      "stateMutability": "nonpayable",
      "type": "function"
    },
    {
      "inputs": [],
      "name": "campaign",
      "outputs": [
        {
          "internalType": "contract Campaign",
          "name": "",
          "type": "address"
        }
      ],
      "stateMutability": "view",
      "type": "function"
    },
    {
      "inputs": [],
      "name": "fund",
      "outputs": [],
      "stateMutability": "payable",
      "type": "function"
    },
    {
      "inputs": [
        {
          "internalType": "uint256",
          "name": "",
          "type": "uint256"
        }
      ],
      "name": "milestones",
      "outputs": [
        {
          "internalType": "uint256",
          "name": "amount",
          "type": "uint256"
        },
        {
          "internalType": "bool",
          "name": "released",
          "type": "bool"
        },
        {
          "internalType": "string",
          "name": "description",
          "type": "string"
        }
      ],
      "stateMutability": "view",
      "type": "function"
    },
    {
      "inputs": [],
      "name": "owner",
      "outputs": [
        {
          "internalType": "address",
          "name": "",
          "type": "address"
        }
      ],
      "stateMutability": "view",
      "type": "function"
    },
    {
      "inputs": [
        {
          "internalType": "uint256",
          "name": "id",
          "type": "uint256"
        }
      ],
      "name": "releaseMilestone",
      "outputs": [],
      "stateMutability": "nonpayable",
      "type": "function"
    },
    {
      "inputs": [],
      "name": "renounceOwnership",
      "outputs": [],
      "stateMutability": "nonpayable",
      "type": "function"
    },
    {
      "inputs": [],
      "name": "totalFunds",
      "outputs": [
        {
          "internalType": "uint256",
          "name": "",
          "type": "uint256"
        }
      ],
      "stateMutability": "view",
      "type": "function"
    },
    {
      "inputs": [
        {
          "internalType": "address",
          "name": "newOwner",
          "type": "address"
        }
      ],
      "name": "transferOwnership",
      "outputs": [],
      "stateMutability": "nonpayable",
      "type": "function"
    },
    {
      "stateMutability": "payable",
      "type": "receive"
    }
  ],
  "bytecode": "0x608060405234801561000f575f5ffd5b50604051610ddb380380610ddb83398101604081905261002e916100d1565b338061005357604051631e4fbdf760e01b81525f600482015260240160405180910390fd5b61005c81610082565b50600180546001600160a01b0319166001600160a01b03929092169190911790556100fe565b5f80546001600160a01b038381166001600160a01b0319831681178455604051919092169283917f8be0079c531659141344cd1fd0a4f28419497f9722a3daafe3b4186f6b6457e09190a35050565b5f602082840312156100e1575f5ffd5b81516001600160a01b03811681146100f7575f5ffd5b9392505050565b610cd08061010b5f395ff3fe608060405260043610610096575f3560e01c80638da5cb5b11610066578063b60d42881161004c578063b60d4288146101ae578063e89e4ed6146101b6578063f2fde38b146101e4575f5ffd5b80638da5cb5b14610162578063968ed6001461018b575f5ffd5b80631dbde11f146100b8578063317debf5146100d9578063715018a6146100f8578063811e539c1461010c575f5ffd5b366100b4573460025f8282546100ac91906108a1565b925050819055005b5f5ffd5b3480156100c3575f5ffd5b506100d76100d236600461090c565b610203565b005b3480156100e4575f5ffd5b506100d76100f3366004610a0e565b610285565b348015610103575f5ffd5b506100d7610570565b348015610117575f5ffd5b506001546101389073ffffffffffffffffffffffffffffffffffffffff1681565b60405173ffffffffffffffffffffffffffffffffffffffff90911681526020015b60405180910390f35b34801561016d575f5ffd5b505f5473ffffffffffffffffffffffffffffffffffffffff16610138565b348015610196575f5ffd5b506101a060025481565b604051908152602001610159565b6100d7610583565b3480156101c1575f5ffd5b506101d56101d0366004610a0e565b6105d3565b60405161015993929190610a25565b3480156101ef575f5ffd5b506100d76101fe366004610aa9565b61067f565b61020b6106e2565b604080516060810182528381525f60208083018281528385018681528884526003909252939091208251815592516001840180547fffffffffffffffffffffffffffffffffffffffffffffffffffffffffffffff001691151591909117905551909190600282019061027d9082610b68565b505050505050565b61028d6106e2565b5f8181526003602052604090208054610307576040517f08c379a000000000000000000000000000000000000000000000000000000000815260206004820152601160248201527f496e76616c6964206d696c6573746f6e6500000000000000000000000000000060448201526064015b60405180910390fd5b600181015460ff1615610346576040517f63b4904e00000000000000000000000000000000000000000000000000000000815260040160405180910390fd5b80544710156103b1576040517f08c379a000000000000000000000000000000000000000000000000000000000815260206004820152601260248201527f496e73756666696369656e742066756e6473000000000000000000000000000060448201526064016102fe565b600181810180547fffffffffffffffffffffffffffffffffffffffffffffffffffffffffffffff00168217905581549054604080517f38af3eed000000000000000000000000000000000000000000000000000000008152905161048f939273ffffffffffffffffffffffffffffffffffffffff16916338af3eed9160048083019260209291908290030181865afa15801561044f573d5f5f3e3d5ffd5b505050506040513d601f19601f820116820180604052508101906104739190610c7f565b73ffffffffffffffffffffffffffffffffffffffff1690610734565b7f86390db4b9257985448d6b033223f28cf013c927a17d770a8160a79bdfd53eaa8260015f9054906101000a900473ffffffffffffffffffffffffffffffffffffffff1673ffffffffffffffffffffffffffffffffffffffff166338af3eed6040518163ffffffff1660e01b8152600401602060405180830381865afa15801561051b573d5f5f3e3d5ffd5b505050506040513d601f19601f8201168201806040525081019061053f9190610c7f565b6040805192835273ffffffffffffffffffffffffffffffffffffffff90911660208301520160405180910390a15050565b6105786106e2565b6105815f6107ec565b565b3460025f82825461059491906108a1565b9091555050604080515f81523460208201527fad6f5443f0021bc2808ac5204f3c96a037dc9406ec9bfdf92a8e81539f04c605910160405180910390a1565b60036020525f9081526040902080546001820154600283018054929360ff909216926105fe90610acb565b80601f016020809104026020016040519081016040528092919081815260200182805461062a90610acb565b80156106755780601f1061064c57610100808354040283529160200191610675565b820191905f5260205f20905b81548152906001019060200180831161065857829003601f168201915b5050505050905083565b6106876106e2565b73ffffffffffffffffffffffffffffffffffffffff81166106d6576040517f1e4fbdf70000000000000000000000000000000000000000000000000000000081525f60048201526024016102fe565b6106df816107ec565b50565b5f5473ffffffffffffffffffffffffffffffffffffffff163314610581576040517f118cdaa70000000000000000000000000000000000000000000000000000000081523360048201526024016102fe565b80471015610777576040517fcf479181000000000000000000000000000000000000000000000000000000008152476004820152602481018290526044016102fe565b5f5f8373ffffffffffffffffffffffffffffffffffffffff16836040515f6040518083038185875af1925050503d805f81146107ce576040519150601f19603f3d011682016040523d82523d5f602084013e6107d3565b606091505b5091509150816107e6576107e681610860565b50505050565b5f805473ffffffffffffffffffffffffffffffffffffffff8381167fffffffffffffffffffffffff0000000000000000000000000000000000000000831681178455604051919092169283917f8be0079c531659141344cd1fd0a4f28419497f9722a3daafe3b4186f6b6457e09190a35050565b80511561086f57805160208201fd5b6040517fd6bda27500000000000000000000000000000000000000000000000000000000815260040160405180910390fd5b808201808211156108d9577f4e487b71000000000000000000000000000000000000000000000000000000005f52601160045260245ffd5b92915050565b7f4e487b71000000000000000000000000000000000000000000000000000000005f52604160045260245ffd5b5f5f5f6060848603121561091e575f5ffd5b8335925060208401359150604084013567ffffffffffffffff811115610942575f5ffd5b8401601f81018613610952575f5ffd5b803567ffffffffffffffff81111561096c5761096c6108df565b6040517fffffffffffffffffffffffffffffffffffffffffffffffffffffffffffffffe0603f7fffffffffffffffffffffffffffffffffffffffffffffffffffffffffffffffe0601f8501160116810181811067ffffffffffffffff821117156109d8576109d86108df565b6040528181528282016020018810156109ef575f5ffd5b816020840160208301375f602083830101528093505050509250925092565b5f60208284031215610a1e575f5ffd5b5035919050565b8381528215156020820152606060408201525f82518060608401528060208501608085015e5f6080828501015260807fffffffffffffffffffffffffffffffffffffffffffffffffffffffffffffffe0601f830116840101915050949350505050565b73ffffffffffffffffffffffffffffffffffffffff811681146106df575f5ffd5b5f60208284031215610ab9575f5ffd5b8135610ac481610a88565b9392505050565b600181811c90821680610adf57607f821691505b602082108103610b16577f4e487b71000000000000000000000000000000000000000000000000000000005f52602260045260245ffd5b50919050565b601f821115610b6357805f5260205f20601f840160051c81016020851015610b415750805b601f840160051c820191505b81811015610b60575f8155600101610b4d565b50505b505050565b815167ffffffffffffffff811115610b8257610b826108df565b610b9681610b908454610acb565b84610b1c565b6020601f821160018114610be7575f8315610bb15750848201515b7fffffffffffffffffffffffffffffffffffffffffffffffffffffffffffffffff600385901b1c1916600184901b178455610b60565b5f848152602081207fffffffffffffffffffffffffffffffffffffffffffffffffffffffffffffffe08516915b82811015610c345787850151825560209485019460019092019101610c14565b5084821015610c7057868401517fffffffffffffffffffffffffffffffffffffffffffffffffffffffffffffffff600387901b60f8161c191681555b50505050600190811b01905550565b5f60208284031215610c8f575f5ffd5b8151610ac481610a8856fea2646970667358221220526ee2197ff7d32148ba46748e8e83045c3c271d1c30f84455c037271006490564736f6c634300081c0033",
  "linkReferences": {},
  "deployedLinkReferences": {}
}