{
  "_format": "hh-sol-artifact-1",
  "contractName": "Campaign",
  "sourceName": "contracts/Campaign.sol",
  "abi": [
    {
      "inputs": [],
      "stateMutability": "nonpayable",
      "type": "constructor"
    },
    {
      "inputs": [],
      "name": "FailedCall",
      "type": "error"
    },
    {
      "inputs": [
        {
          "internalType": "uint256",
          "name": "balance",
          "type": "uint256"
        },
        {
          "internalType": "uint256",
          "name": "needed",
          "type": "uint256"
        }
      ],
      "name": "InsufficientBalance",
      "type": "error"
    },
    {
      "inputs": [],
      "name": "InvalidInitialization",
      "type": "error"
    },
    {
      "inputs": [],
      "name": "NotInitializing",
      "type": "error"
    },
    {
      "inputs": [
        {
          "internalType": "address",
          "name": "owner",
          "type": "address"
        }
      ],
      "name": "OwnableInvalidOwner",
      "type": "error"
    },
    {
      "inputs": [
        {
          "internalType": "address",
          "name": "account",
          "type": "address"
        }
      ],
      "name": "OwnableUnauthorizedAccount",
      "type": "error"
    },
    {
      "inputs": [],
      "name": "ReentrancyGuardReentrantCall",
      "type": "error"
    },
    {
      "anonymous": false,
      "inputs": [
        {
          "indexed": true,
          "internalType": "address",
          "name": "backer",
          "type": "address"
        },
        {
          "indexed": false,
          "internalType": "uint256",
          "name": "amount",
          "type": "uint256"
        },
        {
          "indexed": false,
          "internalType": "uint256",
          "name": "timestamp",
          "type": "uint256"
        }
      ],
      "name": "Funded",
      "type": "event"
    },
    {
      "anonymous": false,
      "inputs": [
        {
          "indexed": false,
          "internalType": "uint256",
          "name": "amount",
          "type": "uint256"
        }
      ],
      "name": "GoalReached",
      "type": "event"
    },
    {
      "anonymous": false,
      "inputs": [
        {
          "indexed": false,
          "internalType": "uint64",
          "name": "version",
          "type": "uint64"
        }
      ],
      "name": "Initialized",
      "type": "event"
    },
    {
      "anonymous": false,
      "inputs": [
        {
          "indexed": true,
          "internalType": "address",
          "name": "previousOwner",
          "type": "address"
        },
        {
          "indexed": true,
          "internalType": "address",
          "name": "newOwner",
          "type": "address"
        }
      ],
      "name": "OwnershipTransferred",
      "type": "event"
    },
    {
      "anonymous": false,
      "inputs": [
        {
          "indexed": true,
          "internalType": "address",
          "name": "backer",
          "type": "address"
        },
        {
          "indexed": false,
          "internalType": "uint256",
          "name": "amount",
          "type": "uint256"
        }
      ],
      "name": "Refunded",
      "type": "event"
    },
    {
      "inputs": [],
      "name": "beneficiary",
      "outputs": [
        {
          "internalType": "address",
          "name": "",
          "type": "address"
        }
      ],
      "stateMutability": "view",
      "type": "function"
    },
    {
      "inputs": [
        {
          "internalType": "address",
          "name": "",
          "type": "address"
        }
      ],
      "name": "contributions",
      "outputs": [
        {
          "internalType": "uint256",
          "name": "",
          "type": "uint256"
        }
      ],
      "stateMutability": "view",
      "type": "function"
    },
    {
      "inputs": [],
      "name": "creator",
      "outputs": [
        {
          "internalType": "address",
          "name": "",
          "type": "address"
        }
      ],
      "stateMutability": "view",
      "type": "function"
    },
    {
      "inputs": [],
      "name": "deadline",
      "outputs": [
        {
          "internalType": "uint256",
          "name": "",
          "type": "uint256"
        }
      ],
      "stateMutability": "view",
      "type": "function"
    },
    {
      "inputs": [],
      "name": "description",
      "outputs": [
        {
          "internalType": "string",
          "name": "",
          "type": "string"
        }
      ],
      "stateMutability": "view",
      "type": "function"
    },
    {
      "inputs": [],
      "name": "finalize",
      "outputs": [],
      "stateMutability": "nonpayable",
      "type": "function"
    },
    {
      "inputs": [],
      "name": "fund",
      "outputs": [],
      "stateMutability": "payable",
      "type": "function"
    },
    {
      "inputs": [],
      "name": "goal",
      "outputs": [
        {
          "internalType": "uint256",
          "name": "",
          "type": "uint256"
        }
      ],
      "stateMutability": "view",
      "type": "function"
    },
    {
      "inputs": [],
      "name": "goalReached",
      "outputs": [
        {
          "internalType": "bool",
          "name": "",
          "type": "bool"
        }
      ],
      "stateMutability": "view",
      "type": "function"
    },
    {
      "inputs": [
        {
          "internalType": "string",
          "name": "_name",
          "type": "string"
        },
        {
          "internalType": "string",
          "name": "_description",
          "type": "string"
        },
        {
          "internalType": "uint256",
          "name": "_goal",
          "type": "uint256"
        },
        {
          "internalType": "uint256",
          "name": "_durationDays",
          "type": "uint256"
        },
        {
          "internalType": "address",
          "name": "_beneficiary",
          "type": "address"
        },
        {
          "internalType": "address",
          "name": "_owner",
          "type": "address"
        }
      ],
      "name": "initialize",
      "outputs": [],
      "stateMutability": "nonpayable",
      "type": "function"
    },
    {
      "inputs": [],
      "name": "isActive",
      "outputs": [
        {
          "internalType": "bool",
          "name": "",
          "type": "bool"
        }
      ],
      "stateMutability": "view",
      "type": "function"
    },
    {
      "inputs": [],
      "name": "name",
      "outputs": [
        {
          "internalType": "string",
          "name": "",
          "type": "string"
        }
      ],
      "stateMutability": "view",
      "type": "function"
    },
    {
      "inputs": [],
      "name": "owner",
      "outputs": [
        {
          "internalType": "address",
          "name": "",
          "type": "address"
        }
      ],
      "stateMutability": "view",
      "type": "function"
    },
    {
      "inputs": [],
      "name": "recover",
      "outputs": [],
      "stateMutability": "nonpayable",
      "type": "function"
    },
    {
      "inputs": [],
      "name": "refund",
      "outputs": [],
      "stateMutability": "nonpayable",
      "type": "function"
    },
    {
      "inputs": [],
      "name": "renounceOwnership",
      "outputs": [],
      "stateMutability": "nonpayable",
      "type": "function"
    },
    {
      "inputs": [],
      "name": "state",
      "outputs": [
        {
          "internalType": "enum Campaign.State",
          "name": "",
          "type": "uint8"
        }
      ],
      "stateMutability": "view",
      "type": "function"
    },
    {
      "inputs": [],
      "name": "totalFunded",
      "outputs": [
        {
          "internalType": "uint256",
          "name": "",
          "type": "uint256"
        }
      ],
      "stateMutability": "view",
      "type": "function"
    },
    {
      "inputs": [
        {
          "internalType": "address",
          "name": "newOwner",
          "type": "address"
        }
      ],
      "name": "transferOwnership",
      "outputs": [],
      "stateMutability": "nonpayable",
      "type": "function"
    },
    {
      "inputs": [],
      "name": "withdraw",
      "outputs": [],
      "stateMutability": "nonpayable",
      "type": "function"
    },
    {
      "stateMutability": "payable",
      "type": "receive"
    }
  ],
  "bytecode": "0x6080604052348015600e575f5ffd5b503380603357604051631e4fbdf760e01b81525f600482015260240160405180910390fd5b603a816043565b50600180556092565b5f80546001600160a01b038381166001600160a01b0319831681178455604051919092169283917f8be0079c531659141344cd1fd0a4f28419497f9722a3daafe3b4186f6b6457e09190a35050565b61151c8061009f5f395ff3fe60806040526004361061015a575f3560e01c8063715018a6116100bb578063ad044f4911610071578063c19d93fb11610057578063c19d93fb14610379578063ce7460241461039f578063f2fde38b146103b3575f5ffd5b8063ad044f491461035c578063b60d428814610371575f5ffd5b8063767ab122116100a1578063767ab122146102fb5780637d3d65221461031a5780638da5cb5b14610333575f5ffd5b8063715018a6146102d35780637284e416146102e7575f5ffd5b80633ccfd60b1161011057806342e94c90116100f657806342e94c90146102805780634bb278f3146102ab578063590e1ae3146102bf575f5ffd5b80633ccfd60b14610257578063401938831461026b575f5ffd5b806322f3e2d41161014057806322f3e2d4146101e457806329dcb0cf1461020857806338af3eed1461022b575f5ffd5b806302d05d3f1461016d57806306fdde03146101c3575f5ffd5b36610169576101676103d2565b005b5f5ffd5b348015610178575f5ffd5b506008546101999073ffffffffffffffffffffffffffffffffffffffff1681565b60405173ffffffffffffffffffffffffffffffffffffffff90911681526020015b60405180910390f35b3480156101ce575f5ffd5b506101d76105a5565b6040516101ba9190611049565b3480156101ef575f5ffd5b506101f8610631565b60405190151581526020016101ba565b348015610213575f5ffd5b5061021d60065481565b6040519081526020016101ba565b348015610236575f5ffd5b506007546101999073ffffffffffffffffffffffffffffffffffffffff1681565b348015610262575f5ffd5b5061016761065d565b348015610276575f5ffd5b5061021d60055481565b34801561028b575f5ffd5b5061021d61029a3660046110c4565b600a6020525f908152604090205481565b3480156102b6575f5ffd5b50610167610862565b3480156102ca575f5ffd5b5061016761093b565b3480156102de575f5ffd5b50610167610b32565b3480156102f2575f5ffd5b506101d7610b43565b348015610306575f5ffd5b506101676103153660046111d9565b610b50565b348015610325575f5ffd5b5060055460095410156101f8565b34801561033e575f5ffd5b505f5473ffffffffffffffffffffffffffffffffffffffff16610199565b348015610367575f5ffd5b5061021d60095481565b6101676103d2565b348015610384575f5ffd5b506002546103929060ff1681565b6040516101ba919061129c565b3480156103aa575f5ffd5b50610167610d74565b3480156103be575f5ffd5b506101676103cd3660046110c4565b610dba565b5f60025460ff1660038111156103ea576103ea61126f565b14610456576040517f08c379a000000000000000000000000000000000000000000000000000000000815260206004820152601360248201527f43616d706169676e206e6f74206163746976650000000000000000000000000060448201526064015b60405180910390fd5b60065442106104c1576040517f08c379a000000000000000000000000000000000000000000000000000000000815260206004820152600f60248201527f446561646c696e65207061737365640000000000000000000000000000000000604482015260640161044d565b335f908152600a6020526040812080543492906104df908490611308565b925050819055503460095f8282546104f79190611308565b90915550506040805134815242602082015233917fcd909ec339185c4598a4096e174308fbdf136d117f230960f873a2f2e81f63af910160405180910390a2600554600954106105a357600280547fffffffffffffffffffffffffffffffffffffffffffffffffffffffffffffff001660011790556009546040519081527ffbfd8ab7c24300fa9888cd721c8565a7da56759384781283684dcf7c7c4a846b9060200160405180910390a15b565b600380546105b29061131b565b80601f01602080910402602001604051908101604052809291908181526020018280546105de9061131b565b80156106295780601f1061060057610100808354040283529160200191610629565b820191905f5260205f20905b81548152906001019060200180831161060c57829003601f168201915b505050505081565b5f8060025460ff16600381111561064a5761064a61126f565b148015610658575060065442105b905090565b610665610e1d565b600160025460ff16600381111561067e5761067e61126f565b146106e5576040517f08c379a000000000000000000000000000000000000000000000000000000000815260206004820152601060248201527f476f616c206e6f74207265616368656400000000000000000000000000000000604482015260640161044d565b60075473ffffffffffffffffffffffffffffffffffffffff163314610766576040517f08c379a000000000000000000000000000000000000000000000000000000000815260206004820152600f60248201527f4e6f742062656e65666963696172790000000000000000000000000000000000604482015260640161044d565b600280547fffffffffffffffffffffffffffffffffffffffffffffffffffffffffffffff001660031790556007546040515f9173ffffffffffffffffffffffffffffffffffffffff169047908381818185875af1925050503d805f81146107e8576040519150601f19603f3d011682016040523d82523d5f602084013e6107ed565b606091505b5050905080610858576040517f08c379a000000000000000000000000000000000000000000000000000000000815260206004820152601260248201527f4661696c656420746f2073656e64204554480000000000000000000000000000604482015260640161044d565b506105a360018055565b61086a610e60565b6006544210156108d6576040517f08c379a000000000000000000000000000000000000000000000000000000000815260206004820152601560248201527f43616d706169676e207374696c6c206163746976650000000000000000000000604482015260640161044d565b600554600954101561090e57600280547fffffffffffffffffffffffffffffffffffffffffffffffffffffffffffffff001681179055565b600280547fffffffffffffffffffffffffffffffffffffffffffffffffffffffffffffff00166003179055565b610943610e1d565b60065442101580156109585750600554600954105b6109be576040517f08c379a000000000000000000000000000000000000000000000000000000000815260206004820152601360248201527f526566756e6473206e6f7420616c6c6f77656400000000000000000000000000604482015260640161044d565b335f908152600a602052604090205480610a34576040517f08c379a000000000000000000000000000000000000000000000000000000000815260206004820152600f60248201527f4e6f20636f6e747269627574696f6e0000000000000000000000000000000000604482015260640161044d565b335f818152600a60205260408082208290555190919083908381818185875af1925050503d805f8114610a82576040519150601f19603f3d011682016040523d82523d5f602084013e610a87565b606091505b5050905080610af2576040517f08c379a000000000000000000000000000000000000000000000000000000000815260206004820152601260248201527f4661696c656420746f2073656e64204554480000000000000000000000000000604482015260640161044d565b60405182815233907fd7dee2702d63ad89917b6a4da9981c90c4d24f8c2bdfd64c604ecae57d8d06519060200160405180910390a250506105a360018055565b610b3a610e60565b6105a35f610eb2565b600480546105b29061131b565b5f610b59610f26565b805490915060ff68010000000000000000820416159067ffffffffffffffff165f81158015610b855750825b90505f8267ffffffffffffffff166001148015610ba15750303b155b905081158015610baf575080155b15610be6576040517ff92ee8a900000000000000000000000000000000000000000000000000000000815260040160405180910390fd5b84547fffffffffffffffffffffffffffffffffffffffffffffffff00000000000000001660011785558315610c475784547fffffffffffffffffffffffffffffffffffffffffffffff00ffffffffffffffff16680100000000000000001785555b6003610c538c826113b8565b506004610c608b826113b8565b506005899055610c7388620151806114cf565b610c7d9042611308565b6006556007805473ffffffffffffffffffffffffffffffffffffffff8981167fffffffffffffffffffffffff0000000000000000000000000000000000000000928316179092556008805492891692909116919091179055600280547fffffffffffffffffffffffffffffffffffffffffffffffffffffffffffffff00169055610d0686610eb2565b8315610d675784547fffffffffffffffffffffffffffffffffffffffffffffff00ffffffffffffffff168555604051600181527fc7f505b2f371ae2175ee4913f4499e1f2633a7b5936321eed1cdaeb6115181d29060200160405180910390a15b5050505050505050505050565b610d7c610e60565b6105a347610d9e5f5473ffffffffffffffffffffffffffffffffffffffff1690565b73ffffffffffffffffffffffffffffffffffffffff1690610f50565b610dc2610e60565b73ffffffffffffffffffffffffffffffffffffffff8116610e11576040517f1e4fbdf70000000000000000000000000000000000000000000000000000000081525f600482015260240161044d565b610e1a81610eb2565b50565b600260015403610e59576040517f3ee5aeb500000000000000000000000000000000000000000000000000000000815260040160405180910390fd5b6002600155565b5f5473ffffffffffffffffffffffffffffffffffffffff1633146105a3576040517f118cdaa700000000000000000000000000000000000000000000000000000000815233600482015260240161044d565b5f805473ffffffffffffffffffffffffffffffffffffffff8381167fffffffffffffffffffffffff0000000000000000000000000000000000000000831681178455604051919092169283917f8be0079c531659141344cd1fd0a4f28419497f9722a3daafe3b4186f6b6457e09190a35050565b5f807ff0c57e16840df040f15088dc2f81fe391c3923bec73e23a9662efc9c229c6a005b92915050565b80471015610f93576040517fcf4791810000000000000000000000000000000000000000000000000000000081524760048201526024810182905260440161044d565b5f5f8373ffffffffffffffffffffffffffffffffffffffff16836040515f6040518083038185875af1925050503d805f8114610fea576040519150601f19603f3d011682016040523d82523d5f602084013e610fef565b606091505b5091509150816110025761100281611008565b50505050565b80511561101757805160208201fd5b6040517fd6bda27500000000000000000000000000000000000000000000000000000000815260040160405180910390fd5b602081525f82518060208401528060208501604085015e5f6040828501015260407fffffffffffffffffffffffffffffffffffffffffffffffffffffffffffffffe0601f83011684010191505092915050565b803573ffffffffffffffffffffffffffffffffffffffff811681146110bf575f5ffd5b919050565b5f602082840312156110d4575f5ffd5b6110dd8261109c565b9392505050565b7f4e487b71000000000000000000000000000000000000000000000000000000005f52604160045260245ffd5b5f82601f830112611120575f5ffd5b813567ffffffffffffffff81111561113a5761113a6110e4565b6040517fffffffffffffffffffffffffffffffffffffffffffffffffffffffffffffffe0603f7fffffffffffffffffffffffffffffffffffffffffffffffffffffffffffffffe0601f8501160116810181811067ffffffffffffffff821117156111a6576111a66110e4565b6040528181528382016020018510156111bd575f5ffd5b816020850160208301375f918101602001919091529392505050565b5f5f5f5f5f5f60c087890312156111ee575f5ffd5b863567ffffffffffffffff811115611204575f5ffd5b61121089828a01611111565b965050602087013567ffffffffffffffff81111561122c575f5ffd5b61123889828a01611111565b95505060408701359350606087013592506112556080880161109c565b915061126360a0880161109c565b90509295509295509295565b7f4e487b71000000000000000000000000000000000000000000000000000000005f52602160045260245ffd5b60208101600483106112d5577f4e487b71000000000000000000000000000000000000000000000000000000005f52602160045260245ffd5b91905290565b7f4e487b71000000000000000000000000000000000000000000000000000000005f52601160045260245ffd5b80820180821115610f4a57610f4a6112db565b600181811c9082168061132f57607f821691505b602082108103611366577f4e487b71000000000000000000000000000000000000000000000000000000005f52602260045260245ffd5b50919050565b601f8211156113b357805f5260205f20601f840160051c810160208510156113915750805b601f840160051c820191505b818110156113b0575f815560010161139d565b50505b505050565b815167ffffffffffffffff8111156113d2576113d26110e4565b6113e6816113e0845461131b565b8461136c565b6020601f821160018114611437575f83156114015750848201515b7fffffffffffffffffffffffffffffffffffffffffffffffffffffffffffffffff600385901b1c1916600184901b1784556113b0565b5f848152602081207fffffffffffffffffffffffffffffffffffffffffffffffffffffffffffffffe08516915b828110156114845787850151825560209485019460019092019101611464565b50848210156114c057868401517fffffffffffffffffffffffffffffffffffffffffffffffffffffffffffffffff600387901b60f8161c191681555b50505050600190811b01905550565b8082028115828204841417610f4a57610f4a6112db56fea2646970667358221220bfcffb4e02ff095c020bda9240710c2cb28c4b7133986b16f05301b94e3f765c64736f6c634300081c0033",
  "linkReferences": {},
  "deployedLinkReferences": {}
}