{
  "_format": "hh-sol-artifact-1",
  "contractName": "Campaign",
  "sourceName": "contracts/Campaign.sol",
  "abi": [
    {
      "inputs": [],
      "stateMutability": "nonpayable",
      "type": "constructor"
    },
    {
      "inputs": [],
      "name": "FailedCall",
      "type": "error"
    },
    {
      "inputs": [
        {
          "internalType": "uint256",
          "name": "balance",
          "type": "uint256"
        },
        {
          "internalType": "uint256",
          "name": "needed",
          "type": "uint256"
        }
      ],
      "name": "InsufficientBalance",
      "type": "error"
    },
    {
      "inputs": [],
      "name": "InvalidInitialization",
      "type": "error"
    },
    {
      "inputs": [],
      "name": "NotInitializing",
      "type": "error"
    },
    {
      "inputs": [
        {
          "internalType": "address",
          "name": "owner",
          "type": "address"
        }
      ],
      "name": "OwnableInvalidOwner",
      "type": "error"
    },
    {
      "inputs": [
        {
          "internalType": "address",
          "name": "account",
          "type": "address"
        }
      ],
      "name": "OwnableUnauthorizedAccount",
      "type": "error"
    },
    {
      "inputs": [],
      "name": "ReentrancyGuardReentrantCall",
      "type": "error"
    },
    {
      "anonymous": false,
      "inputs": [
        {
          "indexed": true,
          "internalType": "address",
          "name": "backer",
          "type": "address"
        },
        {
          "indexed": false,
          "internalType": "uint256",
          "name": "amount",
          "type": "uint256"
        },
        {
          "indexed": false,
          "internalType": "uint256",
          "name": "timestamp",
          "type": "uint256"
        }
      ],
      "name": "Funded",
      "type": "event"
    },
    {
      "anonymous": false,
      "inputs": [
        {
          "indexed": false,
          "internalType": "uint256",
          "name": "amount",
          "type": "uint256"
        }
      ],
      "name": "GoalReached",
      "type": "event"
    },
    {
      "anonymous": false,
      "inputs": [
        {
          "indexed": false,
          "internalType": "uint64",
          "name": "version",
          "type": "uint64"
        }
      ],
      "name": "Initialized",
      "type": "event"
    },
    {
      "anonymous": false,
      "inputs": [
        {
          "indexed": true,
          "internalType": "address",
          "name": "previousOwner",
          "type": "address"
        },
        {
          "indexed": true,
          "internalType": "address",
          "name": "newOwner",
          "type": "address"
        }
      ],
      "name": "OwnershipTransferred",
      "type": "event"
    },
    {
      "anonymous": false,
      "inputs": [
        {
          "indexed": true,
          "internalType": "address",
          "name": "backer",
          "type": "address"
        },
        {
          "indexed": false,
          "internalType": "uint256",
          "name": "amount",
          "type": "uint256"
        }
      ],
      "name": "Refunded",
      "type": "event"
    },
    {
      "inputs": [],
      "name": "beneficiary",
      "outputs": [
        {
          "internalType": "address",
          "name": "",
          "type": "address"
        }
      ],
      "stateMutability": "view",
      "type": "function"
    },
    {
      "inputs": [
        {
          "internalType": "address",
          "name": "",
          "type": "address"
        }
      ],
      "name": "contributions",
      "outputs": [
        {
          "internalType": "uint256",
          "name": "",
          "type": "uint256"
        }
      ],
      "stateMutability": "view",
      "type": "function"
    },
    {
      "inputs": [],
      "name": "deadline",
      "outputs": [
        {
          "internalType": "uint256",
          "name": "",
          "type": "uint256"
        }
      ],
      "stateMutability": "view",
      "type": "function"
    },
    {
      "inputs": [],
      "name": "description",
      "outputs": [
        {
          "internalType": "string",
          "name": "",
          "type": "string"
        }
      ],
      "stateMutability": "view",
      "type": "function"
    },
    {
      "inputs": [],
      "name": "finalize",
      "outputs": [],
      "stateMutability": "nonpayable",
      "type": "function"
    },
    {
      "inputs": [],
      "name": "fund",
      "outputs": [],
      "stateMutability": "payable",
      "type": "function"
    },
    {
      "inputs": [],
      "name": "goal",
      "outputs": [
        {
          "internalType": "uint256",
          "name": "",
          "type": "uint256"
        }
      ],
      "stateMutability": "view",
      "type": "function"
    },
    {
      "inputs": [],
      "name": "goalReached",
      "outputs": [
        {
          "internalType": "bool",
          "name": "",
          "type": "bool"
        }
      ],
      "stateMutability": "view",
      "type": "function"
    },
    {
      "inputs": [
        {
          "internalType": "string",
          "name": "_name",
          "type": "string"
        },
        {
          "internalType": "string",
          "name": "_description",
          "type": "string"
        },
        {
          "internalType": "uint256",
          "name": "_goal",
          "type": "uint256"
        },
        {
          "internalType": "uint256",
          "name": "_durationDays",
          "type": "uint256"
        },
        {
          "internalType": "address",
          "name": "_beneficiary",
          "type": "address"
        },
        {
          "internalType": "address",
          "name": "_owner",
          "type": "address"
        }
      ],
      "name": "initialize",
      "outputs": [],
      "stateMutability": "nonpayable",
      "type": "function"
    },
    {
      "inputs": [],
      "name": "name",
      "outputs": [
        {
          "internalType": "string",
          "name": "",
          "type": "string"
        }
      ],
      "stateMutability": "view",
      "type": "function"
    },
    {
      "inputs": [],
      "name": "owner",
      "outputs": [
        {
          "internalType": "address",
          "name": "",
          "type": "address"
        }
      ],
      "stateMutability": "view",
      "type": "function"
    },
    {
      "inputs": [],
      "name": "recover",
      "outputs": [],
      "stateMutability": "nonpayable",
      "type": "function"
    },
    {
      "inputs": [],
      "name": "refund",
      "outputs": [],
      "stateMutability": "nonpayable",
      "type": "function"
    },
    {
      "inputs": [],
      "name": "renounceOwnership",
      "outputs": [],
      "stateMutability": "nonpayable",
      "type": "function"
    },
    {
      "inputs": [],
      "name": "state",
      "outputs": [
        {
          "internalType": "enum Campaign.State",
          "name": "",
          "type": "uint8"
        }
      ],
      "stateMutability": "view",
      "type": "function"
    },
    {
      "inputs": [],
      "name": "totalFunded",
      "outputs": [
        {
          "internalType": "uint256",
          "name": "",
          "type": "uint256"
        }
      ],
      "stateMutability": "view",
      "type": "function"
    },
    {
      "inputs": [
        {
          "internalType": "address",
          "name": "newOwner",
          "type": "address"
        }
      ],
      "name": "transferOwnership",
      "outputs": [],
      "stateMutability": "nonpayable",
      "type": "function"
    },
    {
      "inputs": [],
      "name": "withdraw",
      "outputs": [],
      "stateMutability": "nonpayable",
      "type": "function"
    },
    {
      "stateMutability": "payable",
      "type": "receive"
    }
  ],
  "bytecode": "0x6080604052348015600e575f5ffd5b503380603357604051631e4fbdf760e01b81525f600482015260240160405180910390fd5b603a816043565b50600180556092565b5f80546001600160a01b038381166001600160a01b0319831681178455604051919092169283917f8be0079c531659141344cd1fd0a4f28419497f9722a3daafe3b4186f6b6457e09190a35050565b6114648061009f5f395ff3fe608060405260043610610126575f3560e01c80637284e416116100a1578063ad044f4911610071578063c19d93fb11610057578063c19d93fb14610302578063ce74602414610328578063f2fde38b1461033c575f5ffd5b8063ad044f49146102e5578063b60d4288146102fa575f5ffd5b80637284e41614610267578063767ab1221461027b5780637d3d65221461029a5780638da5cb5b146102bc575f5ffd5b806340193883116100f65780634bb278f3116100dc5780634bb278f31461022b578063590e1ae31461023f578063715018a614610253575f5ffd5b806340193883146101eb57806342e94c9014610200575f5ffd5b806306fdde031461013957806329dcb0cf1461016357806338af3eed146101865780633ccfd60b146101d7575f5ffd5b366101355761013361035b565b005b5f5ffd5b348015610144575f5ffd5b5061014d61052e565b60405161015a9190610f91565b60405180910390f35b34801561016e575f5ffd5b5061017860065481565b60405190815260200161015a565b348015610191575f5ffd5b506007546101b29073ffffffffffffffffffffffffffffffffffffffff1681565b60405173ffffffffffffffffffffffffffffffffffffffff909116815260200161015a565b3480156101e2575f5ffd5b506101336105ba565b3480156101f6575f5ffd5b5061017860055481565b34801561020b575f5ffd5b5061017861021a36600461100c565b60096020525f908152604090205481565b348015610236575f5ffd5b506101336107bf565b34801561024a575f5ffd5b50610133610898565b34801561025e575f5ffd5b50610133610a8f565b348015610272575f5ffd5b5061014d610aa0565b348015610286575f5ffd5b50610133610295366004611121565b610aad565b3480156102a5575f5ffd5b50600554600854604051911115815260200161015a565b3480156102c7575f5ffd5b505f5473ffffffffffffffffffffffffffffffffffffffff166101b2565b3480156102f0575f5ffd5b5061017860085481565b61013361035b565b34801561030d575f5ffd5b5060025461031b9060ff1681565b60405161015a91906111e4565b348015610333575f5ffd5b50610133610cbc565b348015610347575f5ffd5b5061013361035636600461100c565b610d02565b5f60025460ff166003811115610373576103736111b7565b146103df576040517f08c379a000000000000000000000000000000000000000000000000000000000815260206004820152601360248201527f43616d706169676e206e6f74206163746976650000000000000000000000000060448201526064015b60405180910390fd5b600654421061044a576040517f08c379a000000000000000000000000000000000000000000000000000000000815260206004820152600f60248201527f446561646c696e6520706173736564000000000000000000000000000000000060448201526064016103d6565b335f9081526009602052604081208054349290610468908490611250565b925050819055503460085f8282546104809190611250565b90915550506040805134815242602082015233917fcd909ec339185c4598a4096e174308fbdf136d117f230960f873a2f2e81f63af910160405180910390a26005546008541061052c57600280547fffffffffffffffffffffffffffffffffffffffffffffffffffffffffffffff001660011790556008546040519081527ffbfd8ab7c24300fa9888cd721c8565a7da56759384781283684dcf7c7c4a846b9060200160405180910390a15b565b6003805461053b90611263565b80601f016020809104026020016040519081016040528092919081815260200182805461056790611263565b80156105b25780601f10610589576101008083540402835291602001916105b2565b820191905f5260205f20905b81548152906001019060200180831161059557829003601f168201915b505050505081565b6105c2610d65565b600160025460ff1660038111156105db576105db6111b7565b14610642576040517f08c379a000000000000000000000000000000000000000000000000000000000815260206004820152601060248201527f476f616c206e6f7420726561636865640000000000000000000000000000000060448201526064016103d6565b60075473ffffffffffffffffffffffffffffffffffffffff1633146106c3576040517f08c379a000000000000000000000000000000000000000000000000000000000815260206004820152600f60248201527f4e6f742062656e6566696369617279000000000000000000000000000000000060448201526064016103d6565b600280547fffffffffffffffffffffffffffffffffffffffffffffffffffffffffffffff001660031790556007546040515f9173ffffffffffffffffffffffffffffffffffffffff169047908381818185875af1925050503d805f8114610745576040519150601f19603f3d011682016040523d82523d5f602084013e61074a565b606091505b50509050806107b5576040517f08c379a000000000000000000000000000000000000000000000000000000000815260206004820152601260248201527f4661696c656420746f2073656e6420455448000000000000000000000000000060448201526064016103d6565b5061052c60018055565b6107c7610da8565b600654421015610833576040517f08c379a000000000000000000000000000000000000000000000000000000000815260206004820152601560248201527f43616d706169676e207374696c6c20616374697665000000000000000000000060448201526064016103d6565b600554600854101561086b57600280547fffffffffffffffffffffffffffffffffffffffffffffffffffffffffffffff001681179055565b600280547fffffffffffffffffffffffffffffffffffffffffffffffffffffffffffffff00166003179055565b6108a0610d65565b60065442101580156108b55750600554600854105b61091b576040517f08c379a000000000000000000000000000000000000000000000000000000000815260206004820152601360248201527f526566756e6473206e6f7420616c6c6f7765640000000000000000000000000060448201526064016103d6565b335f9081526009602052604090205480610991576040517f08c379a000000000000000000000000000000000000000000000000000000000815260206004820152600f60248201527f4e6f20636f6e747269627574696f6e000000000000000000000000000000000060448201526064016103d6565b335f818152600960205260408082208290555190919083908381818185875af1925050503d805f81146109df576040519150601f19603f3d011682016040523d82523d5f602084013e6109e4565b606091505b5050905080610a4f576040517f08c379a000000000000000000000000000000000000000000000000000000000815260206004820152601260248201527f4661696c656420746f2073656e6420455448000000000000000000000000000060448201526064016103d6565b60405182815233907fd7dee2702d63ad89917b6a4da9981c90c4d24f8c2bdfd64c604ecae57d8d06519060200160405180910390a2505061052c60018055565b610a97610da8565b61052c5f610dfa565b6004805461053b90611263565b5f610ab6610e6e565b805490915060ff68010000000000000000820416159067ffffffffffffffff165f81158015610ae25750825b90505f8267ffffffffffffffff166001148015610afe5750303b155b905081158015610b0c575080155b15610b43576040517ff92ee8a900000000000000000000000000000000000000000000000000000000815260040160405180910390fd5b84547fffffffffffffffffffffffffffffffffffffffffffffffff00000000000000001660011785558315610ba45784547fffffffffffffffffffffffffffffffffffffffffffffff00ffffffffffffffff16680100000000000000001785555b6003610bb08c82611300565b506004610bbd8b82611300565b506005899055610bd08862015180611417565b610bda9042611250565b600655600780547fffffffffffffffffffffffff00000000000000000000000000000000000000001673ffffffffffffffffffffffffffffffffffffffff8916179055600280547fffffffffffffffffffffffffffffffffffffffffffffffffffffffffffffff00169055610c4e86610dfa565b8315610caf5784547fffffffffffffffffffffffffffffffffffffffffffffff00ffffffffffffffff168555604051600181527fc7f505b2f371ae2175ee4913f4499e1f2633a7b5936321eed1cdaeb6115181d29060200160405180910390a15b5050505050505050505050565b610cc4610da8565b61052c47610ce65f5473ffffffffffffffffffffffffffffffffffffffff1690565b73ffffffffffffffffffffffffffffffffffffffff1690610e98565b610d0a610da8565b73ffffffffffffffffffffffffffffffffffffffff8116610d59576040517f1e4fbdf70000000000000000000000000000000000000000000000000000000081525f60048201526024016103d6565b610d6281610dfa565b50565b600260015403610da1576040517f3ee5aeb500000000000000000000000000000000000000000000000000000000815260040160405180910390fd5b6002600155565b5f5473ffffffffffffffffffffffffffffffffffffffff16331461052c576040517f118cdaa70000000000000000000000000000000000000000000000000000000081523360048201526024016103d6565b5f805473ffffffffffffffffffffffffffffffffffffffff8381167fffffffffffffffffffffffff0000000000000000000000000000000000000000831681178455604051919092169283917f8be0079c531659141344cd1fd0a4f28419497f9722a3daafe3b4186f6b6457e09190a35050565b5f807ff0c57e16840df040f15088dc2f81fe391c3923bec73e23a9662efc9c229c6a005b92915050565b80471015610edb576040517fcf479181000000000000000000000000000000000000000000000000000000008152476004820152602481018290526044016103d6565b5f5f8373ffffffffffffffffffffffffffffffffffffffff16836040515f6040518083038185875af1925050503d805f8114610f32576040519150601f19603f3d011682016040523d82523d5f602084013e610f37565b606091505b509150915081610f4a57610f4a81610f50565b50505050565b805115610f5f57805160208201fd5b6040517fd6bda27500000000000000000000000000000000000000000000000000000000815260040160405180910390fd5b602081525f82518060208401528060208501604085015e5f6040828501015260407fffffffffffffffffffffffffffffffffffffffffffffffffffffffffffffffe0601f83011684010191505092915050565b803573ffffffffffffffffffffffffffffffffffffffff81168114611007575f5ffd5b919050565b5f6020828403121561101c575f5ffd5b61102582610fe4565b9392505050565b7f4e487b71000000000000000000000000000000000000000000000000000000005f52604160045260245ffd5b5f82601f830112611068575f5ffd5b813567ffffffffffffffff8111156110825761108261102c565b6040517fffffffffffffffffffffffffffffffffffffffffffffffffffffffffffffffe0603f7fffffffffffffffffffffffffffffffffffffffffffffffffffffffffffffffe0601f8501160116810181811067ffffffffffffffff821117156110ee576110ee61102c565b604052818152838201602001851015611105575f5ffd5b816020850160208301375f918101602001919091529392505050565b5f5f5f5f5f5f60c08789031215611136575f5ffd5b863567ffffffffffffffff81111561114c575f5ffd5b61115889828a01611059565b965050602087013567ffffffffffffffff811115611174575f5ffd5b61118089828a01611059565b955050604087013593506060870135925061119d60808801610fe4565b91506111ab60a08801610fe4565b90509295509295509295565b7f4e487b71000000000000000000000000000000000000000000000000000000005f52602160045260245ffd5b602081016004831061121d577f4e487b71000000000000000000000000000000000000000000000000000000005f52602160045260245ffd5b91905290565b7f4e487b71000000000000000000000000000000000000000000000000000000005f52601160045260245ffd5b80820180821115610e9257610e92611223565b600181811c9082168061127757607f821691505b6020821081036112ae577f4e487b71000000000000000000000000000000000000000000000000000000005f52602260045260245ffd5b50919050565b601f8211156112fb57805f5260205f20601f840160051c810160208510156112d95750805b601f840160051c820191505b818110156112f8575f81556001016112e5565b50505b505050565b815167ffffffffffffffff81111561131a5761131a61102c565b61132e816113288454611263565b846112b4565b6020601f82116001811461137f575f83156113495750848201515b7fffffffffffffffffffffffffffffffffffffffffffffffffffffffffffffffff600385901b1c1916600184901b1784556112f8565b5f848152602081207fffffffffffffffffffffffffffffffffffffffffffffffffffffffffffffffe08516915b828110156113cc57878501518255602094850194600190920191016113ac565b508482101561140857868401517fffffffffffffffffffffffffffffffffffffffffffffffffffffffffffffffff600387901b60f8161c191681555b50505050600190811b01905550565b8082028115828204841417610e9257610e9261122356fea264697066735822122049b14abb8aaa09db0ee5be721fac60ee0a84bcf1e39cb7c5f82219b3f41ee39c64736f6c634300081c0033",
  "linkReferences": {},
  "deployedLinkReferences": {}
}